{
  "data": {
    "bytecode": {
      "linkReferences": {},
      "object": "6080604052737aaad5a5fa74aec83b74c2a098fbc86e17ce4aea6000806101000a81548173ffffffffffffffffffffffffffffffffffffffff021916908373ffffffffffffffffffffffffffffffffffffffff1602179055507364defa3544c695db8c535d289d843a189aa26b98600160006101000a81548173ffffffffffffffffffffffffffffffffffffffff021916908373ffffffffffffffffffffffffffffffffffffffff1602179055503480156100b957600080fd5b50613f87806100c96000396000f3fe6080604052600436106100e05760003560e01c806379bbbdba1161007f57806387cf2ac91161005957806387cf2ac914610307578063968a502014610330578063cdea9a8f1461036e578063d954863c146103ae576100e7565b806379bbbdba1461024f5780637b641fbc1461028c5780638743de81146102c9576100e7565b806332e7a848116100bb57806332e7a8481461016757806364c50007146101a757806369d5dd67146101e8578063775146c314610226576100e7565b8062671b97146100ec578063040cf020146101155780632c729fd11461013e576100e7565b366100e757005b600080fd5b3480156100f857600080fd5b50610113600480360381019061010e9190613020565b6103ca565b005b34801561012157600080fd5b5061013c60048036038101906101379190613098565b6107cd565b005b34801561014a57600080fd5b50610165600480360381019061016091906130d4565b610add565b005b34801561017357600080fd5b5061018e60048036038101906101899190613020565b610de3565b60405161019e94939291906137e5565b60405180910390f35b3480156101b357600080fd5b506101ce60048036038101906101c99190613020565b611241565b6040516101df959493929190613732565b60405180910390f35b3480156101f457600080fd5b5061020f600480360381019061020a9190613020565b611341565b60405161021d929190613941565b60405180910390f35b34801561023257600080fd5b5061024d60048036038101906102489190613098565b6114de565b005b34801561025b57600080fd5b5061027660048036038101906102719190612f7c565b6116e2565b60405161028391906137c3565b60405180910390f35b34801561029857600080fd5b506102b360048036038101906102ae9190613020565b611779565b6040516102c09190613710565b60405180910390f35b3480156102d557600080fd5b506102f060048036038101906102eb9190613020565b611845565b6040516102fe92919061378c565b60405180910390f35b34801561031357600080fd5b5061032e60048036038101906103299190613123565b611aa9565b005b34801561033c57600080fd5b5061035760048036038101906103529190613020565b611e5e565b60405161036592919061378c565b60405180910390f35b34801561037a57600080fd5b5061039560048036038101906103909190613098565b6120a5565b6040516103a5949392919061396a565b60405180910390f35b6103c860048036038101906103c39190613049565b61222a565b005b8060006002600083815260200190815260200160002060010180549050116103f157600080fd5b814260026000838152602001908152602001600020600401541061044a576040517f08c379a0000000000000000000000000000000000000000000000000000000008152600401610441906138e6565b60405180910390fd5b600060026000858152602001908152602001600020905080600601600081548092919061047690613c79565b919050555062015180816005015461048e9190613afd565b426104999190613a76565b816004018190555060005b81600101805490508110156107c65760008260020160008460010184815481106104f7577f4e487b7100000000000000000000000000000000000000000000000000000000600052603260045260246000fd5b9060005260206000200160009054906101000a900473ffffffffffffffffffffffffffffffffffffffff1673ffffffffffffffffffffffffffffffffffffffff1673ffffffffffffffffffffffffffffffffffffffff16815260200190815260200160002060020154905082600701548110156106f35780836007015461057e9190613b57565b8360020160008560010185815481106105c0577f4e487b7100000000000000000000000000000000000000000000000000000000600052603260045260246000fd5b9060005260206000200160009054906101000a900473ffffffffffffffffffffffffffffffffffffffff1673ffffffffffffffffffffffffffffffffffffffff1673ffffffffffffffffffffffffffffffffffffffff16815260200190815260200160002060010160008282546106379190613a76565b925050819055506000836002016000856001018581548110610682577f4e487b7100000000000000000000000000000000000000000000000000000000600052603260045260246000fd5b9060005260206000200160009054906101000a900473ffffffffffffffffffffffffffffffffffffffff1673ffffffffffffffffffffffffffffffffffffffff1673ffffffffffffffffffffffffffffffffffffffff168152602001908152602001600020600201819055506107b2565b8260070154816107039190613b57565b836002016000856001018581548110610745577f4e487b7100000000000000000000000000000000000000000000000000000000600052603260045260246000fd5b9060005260206000200160009054906101000a900473ffffffffffffffffffffffffffffffffffffffff1673ffffffffffffffffffffffffffffffffffffffff1673ffffffffffffffffffffffffffffffffffffffff168152602001908152602001600020600201819055505b5080806107be90613c79565b9150506104a4565b5050505050565b816002600082815260200190815260200160002060020160003373ffffffffffffffffffffffffffffffffffffffff1673ffffffffffffffffffffffffffffffffffffffff16815260200190815260200160002060030160009054906101000a900460ff16610871576040517f08c379a0000000000000000000000000000000000000000000000000000000008152600401610868906138c6565b60405180910390fd5b6000600260008581526020019081526020016000209050828160020160003373ffffffffffffffffffffffffffffffffffffffff1673ffffffffffffffffffffffffffffffffffffffff16815260200190815260200160002060000154101561090f576040517f08c379a000000000000000000000000000000000000000000000000000000000815260040161090690613886565b60405180910390fd5b610918836126b1565b8060030160009054906101000a900473ffffffffffffffffffffffffffffffffffffffff1673ffffffffffffffffffffffffffffffffffffffff1663095ea7b333856040518363ffffffff1660e01b81526004016109779291906136b0565b602060405180830381600087803b15801561099157600080fd5b505af11580156109a5573d6000803e3d6000fd5b505050506040513d601f19601f820116820180604052508101906109c99190612ff7565b508060030160009054906101000a900473ffffffffffffffffffffffffffffffffffffffff1673ffffffffffffffffffffffffffffffffffffffff1663a9059cbb33856040518363ffffffff1660e01b8152600401610a299291906136b0565b602060405180830381600087803b158015610a4357600080fd5b505af1158015610a57573d6000803e3d6000fd5b505050506040513d601f19601f82011682018060405250810190610a7b9190612ff7565b50828160020160003373ffffffffffffffffffffffffffffffffffffffff1673ffffffffffffffffffffffffffffffffffffffff1681526020019081526020016000206000016000828254610ad09190613b57565b9250508190555050505050565b826000600260008381526020019081526020016000206001018054905011610b0457600080fd5b836002600082815260200190815260200160002060020160003373ffffffffffffffffffffffffffffffffffffffff1673ffffffffffffffffffffffffffffffffffffffff16815260200190815260200160002060030160009054906101000a900460ff16610ba8576040517f08c379a0000000000000000000000000000000000000000000000000000000008152600401610b9f906138c6565b60405180910390fd5b6000600260008781526020019081526020016000209050600081600a018681548110610bfd577f4e487b7100000000000000000000000000000000000000000000000000000000600052603260045260246000fd5b90600052602060002090600402019050600060028360010180549050610c239190613acc565b9050600280811115610c5e577f4e487b7100000000000000000000000000000000000000000000000000000000600052602160045260246000fd5b8360090160009054906101000a900460ff166002811115610ca8577f4e487b7100000000000000000000000000000000000000000000000000000000600052602160045260246000fd5b148015610d0457503373ffffffffffffffffffffffffffffffffffffffff168360000160009054906101000a900473ffffffffffffffffffffffffffffffffffffffff1673ffffffffffffffffffffffffffffffffffffffff16145b15610d2e578515610d1e57610d198888612741565b610d29565b610d2888886129fa565b5b610dd9565b8515610d5357816000016000815480929190610d4990613c79565b9190505550610d6e565b816001016000815480929190610d6890613c79565b91905055505b80836001018054905060648460000154610d889190613afd565b610d929190613acc565b1115610da357610da28888612741565b5b80836001018054905060648460010154610dbd9190613afd565b610dc79190613acc565b1115610dd857610dd788886129fa565b5b5b5050505050505050565b606080606080846000600260008381526020019081526020016000206001018054905011610e1057600080fd5b600060026000888152602001908152602001600020600a0190506000818054905090508067ffffffffffffffff811115610e73577f4e487b7100000000000000000000000000000000000000000000000000000000600052604160045260246000fd5b604051908082528060200260200182016040528015610ea15781602001602082028036833780820191505090505b5096508067ffffffffffffffff811115610ee4577f4e487b7100000000000000000000000000000000000000000000000000000000600052604160045260246000fd5b604051908082528060200260200182016040528015610f125781602001602082028036833780820191505090505b5095508067ffffffffffffffff811115610f55577f4e487b7100000000000000000000000000000000000000000000000000000000600052604160045260246000fd5b604051908082528060200260200182016040528015610f835781602001602082028036833780820191505090505b5094508067ffffffffffffffff811115610fc6577f4e487b7100000000000000000000000000000000000000000000000000000000600052604160045260246000fd5b604051908082528060200260200182016040528015610ff45781602001602082028036833780820191505090505b50935060005b8181101561123657600083828154811061103d577f4e487b7100000000000000000000000000000000000000000000000000000000600052603260045260246000fd5b90600052602060002090600402016040518060800160405290816000820154815260200160018201548152602001600282015481526020016003820160009054906101000a900473ffffffffffffffffffffffffffffffffffffffff1673ffffffffffffffffffffffffffffffffffffffff1673ffffffffffffffffffffffffffffffffffffffff16815250509050806000015189838151811061110a577f4e487b7100000000000000000000000000000000000000000000000000000000600052603260045260246000fd5b6020026020010181815250508060200151888381518110611154577f4e487b7100000000000000000000000000000000000000000000000000000000600052603260045260246000fd5b602002602001018181525050806060015187838151811061119e577f4e487b7100000000000000000000000000000000000000000000000000000000600052603260045260246000fd5b602002602001019073ffffffffffffffffffffffffffffffffffffffff16908173ffffffffffffffffffffffffffffffffffffffff16815250508060400151868381518110611216577f4e487b7100000000000000000000000000000000000000000000000000000000600052603260045260246000fd5b60200260200101818152505050808061122e90613c79565b915050610ffa565b505050509193509193565b60606000806000806000600260008881526020019081526020016000209050806001018160030160009054906101000a900473ffffffffffffffffffffffffffffffffffffffff16826007015483600501548460090160009054906101000a900460ff168480548060200260200160405190810160405280929190818152602001828054801561132657602002820191906000526020600020905b8160009054906101000a900473ffffffffffffffffffffffffffffffffffffffff1673ffffffffffffffffffffffffffffffffffffffff16815260200190600101908083116112dc575b50505050509450955095509550955095505091939590929450565b60008082600060026000838152602001908152602001600020600101805490501161136b57600080fd5b6000611375612be4565b9050600060026000878152602001908152602001600020905060008273ffffffffffffffffffffffffffffffffffffffff166328dd2d018360030160009054906101000a900473ffffffffffffffffffffffffffffffffffffffff16306040518363ffffffff1660e01b81526004016113ef929190613619565b6101406040518083038186803b15801561140857600080fd5b505afa15801561141c573d6000803e3d6000fd5b505050506040513d601f19601f8201168201806040525081019061144091906131f9565b5050505050505050509050600460008360030160009054906101000a900473ffffffffffffffffffffffffffffffffffffffff1673ffffffffffffffffffffffffffffffffffffffff1673ffffffffffffffffffffffffffffffffffffffff168152602001908152602001600020548260080154826114bf9190613afd565b6114c99190613acc565b90508082600801549550955050505050915091565b81600060026000838152602001908152602001600020600101805490501161150557600080fd5b826002600082815260200190815260200160002060020160003373ffffffffffffffffffffffffffffffffffffffff1673ffffffffffffffffffffffffffffffffffffffff16815260200190815260200160002060030160009054906101000a900460ff166115a9576040517f08c379a00000000000000000000000000000000000000000000000000000000081526004016115a0906138c6565b60405180910390fd5b60006002600086815260200190815260200160002090506115c8612d30565b8481604001818152505033816060019073ffffffffffffffffffffffffffffffffffffffff16908173ffffffffffffffffffffffffffffffffffffffff16815250507f984c20a11321713448691d23875e2560784081023478b351713f9c5a8214c55133878760405161163d93929190613679565b60405180910390a181600a0181908060018154018082558091505060019003906000526020600020906004020160009091909190915060008201518160000155602082015181600101556040820151816002015560608201518160030160006101000a81548173ffffffffffffffffffffffffffffffffffffffff021916908373ffffffffffffffffffffffffffffffffffffffff1602179055505050505050505050565b6060600360008373ffffffffffffffffffffffffffffffffffffffff1673ffffffffffffffffffffffffffffffffffffffff16815260200190815260200160002080548060200260200160405190810160405280929190818152602001828054801561176d57602002820191906000526020600020905b815481526020019060010190808311611759575b50505050509050919050565b60608160006002600083815260200190815260200160002060010180549050116117a257600080fd5b6002600084815260200190815260200160002060010180548060200260200160405190810160405280929190818152602001828054801561183857602002820191906000526020600020905b8160009054906101000a900473ffffffffffffffffffffffffffffffffffffffff1673ffffffffffffffffffffffffffffffffffffffff16815260200190600101908083116117ee575b5050505050915050919050565b60608082600060026000838152602001908152602001600020600101805490501161186f57600080fd5b60006002600086815260200190815260200160002090506000816001018054905067ffffffffffffffff8111156118cf577f4e487b7100000000000000000000000000000000000000000000000000000000600052604160045260246000fd5b6040519080825280602002602001820160405280156118fd5781602001602082028036833780820191505090505b50905060005b8151811015611a0f5782600201600084600101838154811061194e577f4e487b7100000000000000000000000000000000000000000000000000000000600052603260045260246000fd5b9060005260206000200160009054906101000a900473ffffffffffffffffffffffffffffffffffffffff1673ffffffffffffffffffffffffffffffffffffffff1673ffffffffffffffffffffffffffffffffffffffff168152602001908152602001600020600001548282815181106119f0577f4e487b7100000000000000000000000000000000000000000000000000000000600052603260045260246000fd5b6020026020010181815250508080611a0790613c79565b915050611903565b50816001018181805480602002602001604051908101604052809291908181526020018280548015611a9657602002820191906000526020600020905b8160009054906101000a900473ffffffffffffffffffffffffffffffffffffffff1673ffffffffffffffffffffffffffffffffffffffff1681526020019060010190808311611a4c575b5050505050915094509450505050915091565b600073ffffffffffffffffffffffffffffffffffffffff1687876000818110611afb577f4e487b7100000000000000000000000000000000000000000000000000000000600052603260045260246000fd5b9050602002016020810190611b109190612f7c565b73ffffffffffffffffffffffffffffffffffffffff161415611b67576040517f08c379a0000000000000000000000000000000000000000000000000000000008152600401611b5e90613906565b60405180910390fd5b60008989604051602001611b7c9291906135d7565b6040516020818303038152906040528051906020012090506000600260008381526020019081526020016000209050338160000160006101000a81548173ffffffffffffffffffffffffffffffffffffffff021916908373ffffffffffffffffffffffffffffffffffffffff1602179055508888826001019190611c01929190612d6e565b50868160030160006101000a81548173ffffffffffffffffffffffffffffffffffffffff021916908373ffffffffffffffffffffffffffffffffffffffff160217905550858160070181905550848160090160006101000a81548160ff02191690836002811115611c9b577f4e487b7100000000000000000000000000000000000000000000000000000000600052602160045260246000fd5b02179055508381600501819055508215611cd2576201518084611cbe9190613afd565b42611cc99190613a76565b81600401819055505b60005b89899050811015611e5057600360008b8b84818110611d1d577f4e487b7100000000000000000000000000000000000000000000000000000000600052603260045260246000fd5b9050602002016020810190611d329190612f7c565b73ffffffffffffffffffffffffffffffffffffffff1673ffffffffffffffffffffffffffffffffffffffff16815260200190815260200160002083908060018154018082558091505060019003906000526020600020016000909190919091505560018260020160008c8c85818110611dd4577f4e487b7100000000000000000000000000000000000000000000000000000000600052603260045260246000fd5b9050602002016020810190611de99190612f7c565b73ffffffffffffffffffffffffffffffffffffffff1673ffffffffffffffffffffffffffffffffffffffff16815260200190815260200160002060030160006101000a81548160ff0219169083151502179055508080611e4890613c79565b915050611cd5565b505050505050505050505050565b606080826000600260008381526020019081526020016000206001018054905011611e8857600080fd5b600060026000868152602001908152602001600020600201905060026000868152602001908152602001600020600101805480602002602001604051908101604052809291908181526020018280548015611f3857602002820191906000526020600020905b8160009054906101000a900473ffffffffffffffffffffffffffffffffffffffff1673ffffffffffffffffffffffffffffffffffffffff1681526020019060010190808311611eee575b505050505093506000845167ffffffffffffffff811115611f82577f4e487b7100000000000000000000000000000000000000000000000000000000600052604160045260246000fd5b604051908082528060200260200182016040528015611fb05781602001602082028036833780820191505090505b50905060005b855181101561209957826000878381518110611ffb577f4e487b7100000000000000000000000000000000000000000000000000000000600052603260045260246000fd5b602002602001015173ffffffffffffffffffffffffffffffffffffffff1673ffffffffffffffffffffffffffffffffffffffff1681526020019081526020016000206001015482828151811061207a577f4e487b7100000000000000000000000000000000000000000000000000000000600052603260045260246000fd5b602002602001018181525050808061209190613c79565b915050611fb6565b50809350505050915091565b6000806000808560006002600083815260200190815260200160002060010180549050116120d257600080fd5b600060026000898152602001908152602001600020600a019050600081805490509050808810612137576040517f08c379a000000000000000000000000000000000000000000000000000000000815260040161212e90613866565b60405180910390fd5b6000828281548110612172577f4e487b7100000000000000000000000000000000000000000000000000000000600052603260045260246000fd5b90600052602060002090600402016040518060800160405290816000820154815260200160018201548152602001600282015481526020016003820160009054906101000a900473ffffffffffffffffffffffffffffffffffffffff1673ffffffffffffffffffffffffffffffffffffffff1673ffffffffffffffffffffffffffffffffffffffff16815250509050806000015197508060200151965080606001519550806040015194505050505092959194509250565b82600060026000838152602001908152602001600020600101805490501161225157600080fd5b6002600085815260200190815260200160002060020160003373ffffffffffffffffffffffffffffffffffffffff1673ffffffffffffffffffffffffffffffffffffffff16815260200190815260200160002060030160009054906101000a900460ff166122f4576040517f08c379a00000000000000000000000000000000000000000000000000000000081526004016122eb906138c6565b60405180910390fd5b60006002600086815260200190815260200160002090508060030160009054906101000a900473ffffffffffffffffffffffffffffffffffffffff1673ffffffffffffffffffffffffffffffffffffffff168473ffffffffffffffffffffffffffffffffffffffff161461239d576040517f08c379a000000000000000000000000000000000000000000000000000000000815260040161239490613846565b60405180910390fd5b8373ffffffffffffffffffffffffffffffffffffffff166323b872dd3330866040518463ffffffff1660e01b81526004016123da93929190613642565b602060405180830381600087803b1580156123f457600080fd5b505af1158015612408573d6000803e3d6000fd5b505050506040513d601f19601f8201168201806040525081019061242c9190612ff7565b506000612437612be4565b90506000612443612c8a565b90508573ffffffffffffffffffffffffffffffffffffffff1663095ea7b382876040518363ffffffff1660e01b81526004016124809291906135f0565b602060405180830381600087803b15801561249a57600080fd5b505af11580156124ae573d6000803e3d6000fd5b505050506040513d601f19601f820116820180604052508101906124d29190612ff7565b612511576040517f08c379a0000000000000000000000000000000000000000000000000000000008152600401612508906138a6565b60405180910390fd5b8173ffffffffffffffffffffffffffffffffffffffff1663d2d0e066878760006040518463ffffffff1660e01b815260040161254f939291906136d9565b600060405180830381600087803b15801561256957600080fd5b505af115801561257d573d6000803e3d6000fd5b50505050848360080160008282546125959190613a76565b92505081905550848360020160003373ffffffffffffffffffffffffffffffffffffffff1673ffffffffffffffffffffffffffffffffffffffff16815260200190815260200160002060000160008282546125f09190613a76565b92505081905550848360020160003373ffffffffffffffffffffffffffffffffffffffff1673ffffffffffffffffffffffffffffffffffffffff168152602001908152602001600020600201600082825461264b9190613a76565b9250508190555084600460008873ffffffffffffffffffffffffffffffffffffffff1673ffffffffffffffffffffffffffffffffffffffff16815260200190815260200160002060008282546126a19190613a76565b9250508190555050505050505050565b600160009054906101000a900473ffffffffffffffffffffffffffffffffffffffff1673ffffffffffffffffffffffffffffffffffffffff1663db006a75826040518263ffffffff1660e01b815260040161270c9190613926565b600060405180830381600087803b15801561272657600080fd5b505af115801561273a573d6000803e3d6000fd5b5050505050565b6000600260008481526020019081526020016000209050600081600a018381548110612796577f4e487b7100000000000000000000000000000000000000000000000000000000600052603260045260246000fd5b906000526020600020906004020190506127b381600201546126b1565b8160030160009054906101000a900473ffffffffffffffffffffffffffffffffffffffff1673ffffffffffffffffffffffffffffffffffffffff1663095ea7b38260030160009054906101000a900473ffffffffffffffffffffffffffffffffffffffff1683600201546040518363ffffffff1660e01b815260040161283a9291906136b0565b602060405180830381600087803b15801561285457600080fd5b505af1158015612868573d6000803e3d6000fd5b505050506040513d601f19601f8201168201806040525081019061288c9190612ff7565b508160030160009054906101000a900473ffffffffffffffffffffffffffffffffffffffff1673ffffffffffffffffffffffffffffffffffffffff1663a9059cbb8260030160009054906101000a900473ffffffffffffffffffffffffffffffffffffffff1683600201546040518363ffffffff1660e01b81526004016129149291906136b0565b602060405180830381600087803b15801561292e57600080fd5b505af1158015612942573d6000803e3d6000fd5b505050506040513d601f19601f820116820180604052508101906129669190612ff7565b5080600201548260020160008360030160009054906101000a900473ffffffffffffffffffffffffffffffffffffffff1673ffffffffffffffffffffffffffffffffffffffff1673ffffffffffffffffffffffffffffffffffffffff16815260200190815260200160002060000160008282546129e39190613b57565b925050819055506129f484846129fa565b50505050565b600060026000848152602001908152602001600020905080600a01600182600a0180549050612a299190613b57565b81548110612a60577f4e487b7100000000000000000000000000000000000000000000000000000000600052603260045260246000fd5b906000526020600020906004020181600a018381548110612aaa577f4e487b7100000000000000000000000000000000000000000000000000000000600052603260045260246000fd5b90600052602060002090600402016000820154816000015560018201548160010155600282015481600201556003820160009054906101000a900473ffffffffffffffffffffffffffffffffffffffff168160030160006101000a81548173ffffffffffffffffffffffffffffffffffffffff021916908373ffffffffffffffffffffffffffffffffffffffff16021790555090505080600a01600182600a0180549050612b589190613b57565b81548110612b8f577f4e487b7100000000000000000000000000000000000000000000000000000000600052603260045260246000fd5b9060005260206000209060040201600080820160009055600182016000905560028201600090556003820160006101000a81549073ffffffffffffffffffffffffffffffffffffffff02191690555050505050565b60008060009054906101000a900473ffffffffffffffffffffffffffffffffffffffff1673ffffffffffffffffffffffffffffffffffffffff16630261bf8b6040518163ffffffff1660e01b815260040160206040518083038186803b158015612c4d57600080fd5b505afa158015612c61573d6000803e3d6000fd5b505050506040513d601f19601f82011682018060405250810190612c859190612fa5565b905090565b60008060009054906101000a900473ffffffffffffffffffffffffffffffffffffffff1673ffffffffffffffffffffffffffffffffffffffff1663ed6ff7606040518163ffffffff1660e01b815260040160206040518083038186803b158015612cf357600080fd5b505afa158015612d07573d6000803e3d6000fd5b505050506040513d601f19601f82011682018060405250810190612d2b9190612fce565b905090565b6040518060800160405280600081526020016000815260200160008152602001600073ffffffffffffffffffffffffffffffffffffffff1681525090565b828054828255906000526020600020908101928215612dfd579160200282015b82811115612dfc57823573ffffffffffffffffffffffffffffffffffffffff168260006101000a81548173ffffffffffffffffffffffffffffffffffffffff021916908373ffffffffffffffffffffffffffffffffffffffff16021790555091602001919060010190612d8e565b5b509050612e0a9190612e0e565b5090565b5b80821115612e27576000816000905550600101612e0f565b5090565b600081359050612e3a81613ece565b92915050565b600081519050612e4f81613ece565b92915050565b600081519050612e6481613ee5565b92915050565b60008083601f840112612e7c57600080fd5b8235905067ffffffffffffffff811115612e9557600080fd5b602083019150836020820283011115612ead57600080fd5b9250929050565b600081359050612ec381613efc565b92915050565b600081519050612ed881613efc565b92915050565b600081359050612eed81613f13565b92915050565b600081359050612f0281613f2a565b92915050565b60008083601f840112612f1a57600080fd5b8235905067ffffffffffffffff811115612f3357600080fd5b602083019150836001820283011115612f4b57600080fd5b9250929050565b600081359050612f6181613f3a565b92915050565b600081519050612f7681613f3a565b92915050565b600060208284031215612f8e57600080fd5b6000612f9c84828501612e2b565b91505092915050565b600060208284031215612fb757600080fd5b6000612fc584828501612e40565b91505092915050565b600060208284031215612fe057600080fd5b6000612fee84828501612e55565b91505092915050565b60006020828403121561300957600080fd5b600061301784828501612ec9565b91505092915050565b60006020828403121561303257600080fd5b600061304084828501612ede565b91505092915050565b60008060006060848603121561305e57600080fd5b600061306c86828701612ede565b935050602061307d86828701612e2b565b925050604061308e86828701612f52565b9150509250925092565b600080604083850312156130ab57600080fd5b60006130b985828601612ede565b92505060206130ca85828601612f52565b9150509250929050565b6000806000606084860312156130e957600080fd5b60006130f786828701612ede565b935050602061310886828701612f52565b925050604061311986828701612eb4565b9150509250925092565b600080600080600080600080600060e08a8c03121561314157600080fd5b60008a013567ffffffffffffffff81111561315b57600080fd5b6131678c828d01612f08565b995099505060208a013567ffffffffffffffff81111561318657600080fd5b6131928c828d01612e6a565b975097505060406131a58c828d01612e2b565b95505060606131b68c828d01612f52565b94505060806131c78c828d01612ef3565b93505060a06131d88c828d01612f52565b92505060c06131e98c828d01612eb4565b9150509295985092959850929598565b6000806000806000806000806000806101408b8d03121561321957600080fd5b60006132278d828e01612f67565b9a505060206132388d828e01612f67565b99505060406132498d828e01612f67565b985050606061325a8d828e01612f67565b975050608061326b8d828e01612f67565b96505060a061327c8d828e01612f67565b95505060c061328d8d828e01612f67565b94505060e061329e8d828e01612f67565b9350506101006132b08d828e01612f67565b9250506101206132c28d828e01612ec9565b9150509295989b9194979a5092959850565b60006132e0838361332b565b60208301905092915050565b60006132f88383613463565b60208301905092915050565b600061331083836135b9565b60208301905092915050565b61332581613c10565b82525050565b61333481613b8b565b82525050565b61334381613b8b565b82525050565b6000613354826139df565b61335e8185613a27565b9350613369836139af565b8060005b8381101561339a57815161338188826132d4565b975061338c83613a00565b92505060018101905061336d565b5085935050505092915050565b60006133b2826139ea565b6133bc8185613a38565b93506133c7836139bf565b8060005b838110156133f85781516133df88826132ec565b97506133ea83613a0d565b9250506001810190506133cb565b5085935050505092915050565b6000613410826139f5565b61341a8185613a49565b9350613425836139cf565b8060005b8381101561345657815161343d8882613304565b975061344883613a1a565b925050600181019050613429565b5085935050505092915050565b61346c81613bbb565b82525050565b61347b81613bbb565b82525050565b61348a81613c22565b82525050565b61349981613c34565b82525050565b60006134ab8385613a6b565b93506134b8838584613c6a565b82840190509392505050565b60006134d1601083613a5a565b91506134dc82613d4f565b602082019050919050565b60006134f4603083613a5a565b91506134ff82613d78565b604082019050919050565b6000613517602383613a5a565b915061352282613dc7565b604082019050919050565b600061353a601b83613a5a565b915061354582613e16565b602082019050919050565b600061355d600c83613a5a565b915061356882613e3f565b602082019050919050565b6000613580601983613a5a565b915061358b82613e68565b602082019050919050565b60006135a3601483613a5a565b91506135ae82613e91565b602082019050919050565b6135c281613c06565b82525050565b6135d181613c06565b82525050565b60006135e482848661349f565b91508190509392505050565b6000604082019050613605600083018561331c565b61361260208301846135c8565b9392505050565b600060408201905061362e600083018561333a565b61363b602083018461333a565b9392505050565b6000606082019050613657600083018661333a565b613664602083018561333a565b61367160408301846135c8565b949350505050565b600060608201905061368e600083018661333a565b61369b6020830185613472565b6136a860408301846135c8565b949350505050565b60006040820190506136c5600083018561333a565b6136d260208301846135c8565b9392505050565b60006060820190506136ee600083018661333a565b6136fb60208301856135c8565b6137086040830184613490565b949350505050565b6000602082019050818103600083015261372a8184613349565b905092915050565b600060a082019050818103600083015261374c8188613349565b905061375b602083018761333a565b61376860408301866135c8565b61377560608301856135c8565b6137826080830184613481565b9695505050505050565b600060408201905081810360008301526137a68185613349565b905081810360208301526137ba8184613405565b90509392505050565b600060208201905081810360008301526137dd81846133a7565b905092915050565b600060808201905081810360008301526137ff8187613405565b905081810360208301526138138186613405565b905081810360408301526138278185613349565b9050818103606083015261383b8184613405565b905095945050505050565b6000602082019050818103600083015261385f816134c4565b9050919050565b6000602082019050818103600083015261387f816134e7565b9050919050565b6000602082019050818103600083015261389f8161350a565b9050919050565b600060208201905081810360008301526138bf8161352d565b9050919050565b600060208201905081810360008301526138df81613550565b9050919050565b600060208201905081810360008301526138ff81613573565b9050919050565b6000602082019050818103600083015261391f81613596565b9050919050565b600060208201905061393b60008301846135c8565b92915050565b600060408201905061395660008301856135c8565b61396360208301846135c8565b9392505050565b600060808201905061397f60008301876135c8565b61398c60208301866135c8565b613999604083018561333a565b6139a660608301846135c8565b95945050505050565b6000819050602082019050919050565b6000819050602082019050919050565b6000819050602082019050919050565b600081519050919050565b600081519050919050565b600081519050919050565b6000602082019050919050565b6000602082019050919050565b6000602082019050919050565b600082825260208201905092915050565b600082825260208201905092915050565b600082825260208201905092915050565b600082825260208201905092915050565b600081905092915050565b6000613a8182613c06565b9150613a8c83613c06565b9250827fffffffffffffffffffffffffffffffffffffffffffffffffffffffffffffffff03821115613ac157613ac0613cc2565b5b828201905092915050565b6000613ad782613c06565b9150613ae283613c06565b925082613af257613af1613cf1565b5b828204905092915050565b6000613b0882613c06565b9150613b1383613c06565b9250817fffffffffffffffffffffffffffffffffffffffffffffffffffffffffffffffff0483118215151615613b4c57613b4b613cc2565b5b828202905092915050565b6000613b6282613c06565b9150613b6d83613c06565b925082821015613b8057613b7f613cc2565b5b828203905092915050565b6000613b9682613be6565b9050919050565b6000613ba882613be6565b9050919050565b60008115159050919050565b6000819050919050565b6000819050613bd382613eba565b919050565b600061ffff82169050919050565b600073ffffffffffffffffffffffffffffffffffffffff82169050919050565b6000819050919050565b6000613c1b82613c46565b9050919050565b6000613c2d82613bc5565b9050919050565b6000613c3f82613bd8565b9050919050565b6000613c5182613c58565b9050919050565b6000613c6382613be6565b9050919050565b82818337600083830152505050565b6000613c8482613c06565b91507fffffffffffffffffffffffffffffffffffffffffffffffffffffffffffffffff821415613cb757613cb6613cc2565b5b600182019050919050565b7f4e487b7100000000000000000000000000000000000000000000000000000000600052601160045260246000fd5b7f4e487b7100000000000000000000000000000000000000000000000000000000600052601260045260246000fd5b7f4e487b7100000000000000000000000000000000000000000000000000000000600052602160045260246000fd5b7f496e636f727265637420746f6b656e2100000000000000000000000000000000600082015250565b7f5265717565737420696e6465782065786365656473206e756d626572206f662060008201527f63757272656e7420726571756573747300000000000000000000000000000000602082015250565b7f43616e6e6f74207769746864726177206d6f7265207468616e206465706f736960008201527f7465640000000000000000000000000000000000000000000000000000000000602082015250565b7f417070726f76616c20666f72204c5020636f7265206661696c65640000000000600082015250565b7f4e6f742061206d656d6265720000000000000000000000000000000000000000600082015250565b7f5468657265206973207374696c6c2074696d65206c6566742100000000000000600082015250565b7f4d75737420636f6e7461696e206d656d62657273000000000000000000000000600082015250565b60038110613ecb57613eca613d20565b5b50565b613ed781613b8b565b8114613ee257600080fd5b50565b613eee81613b9d565b8114613ef957600080fd5b50565b613f0581613baf565b8114613f1057600080fd5b50565b613f1c81613bbb565b8114613f2757600080fd5b50565b60038110613f3757600080fd5b50565b613f4381613c06565b8114613f4e57600080fd5b5056fea26469706673582212202b5a7f3cc3c6ede5847960b097ca27e62105314cba6f13b5fd27d1c78e78f6b264736f6c63430008040033",
      "opcodes": "PUSH1 0x80 PUSH1 0x40 MSTORE PUSH20 0x7AAAD5A5FA74AEC83B74C2A098FBC86E17CE4AEA PUSH1 0x0 DUP1 PUSH2 0x100 EXP DUP2 SLOAD DUP2 PUSH20 0xFFFFFFFFFFFFFFFFFFFFFFFFFFFFFFFFFFFFFFFF MUL NOT AND SWAP1 DUP4 PUSH20 0xFFFFFFFFFFFFFFFFFFFFFFFFFFFFFFFFFFFFFFFF AND MUL OR SWAP1 SSTORE POP PUSH20 0x64DEFA3544C695DB8C535D289D843A189AA26B98 PUSH1 0x1 PUSH1 0x0 PUSH2 0x100 EXP DUP2 SLOAD DUP2 PUSH20 0xFFFFFFFFFFFFFFFFFFFFFFFFFFFFFFFFFFFFFFFF MUL NOT AND SWAP1 DUP4 PUSH20 0xFFFFFFFFFFFFFFFFFFFFFFFFFFFFFFFFFFFFFFFF AND MUL OR SWAP1 SSTORE POP CALLVALUE DUP1 ISZERO PUSH2 0xB9 JUMPI PUSH1 0x0 DUP1 REVERT JUMPDEST POP PUSH2 0x3F87 DUP1 PUSH2 0xC9 PUSH1 0x0 CODECOPY PUSH1 0x0 RETURN INVALID PUSH1 0x80 PUSH1 0x40 MSTORE PUSH1 0x4 CALLDATASIZE LT PUSH2 0xE0 JUMPI PUSH1 0x0 CALLDATALOAD PUSH1 0xE0 SHR DUP1 PUSH4 0x79BBBDBA GT PUSH2 0x7F JUMPI DUP1 PUSH4 0x87CF2AC9 GT PUSH2 0x59 JUMPI DUP1 PUSH4 0x87CF2AC9 EQ PUSH2 0x307 JUMPI DUP1 PUSH4 0x968A5020 EQ PUSH2 0x330 JUMPI DUP1 PUSH4 0xCDEA9A8F EQ PUSH2 0x36E JUMPI DUP1 PUSH4 0xD954863C EQ PUSH2 0x3AE JUMPI PUSH2 0xE7 JUMP JUMPDEST DUP1 PUSH4 0x79BBBDBA EQ PUSH2 0x24F JUMPI DUP1 PUSH4 0x7B641FBC EQ PUSH2 0x28C JUMPI DUP1 PUSH4 0x8743DE81 EQ PUSH2 0x2C9 JUMPI PUSH2 0xE7 JUMP JUMPDEST DUP1 PUSH4 0x32E7A848 GT PUSH2 0xBB JUMPI DUP1 PUSH4 0x32E7A848 EQ PUSH2 0x167 JUMPI DUP1 PUSH4 0x64C50007 EQ PUSH2 0x1A7 JUMPI DUP1 PUSH4 0x69D5DD67 EQ PUSH2 0x1E8 JUMPI DUP1 PUSH4 0x775146C3 EQ PUSH2 0x226 JUMPI PUSH2 0xE7 JUMP JUMPDEST DUP1 PUSH3 0x671B97 EQ PUSH2 0xEC JUMPI DUP1 PUSH4 0x40CF020 EQ PUSH2 0x115 JUMPI DUP1 PUSH4 0x2C729FD1 EQ PUSH2 0x13E JUMPI PUSH2 0xE7 JUMP JUMPDEST CALLDATASIZE PUSH2 0xE7 JUMPI STOP JUMPDEST PUSH1 0x0 DUP1 REVERT JUMPDEST CALLVALUE DUP1 ISZERO PUSH2 0xF8 JUMPI PUSH1 0x0 DUP1 REVERT JUMPDEST POP PUSH2 0x113 PUSH1 0x4 DUP1 CALLDATASIZE SUB DUP2 ADD SWAP1 PUSH2 0x10E SWAP2 SWAP1 PUSH2 0x3020 JUMP JUMPDEST PUSH2 0x3CA JUMP JUMPDEST STOP JUMPDEST CALLVALUE DUP1 ISZERO PUSH2 0x121 JUMPI PUSH1 0x0 DUP1 REVERT JUMPDEST POP PUSH2 0x13C PUSH1 0x4 DUP1 CALLDATASIZE SUB DUP2 ADD SWAP1 PUSH2 0x137 SWAP2 SWAP1 PUSH2 0x3098 JUMP JUMPDEST PUSH2 0x7CD JUMP JUMPDEST STOP JUMPDEST CALLVALUE DUP1 ISZERO PUSH2 0x14A JUMPI PUSH1 0x0 DUP1 REVERT JUMPDEST POP PUSH2 0x165 PUSH1 0x4 DUP1 CALLDATASIZE SUB DUP2 ADD SWAP1 PUSH2 0x160 SWAP2 SWAP1 PUSH2 0x30D4 JUMP JUMPDEST PUSH2 0xADD JUMP JUMPDEST STOP JUMPDEST CALLVALUE DUP1 ISZERO PUSH2 0x173 JUMPI PUSH1 0x0 DUP1 REVERT JUMPDEST POP PUSH2 0x18E PUSH1 0x4 DUP1 CALLDATASIZE SUB DUP2 ADD SWAP1 PUSH2 0x189 SWAP2 SWAP1 PUSH2 0x3020 JUMP JUMPDEST PUSH2 0xDE3 JUMP JUMPDEST PUSH1 0x40 MLOAD PUSH2 0x19E SWAP5 SWAP4 SWAP3 SWAP2 SWAP1 PUSH2 0x37E5 JUMP JUMPDEST PUSH1 0x40 MLOAD DUP1 SWAP2 SUB SWAP1 RETURN JUMPDEST CALLVALUE DUP1 ISZERO PUSH2 0x1B3 JUMPI PUSH1 0x0 DUP1 REVERT JUMPDEST POP PUSH2 0x1CE PUSH1 0x4 DUP1 CALLDATASIZE SUB DUP2 ADD SWAP1 PUSH2 0x1C9 SWAP2 SWAP1 PUSH2 0x3020 JUMP JUMPDEST PUSH2 0x1241 JUMP JUMPDEST PUSH1 0x40 MLOAD PUSH2 0x1DF SWAP6 SWAP5 SWAP4 SWAP3 SWAP2 SWAP1 PUSH2 0x3732 JUMP JUMPDEST PUSH1 0x40 MLOAD DUP1 SWAP2 SUB SWAP1 RETURN JUMPDEST CALLVALUE DUP1 ISZERO PUSH2 0x1F4 JUMPI PUSH1 0x0 DUP1 REVERT JUMPDEST POP PUSH2 0x20F PUSH1 0x4 DUP1 CALLDATASIZE SUB DUP2 ADD SWAP1 PUSH2 0x20A SWAP2 SWAP1 PUSH2 0x3020 JUMP JUMPDEST PUSH2 0x1341 JUMP JUMPDEST PUSH1 0x40 MLOAD PUSH2 0x21D SWAP3 SWAP2 SWAP1 PUSH2 0x3941 JUMP JUMPDEST PUSH1 0x40 MLOAD DUP1 SWAP2 SUB SWAP1 RETURN JUMPDEST CALLVALUE DUP1 ISZERO PUSH2 0x232 JUMPI PUSH1 0x0 DUP1 REVERT JUMPDEST POP PUSH2 0x24D PUSH1 0x4 DUP1 CALLDATASIZE SUB DUP2 ADD SWAP1 PUSH2 0x248 SWAP2 SWAP1 PUSH2 0x3098 JUMP JUMPDEST PUSH2 0x14DE JUMP JUMPDEST STOP JUMPDEST CALLVALUE DUP1 ISZERO PUSH2 0x25B JUMPI PUSH1 0x0 DUP1 REVERT JUMPDEST POP PUSH2 0x276 PUSH1 0x4 DUP1 CALLDATASIZE SUB DUP2 ADD SWAP1 PUSH2 0x271 SWAP2 SWAP1 PUSH2 0x2F7C JUMP JUMPDEST PUSH2 0x16E2 JUMP JUMPDEST PUSH1 0x40 MLOAD PUSH2 0x283 SWAP2 SWAP1 PUSH2 0x37C3 JUMP JUMPDEST PUSH1 0x40 MLOAD DUP1 SWAP2 SUB SWAP1 RETURN JUMPDEST CALLVALUE DUP1 ISZERO PUSH2 0x298 JUMPI PUSH1 0x0 DUP1 REVERT JUMPDEST POP PUSH2 0x2B3 PUSH1 0x4 DUP1 CALLDATASIZE SUB DUP2 ADD SWAP1 PUSH2 0x2AE SWAP2 SWAP1 PUSH2 0x3020 JUMP JUMPDEST PUSH2 0x1779 JUMP JUMPDEST PUSH1 0x40 MLOAD PUSH2 0x2C0 SWAP2 SWAP1 PUSH2 0x3710 JUMP JUMPDEST PUSH1 0x40 MLOAD DUP1 SWAP2 SUB SWAP1 RETURN JUMPDEST CALLVALUE DUP1 ISZERO PUSH2 0x2D5 JUMPI PUSH1 0x0 DUP1 REVERT JUMPDEST POP PUSH2 0x2F0 PUSH1 0x4 DUP1 CALLDATASIZE SUB DUP2 ADD SWAP1 PUSH2 0x2EB SWAP2 SWAP1 PUSH2 0x3020 JUMP JUMPDEST PUSH2 0x1845 JUMP JUMPDEST PUSH1 0x40 MLOAD PUSH2 0x2FE SWAP3 SWAP2 SWAP1 PUSH2 0x378C JUMP JUMPDEST PUSH1 0x40 MLOAD DUP1 SWAP2 SUB SWAP1 RETURN JUMPDEST CALLVALUE DUP1 ISZERO PUSH2 0x313 JUMPI PUSH1 0x0 DUP1 REVERT JUMPDEST POP PUSH2 0x32E PUSH1 0x4 DUP1 CALLDATASIZE SUB DUP2 ADD SWAP1 PUSH2 0x329 SWAP2 SWAP1 PUSH2 0x3123 JUMP JUMPDEST PUSH2 0x1AA9 JUMP JUMPDEST STOP JUMPDEST CALLVALUE DUP1 ISZERO PUSH2 0x33C JUMPI PUSH1 0x0 DUP1 REVERT JUMPDEST POP PUSH2 0x357 PUSH1 0x4 DUP1 CALLDATASIZE SUB DUP2 ADD SWAP1 PUSH2 0x352 SWAP2 SWAP1 PUSH2 0x3020 JUMP JUMPDEST PUSH2 0x1E5E JUMP JUMPDEST PUSH1 0x40 MLOAD PUSH2 0x365 SWAP3 SWAP2 SWAP1 PUSH2 0x378C JUMP JUMPDEST PUSH1 0x40 MLOAD DUP1 SWAP2 SUB SWAP1 RETURN JUMPDEST CALLVALUE DUP1 ISZERO PUSH2 0x37A JUMPI PUSH1 0x0 DUP1 REVERT JUMPDEST POP PUSH2 0x395 PUSH1 0x4 DUP1 CALLDATASIZE SUB DUP2 ADD SWAP1 PUSH2 0x390 SWAP2 SWAP1 PUSH2 0x3098 JUMP JUMPDEST PUSH2 0x20A5 JUMP JUMPDEST PUSH1 0x40 MLOAD PUSH2 0x3A5 SWAP5 SWAP4 SWAP3 SWAP2 SWAP1 PUSH2 0x396A JUMP JUMPDEST PUSH1 0x40 MLOAD DUP1 SWAP2 SUB SWAP1 RETURN JUMPDEST PUSH2 0x3C8 PUSH1 0x4 DUP1 CALLDATASIZE SUB DUP2 ADD SWAP1 PUSH2 0x3C3 SWAP2 SWAP1 PUSH2 0x3049 JUMP JUMPDEST PUSH2 0x222A JUMP JUMPDEST STOP JUMPDEST DUP1 PUSH1 0x0 PUSH1 0x2 PUSH1 0x0 DUP4 DUP2 MSTORE PUSH1 0x20 ADD SWAP1 DUP2 MSTORE PUSH1 0x20 ADD PUSH1 0x0 KECCAK256 PUSH1 0x1 ADD DUP1 SLOAD SWAP1 POP GT PUSH2 0x3F1 JUMPI PUSH1 0x0 DUP1 REVERT JUMPDEST DUP2 TIMESTAMP PUSH1 0x2 PUSH1 0x0 DUP4 DUP2 MSTORE PUSH1 0x20 ADD SWAP1 DUP2 MSTORE PUSH1 0x20 ADD PUSH1 0x0 KECCAK256 PUSH1 0x4 ADD SLOAD LT PUSH2 0x44A JUMPI PUSH1 0x40 MLOAD PUSH32 0x8C379A000000000000000000000000000000000000000000000000000000000 DUP2 MSTORE PUSH1 0x4 ADD PUSH2 0x441 SWAP1 PUSH2 0x38E6 JUMP JUMPDEST PUSH1 0x40 MLOAD DUP1 SWAP2 SUB SWAP1 REVERT JUMPDEST PUSH1 0x0 PUSH1 0x2 PUSH1 0x0 DUP6 DUP2 MSTORE PUSH1 0x20 ADD SWAP1 DUP2 MSTORE PUSH1 0x20 ADD PUSH1 0x0 KECCAK256 SWAP1 POP DUP1 PUSH1 0x6 ADD PUSH1 0x0 DUP2 SLOAD DUP1 SWAP3 SWAP2 SWAP1 PUSH2 0x476 SWAP1 PUSH2 0x3C79 JUMP JUMPDEST SWAP2 SWAP1 POP SSTORE POP PUSH3 0x15180 DUP2 PUSH1 0x5 ADD SLOAD PUSH2 0x48E SWAP2 SWAP1 PUSH2 0x3AFD JUMP JUMPDEST TIMESTAMP PUSH2 0x499 SWAP2 SWAP1 PUSH2 0x3A76 JUMP JUMPDEST DUP2 PUSH1 0x4 ADD DUP2 SWAP1 SSTORE POP PUSH1 0x0 JUMPDEST DUP2 PUSH1 0x1 ADD DUP1 SLOAD SWAP1 POP DUP2 LT ISZERO PUSH2 0x7C6 JUMPI PUSH1 0x0 DUP3 PUSH1 0x2 ADD PUSH1 0x0 DUP5 PUSH1 0x1 ADD DUP5 DUP2 SLOAD DUP2 LT PUSH2 0x4F7 JUMPI PUSH32 0x4E487B7100000000000000000000000000000000000000000000000000000000 PUSH1 0x0 MSTORE PUSH1 0x32 PUSH1 0x4 MSTORE PUSH1 0x24 PUSH1 0x0 REVERT JUMPDEST SWAP1 PUSH1 0x0 MSTORE PUSH1 0x20 PUSH1 0x0 KECCAK256 ADD PUSH1 0x0 SWAP1 SLOAD SWAP1 PUSH2 0x100 EXP SWAP1 DIV PUSH20 0xFFFFFFFFFFFFFFFFFFFFFFFFFFFFFFFFFFFFFFFF AND PUSH20 0xFFFFFFFFFFFFFFFFFFFFFFFFFFFFFFFFFFFFFFFF AND PUSH20 0xFFFFFFFFFFFFFFFFFFFFFFFFFFFFFFFFFFFFFFFF AND DUP2 MSTORE PUSH1 0x20 ADD SWAP1 DUP2 MSTORE PUSH1 0x20 ADD PUSH1 0x0 KECCAK256 PUSH1 0x2 ADD SLOAD SWAP1 POP DUP3 PUSH1 0x7 ADD SLOAD DUP2 LT ISZERO PUSH2 0x6F3 JUMPI DUP1 DUP4 PUSH1 0x7 ADD SLOAD PUSH2 0x57E SWAP2 SWAP1 PUSH2 0x3B57 JUMP JUMPDEST DUP4 PUSH1 0x2 ADD PUSH1 0x0 DUP6 PUSH1 0x1 ADD DUP6 DUP2 SLOAD DUP2 LT PUSH2 0x5C0 JUMPI PUSH32 0x4E487B7100000000000000000000000000000000000000000000000000000000 PUSH1 0x0 MSTORE PUSH1 0x32 PUSH1 0x4 MSTORE PUSH1 0x24 PUSH1 0x0 REVERT JUMPDEST SWAP1 PUSH1 0x0 MSTORE PUSH1 0x20 PUSH1 0x0 KECCAK256 ADD PUSH1 0x0 SWAP1 SLOAD SWAP1 PUSH2 0x100 EXP SWAP1 DIV PUSH20 0xFFFFFFFFFFFFFFFFFFFFFFFFFFFFFFFFFFFFFFFF AND PUSH20 0xFFFFFFFFFFFFFFFFFFFFFFFFFFFFFFFFFFFFFFFF AND PUSH20 0xFFFFFFFFFFFFFFFFFFFFFFFFFFFFFFFFFFFFFFFF AND DUP2 MSTORE PUSH1 0x20 ADD SWAP1 DUP2 MSTORE PUSH1 0x20 ADD PUSH1 0x0 KECCAK256 PUSH1 0x1 ADD PUSH1 0x0 DUP3 DUP3 SLOAD PUSH2 0x637 SWAP2 SWAP1 PUSH2 0x3A76 JUMP JUMPDEST SWAP3 POP POP DUP2 SWAP1 SSTORE POP PUSH1 0x0 DUP4 PUSH1 0x2 ADD PUSH1 0x0 DUP6 PUSH1 0x1 ADD DUP6 DUP2 SLOAD DUP2 LT PUSH2 0x682 JUMPI PUSH32 0x4E487B7100000000000000000000000000000000000000000000000000000000 PUSH1 0x0 MSTORE PUSH1 0x32 PUSH1 0x4 MSTORE PUSH1 0x24 PUSH1 0x0 REVERT JUMPDEST SWAP1 PUSH1 0x0 MSTORE PUSH1 0x20 PUSH1 0x0 KECCAK256 ADD PUSH1 0x0 SWAP1 SLOAD SWAP1 PUSH2 0x100 EXP SWAP1 DIV PUSH20 0xFFFFFFFFFFFFFFFFFFFFFFFFFFFFFFFFFFFFFFFF AND PUSH20 0xFFFFFFFFFFFFFFFFFFFFFFFFFFFFFFFFFFFFFFFF AND PUSH20 0xFFFFFFFFFFFFFFFFFFFFFFFFFFFFFFFFFFFFFFFF AND DUP2 MSTORE PUSH1 0x20 ADD SWAP1 DUP2 MSTORE PUSH1 0x20 ADD PUSH1 0x0 KECCAK256 PUSH1 0x2 ADD DUP2 SWAP1 SSTORE POP PUSH2 0x7B2 JUMP JUMPDEST DUP3 PUSH1 0x7 ADD SLOAD DUP2 PUSH2 0x703 SWAP2 SWAP1 PUSH2 0x3B57 JUMP JUMPDEST DUP4 PUSH1 0x2 ADD PUSH1 0x0 DUP6 PUSH1 0x1 ADD DUP6 DUP2 SLOAD DUP2 LT PUSH2 0x745 JUMPI PUSH32 0x4E487B7100000000000000000000000000000000000000000000000000000000 PUSH1 0x0 MSTORE PUSH1 0x32 PUSH1 0x4 MSTORE PUSH1 0x24 PUSH1 0x0 REVERT JUMPDEST SWAP1 PUSH1 0x0 MSTORE PUSH1 0x20 PUSH1 0x0 KECCAK256 ADD PUSH1 0x0 SWAP1 SLOAD SWAP1 PUSH2 0x100 EXP SWAP1 DIV PUSH20 0xFFFFFFFFFFFFFFFFFFFFFFFFFFFFFFFFFFFFFFFF AND PUSH20 0xFFFFFFFFFFFFFFFFFFFFFFFFFFFFFFFFFFFFFFFF AND PUSH20 0xFFFFFFFFFFFFFFFFFFFFFFFFFFFFFFFFFFFFFFFF AND DUP2 MSTORE PUSH1 0x20 ADD SWAP1 DUP2 MSTORE PUSH1 0x20 ADD PUSH1 0x0 KECCAK256 PUSH1 0x2 ADD DUP2 SWAP1 SSTORE POP JUMPDEST POP DUP1 DUP1 PUSH2 0x7BE SWAP1 PUSH2 0x3C79 JUMP JUMPDEST SWAP2 POP POP PUSH2 0x4A4 JUMP JUMPDEST POP POP POP POP POP JUMP JUMPDEST DUP2 PUSH1 0x2 PUSH1 0x0 DUP3 DUP2 MSTORE PUSH1 0x20 ADD SWAP1 DUP2 MSTORE PUSH1 0x20 ADD PUSH1 0x0 KECCAK256 PUSH1 0x2 ADD PUSH1 0x0 CALLER PUSH20 0xFFFFFFFFFFFFFFFFFFFFFFFFFFFFFFFFFFFFFFFF AND PUSH20 0xFFFFFFFFFFFFFFFFFFFFFFFFFFFFFFFFFFFFFFFF AND DUP2 MSTORE PUSH1 0x20 ADD SWAP1 DUP2 MSTORE PUSH1 0x20 ADD PUSH1 0x0 KECCAK256 PUSH1 0x3 ADD PUSH1 0x0 SWAP1 SLOAD SWAP1 PUSH2 0x100 EXP SWAP1 DIV PUSH1 0xFF AND PUSH2 0x871 JUMPI PUSH1 0x40 MLOAD PUSH32 0x8C379A000000000000000000000000000000000000000000000000000000000 DUP2 MSTORE PUSH1 0x4 ADD PUSH2 0x868 SWAP1 PUSH2 0x38C6 JUMP JUMPDEST PUSH1 0x40 MLOAD DUP1 SWAP2 SUB SWAP1 REVERT JUMPDEST PUSH1 0x0 PUSH1 0x2 PUSH1 0x0 DUP6 DUP2 MSTORE PUSH1 0x20 ADD SWAP1 DUP2 MSTORE PUSH1 0x20 ADD PUSH1 0x0 KECCAK256 SWAP1 POP DUP3 DUP2 PUSH1 0x2 ADD PUSH1 0x0 CALLER PUSH20 0xFFFFFFFFFFFFFFFFFFFFFFFFFFFFFFFFFFFFFFFF AND PUSH20 0xFFFFFFFFFFFFFFFFFFFFFFFFFFFFFFFFFFFFFFFF AND DUP2 MSTORE PUSH1 0x20 ADD SWAP1 DUP2 MSTORE PUSH1 0x20 ADD PUSH1 0x0 KECCAK256 PUSH1 0x0 ADD SLOAD LT ISZERO PUSH2 0x90F JUMPI PUSH1 0x40 MLOAD PUSH32 0x8C379A000000000000000000000000000000000000000000000000000000000 DUP2 MSTORE PUSH1 0x4 ADD PUSH2 0x906 SWAP1 PUSH2 0x3886 JUMP JUMPDEST PUSH1 0x40 MLOAD DUP1 SWAP2 SUB SWAP1 REVERT JUMPDEST PUSH2 0x918 DUP4 PUSH2 0x26B1 JUMP JUMPDEST DUP1 PUSH1 0x3 ADD PUSH1 0x0 SWAP1 SLOAD SWAP1 PUSH2 0x100 EXP SWAP1 DIV PUSH20 0xFFFFFFFFFFFFFFFFFFFFFFFFFFFFFFFFFFFFFFFF AND PUSH20 0xFFFFFFFFFFFFFFFFFFFFFFFFFFFFFFFFFFFFFFFF AND PUSH4 0x95EA7B3 CALLER DUP6 PUSH1 0x40 MLOAD DUP4 PUSH4 0xFFFFFFFF AND PUSH1 0xE0 SHL DUP2 MSTORE PUSH1 0x4 ADD PUSH2 0x977 SWAP3 SWAP2 SWAP1 PUSH2 0x36B0 JUMP JUMPDEST PUSH1 0x20 PUSH1 0x40 MLOAD DUP1 DUP4 SUB DUP2 PUSH1 0x0 DUP8 DUP1 EXTCODESIZE ISZERO DUP1 ISZERO PUSH2 0x991 JUMPI PUSH1 0x0 DUP1 REVERT JUMPDEST POP GAS CALL ISZERO DUP1 ISZERO PUSH2 0x9A5 JUMPI RETURNDATASIZE PUSH1 0x0 DUP1 RETURNDATACOPY RETURNDATASIZE PUSH1 0x0 REVERT JUMPDEST POP POP POP POP PUSH1 0x40 MLOAD RETURNDATASIZE PUSH1 0x1F NOT PUSH1 0x1F DUP3 ADD AND DUP3 ADD DUP1 PUSH1 0x40 MSTORE POP DUP2 ADD SWAP1 PUSH2 0x9C9 SWAP2 SWAP1 PUSH2 0x2FF7 JUMP JUMPDEST POP DUP1 PUSH1 0x3 ADD PUSH1 0x0 SWAP1 SLOAD SWAP1 PUSH2 0x100 EXP SWAP1 DIV PUSH20 0xFFFFFFFFFFFFFFFFFFFFFFFFFFFFFFFFFFFFFFFF AND PUSH20 0xFFFFFFFFFFFFFFFFFFFFFFFFFFFFFFFFFFFFFFFF AND PUSH4 0xA9059CBB CALLER DUP6 PUSH1 0x40 MLOAD DUP4 PUSH4 0xFFFFFFFF AND PUSH1 0xE0 SHL DUP2 MSTORE PUSH1 0x4 ADD PUSH2 0xA29 SWAP3 SWAP2 SWAP1 PUSH2 0x36B0 JUMP JUMPDEST PUSH1 0x20 PUSH1 0x40 MLOAD DUP1 DUP4 SUB DUP2 PUSH1 0x0 DUP8 DUP1 EXTCODESIZE ISZERO DUP1 ISZERO PUSH2 0xA43 JUMPI PUSH1 0x0 DUP1 REVERT JUMPDEST POP GAS CALL ISZERO DUP1 ISZERO PUSH2 0xA57 JUMPI RETURNDATASIZE PUSH1 0x0 DUP1 RETURNDATACOPY RETURNDATASIZE PUSH1 0x0 REVERT JUMPDEST POP POP POP POP PUSH1 0x40 MLOAD RETURNDATASIZE PUSH1 0x1F NOT PUSH1 0x1F DUP3 ADD AND DUP3 ADD DUP1 PUSH1 0x40 MSTORE POP DUP2 ADD SWAP1 PUSH2 0xA7B SWAP2 SWAP1 PUSH2 0x2FF7 JUMP JUMPDEST POP DUP3 DUP2 PUSH1 0x2 ADD PUSH1 0x0 CALLER PUSH20 0xFFFFFFFFFFFFFFFFFFFFFFFFFFFFFFFFFFFFFFFF AND PUSH20 0xFFFFFFFFFFFFFFFFFFFFFFFFFFFFFFFFFFFFFFFF AND DUP2 MSTORE PUSH1 0x20 ADD SWAP1 DUP2 MSTORE PUSH1 0x20 ADD PUSH1 0x0 KECCAK256 PUSH1 0x0 ADD PUSH1 0x0 DUP3 DUP3 SLOAD PUSH2 0xAD0 SWAP2 SWAP1 PUSH2 0x3B57 JUMP JUMPDEST SWAP3 POP POP DUP2 SWAP1 SSTORE POP POP POP POP POP JUMP JUMPDEST DUP3 PUSH1 0x0 PUSH1 0x2 PUSH1 0x0 DUP4 DUP2 MSTORE PUSH1 0x20 ADD SWAP1 DUP2 MSTORE PUSH1 0x20 ADD PUSH1 0x0 KECCAK256 PUSH1 0x1 ADD DUP1 SLOAD SWAP1 POP GT PUSH2 0xB04 JUMPI PUSH1 0x0 DUP1 REVERT JUMPDEST DUP4 PUSH1 0x2 PUSH1 0x0 DUP3 DUP2 MSTORE PUSH1 0x20 ADD SWAP1 DUP2 MSTORE PUSH1 0x20 ADD PUSH1 0x0 KECCAK256 PUSH1 0x2 ADD PUSH1 0x0 CALLER PUSH20 0xFFFFFFFFFFFFFFFFFFFFFFFFFFFFFFFFFFFFFFFF AND PUSH20 0xFFFFFFFFFFFFFFFFFFFFFFFFFFFFFFFFFFFFFFFF AND DUP2 MSTORE PUSH1 0x20 ADD SWAP1 DUP2 MSTORE PUSH1 0x20 ADD PUSH1 0x0 KECCAK256 PUSH1 0x3 ADD PUSH1 0x0 SWAP1 SLOAD SWAP1 PUSH2 0x100 EXP SWAP1 DIV PUSH1 0xFF AND PUSH2 0xBA8 JUMPI PUSH1 0x40 MLOAD PUSH32 0x8C379A000000000000000000000000000000000000000000000000000000000 DUP2 MSTORE PUSH1 0x4 ADD PUSH2 0xB9F SWAP1 PUSH2 0x38C6 JUMP JUMPDEST PUSH1 0x40 MLOAD DUP1 SWAP2 SUB SWAP1 REVERT JUMPDEST PUSH1 0x0 PUSH1 0x2 PUSH1 0x0 DUP8 DUP2 MSTORE PUSH1 0x20 ADD SWAP1 DUP2 MSTORE PUSH1 0x20 ADD PUSH1 0x0 KECCAK256 SWAP1 POP PUSH1 0x0 DUP2 PUSH1 0xA ADD DUP7 DUP2 SLOAD DUP2 LT PUSH2 0xBFD JUMPI PUSH32 0x4E487B7100000000000000000000000000000000000000000000000000000000 PUSH1 0x0 MSTORE PUSH1 0x32 PUSH1 0x4 MSTORE PUSH1 0x24 PUSH1 0x0 REVERT JUMPDEST SWAP1 PUSH1 0x0 MSTORE PUSH1 0x20 PUSH1 0x0 KECCAK256 SWAP1 PUSH1 0x4 MUL ADD SWAP1 POP PUSH1 0x0 PUSH1 0x2 DUP4 PUSH1 0x1 ADD DUP1 SLOAD SWAP1 POP PUSH2 0xC23 SWAP2 SWAP1 PUSH2 0x3ACC JUMP JUMPDEST SWAP1 POP PUSH1 0x2 DUP1 DUP2 GT ISZERO PUSH2 0xC5E JUMPI PUSH32 0x4E487B7100000000000000000000000000000000000000000000000000000000 PUSH1 0x0 MSTORE PUSH1 0x21 PUSH1 0x4 MSTORE PUSH1 0x24 PUSH1 0x0 REVERT JUMPDEST DUP4 PUSH1 0x9 ADD PUSH1 0x0 SWAP1 SLOAD SWAP1 PUSH2 0x100 EXP SWAP1 DIV PUSH1 0xFF AND PUSH1 0x2 DUP2 GT ISZERO PUSH2 0xCA8 JUMPI PUSH32 0x4E487B7100000000000000000000000000000000000000000000000000000000 PUSH1 0x0 MSTORE PUSH1 0x21 PUSH1 0x4 MSTORE PUSH1 0x24 PUSH1 0x0 REVERT JUMPDEST EQ DUP1 ISZERO PUSH2 0xD04 JUMPI POP CALLER PUSH20 0xFFFFFFFFFFFFFFFFFFFFFFFFFFFFFFFFFFFFFFFF AND DUP4 PUSH1 0x0 ADD PUSH1 0x0 SWAP1 SLOAD SWAP1 PUSH2 0x100 EXP SWAP1 DIV PUSH20 0xFFFFFFFFFFFFFFFFFFFFFFFFFFFFFFFFFFFFFFFF AND PUSH20 0xFFFFFFFFFFFFFFFFFFFFFFFFFFFFFFFFFFFFFFFF AND EQ JUMPDEST ISZERO PUSH2 0xD2E JUMPI DUP6 ISZERO PUSH2 0xD1E JUMPI PUSH2 0xD19 DUP9 DUP9 PUSH2 0x2741 JUMP JUMPDEST PUSH2 0xD29 JUMP JUMPDEST PUSH2 0xD28 DUP9 DUP9 PUSH2 0x29FA JUMP JUMPDEST JUMPDEST PUSH2 0xDD9 JUMP JUMPDEST DUP6 ISZERO PUSH2 0xD53 JUMPI DUP2 PUSH1 0x0 ADD PUSH1 0x0 DUP2 SLOAD DUP1 SWAP3 SWAP2 SWAP1 PUSH2 0xD49 SWAP1 PUSH2 0x3C79 JUMP JUMPDEST SWAP2 SWAP1 POP SSTORE POP PUSH2 0xD6E JUMP JUMPDEST DUP2 PUSH1 0x1 ADD PUSH1 0x0 DUP2 SLOAD DUP1 SWAP3 SWAP2 SWAP1 PUSH2 0xD68 SWAP1 PUSH2 0x3C79 JUMP JUMPDEST SWAP2 SWAP1 POP SSTORE POP JUMPDEST DUP1 DUP4 PUSH1 0x1 ADD DUP1 SLOAD SWAP1 POP PUSH1 0x64 DUP5 PUSH1 0x0 ADD SLOAD PUSH2 0xD88 SWAP2 SWAP1 PUSH2 0x3AFD JUMP JUMPDEST PUSH2 0xD92 SWAP2 SWAP1 PUSH2 0x3ACC JUMP JUMPDEST GT ISZERO PUSH2 0xDA3 JUMPI PUSH2 0xDA2 DUP9 DUP9 PUSH2 0x2741 JUMP JUMPDEST JUMPDEST DUP1 DUP4 PUSH1 0x1 ADD DUP1 SLOAD SWAP1 POP PUSH1 0x64 DUP5 PUSH1 0x1 ADD SLOAD PUSH2 0xDBD SWAP2 SWAP1 PUSH2 0x3AFD JUMP JUMPDEST PUSH2 0xDC7 SWAP2 SWAP1 PUSH2 0x3ACC JUMP JUMPDEST GT ISZERO PUSH2 0xDD8 JUMPI PUSH2 0xDD7 DUP9 DUP9 PUSH2 0x29FA JUMP JUMPDEST JUMPDEST JUMPDEST POP POP POP POP POP POP POP POP JUMP JUMPDEST PUSH1 0x60 DUP1 PUSH1 0x60 DUP1 DUP5 PUSH1 0x0 PUSH1 0x2 PUSH1 0x0 DUP4 DUP2 MSTORE PUSH1 0x20 ADD SWAP1 DUP2 MSTORE PUSH1 0x20 ADD PUSH1 0x0 KECCAK256 PUSH1 0x1 ADD DUP1 SLOAD SWAP1 POP GT PUSH2 0xE10 JUMPI PUSH1 0x0 DUP1 REVERT JUMPDEST PUSH1 0x0 PUSH1 0x2 PUSH1 0x0 DUP9 DUP2 MSTORE PUSH1 0x20 ADD SWAP1 DUP2 MSTORE PUSH1 0x20 ADD PUSH1 0x0 KECCAK256 PUSH1 0xA ADD SWAP1 POP PUSH1 0x0 DUP2 DUP1 SLOAD SWAP1 POP SWAP1 POP DUP1 PUSH8 0xFFFFFFFFFFFFFFFF DUP2 GT ISZERO PUSH2 0xE73 JUMPI PUSH32 0x4E487B7100000000000000000000000000000000000000000000000000000000 PUSH1 0x0 MSTORE PUSH1 0x41 PUSH1 0x4 MSTORE PUSH1 0x24 PUSH1 0x0 REVERT JUMPDEST PUSH1 0x40 MLOAD SWAP1 DUP1 DUP3 MSTORE DUP1 PUSH1 0x20 MUL PUSH1 0x20 ADD DUP3 ADD PUSH1 0x40 MSTORE DUP1 ISZERO PUSH2 0xEA1 JUMPI DUP2 PUSH1 0x20 ADD PUSH1 0x20 DUP3 MUL DUP1 CALLDATASIZE DUP4 CALLDATACOPY DUP1 DUP3 ADD SWAP2 POP POP SWAP1 POP JUMPDEST POP SWAP7 POP DUP1 PUSH8 0xFFFFFFFFFFFFFFFF DUP2 GT ISZERO PUSH2 0xEE4 JUMPI PUSH32 0x4E487B7100000000000000000000000000000000000000000000000000000000 PUSH1 0x0 MSTORE PUSH1 0x41 PUSH1 0x4 MSTORE PUSH1 0x24 PUSH1 0x0 REVERT JUMPDEST PUSH1 0x40 MLOAD SWAP1 DUP1 DUP3 MSTORE DUP1 PUSH1 0x20 MUL PUSH1 0x20 ADD DUP3 ADD PUSH1 0x40 MSTORE DUP1 ISZERO PUSH2 0xF12 JUMPI DUP2 PUSH1 0x20 ADD PUSH1 0x20 DUP3 MUL DUP1 CALLDATASIZE DUP4 CALLDATACOPY DUP1 DUP3 ADD SWAP2 POP POP SWAP1 POP JUMPDEST POP SWAP6 POP DUP1 PUSH8 0xFFFFFFFFFFFFFFFF DUP2 GT ISZERO PUSH2 0xF55 JUMPI PUSH32 0x4E487B7100000000000000000000000000000000000000000000000000000000 PUSH1 0x0 MSTORE PUSH1 0x41 PUSH1 0x4 MSTORE PUSH1 0x24 PUSH1 0x0 REVERT JUMPDEST PUSH1 0x40 MLOAD SWAP1 DUP1 DUP3 MSTORE DUP1 PUSH1 0x20 MUL PUSH1 0x20 ADD DUP3 ADD PUSH1 0x40 MSTORE DUP1 ISZERO PUSH2 0xF83 JUMPI DUP2 PUSH1 0x20 ADD PUSH1 0x20 DUP3 MUL DUP1 CALLDATASIZE DUP4 CALLDATACOPY DUP1 DUP3 ADD SWAP2 POP POP SWAP1 POP JUMPDEST POP SWAP5 POP DUP1 PUSH8 0xFFFFFFFFFFFFFFFF DUP2 GT ISZERO PUSH2 0xFC6 JUMPI PUSH32 0x4E487B7100000000000000000000000000000000000000000000000000000000 PUSH1 0x0 MSTORE PUSH1 0x41 PUSH1 0x4 MSTORE PUSH1 0x24 PUSH1 0x0 REVERT JUMPDEST PUSH1 0x40 MLOAD SWAP1 DUP1 DUP3 MSTORE DUP1 PUSH1 0x20 MUL PUSH1 0x20 ADD DUP3 ADD PUSH1 0x40 MSTORE DUP1 ISZERO PUSH2 0xFF4 JUMPI DUP2 PUSH1 0x20 ADD PUSH1 0x20 DUP3 MUL DUP1 CALLDATASIZE DUP4 CALLDATACOPY DUP1 DUP3 ADD SWAP2 POP POP SWAP1 POP JUMPDEST POP SWAP4 POP PUSH1 0x0 JUMPDEST DUP2 DUP2 LT ISZERO PUSH2 0x1236 JUMPI PUSH1 0x0 DUP4 DUP3 DUP2 SLOAD DUP2 LT PUSH2 0x103D JUMPI PUSH32 0x4E487B7100000000000000000000000000000000000000000000000000000000 PUSH1 0x0 MSTORE PUSH1 0x32 PUSH1 0x4 MSTORE PUSH1 0x24 PUSH1 0x0 REVERT JUMPDEST SWAP1 PUSH1 0x0 MSTORE PUSH1 0x20 PUSH1 0x0 KECCAK256 SWAP1 PUSH1 0x4 MUL ADD PUSH1 0x40 MLOAD DUP1 PUSH1 0x80 ADD PUSH1 0x40 MSTORE SWAP1 DUP2 PUSH1 0x0 DUP3 ADD SLOAD DUP2 MSTORE PUSH1 0x20 ADD PUSH1 0x1 DUP3 ADD SLOAD DUP2 MSTORE PUSH1 0x20 ADD PUSH1 0x2 DUP3 ADD SLOAD DUP2 MSTORE PUSH1 0x20 ADD PUSH1 0x3 DUP3 ADD PUSH1 0x0 SWAP1 SLOAD SWAP1 PUSH2 0x100 EXP SWAP1 DIV PUSH20 0xFFFFFFFFFFFFFFFFFFFFFFFFFFFFFFFFFFFFFFFF AND PUSH20 0xFFFFFFFFFFFFFFFFFFFFFFFFFFFFFFFFFFFFFFFF AND PUSH20 0xFFFFFFFFFFFFFFFFFFFFFFFFFFFFFFFFFFFFFFFF AND DUP2 MSTORE POP POP SWAP1 POP DUP1 PUSH1 0x0 ADD MLOAD DUP10 DUP4 DUP2 MLOAD DUP2 LT PUSH2 0x110A JUMPI PUSH32 0x4E487B7100000000000000000000000000000000000000000000000000000000 PUSH1 0x0 MSTORE PUSH1 0x32 PUSH1 0x4 MSTORE PUSH1 0x24 PUSH1 0x0 REVERT JUMPDEST PUSH1 0x20 MUL PUSH1 0x20 ADD ADD DUP2 DUP2 MSTORE POP POP DUP1 PUSH1 0x20 ADD MLOAD DUP9 DUP4 DUP2 MLOAD DUP2 LT PUSH2 0x1154 JUMPI PUSH32 0x4E487B7100000000000000000000000000000000000000000000000000000000 PUSH1 0x0 MSTORE PUSH1 0x32 PUSH1 0x4 MSTORE PUSH1 0x24 PUSH1 0x0 REVERT JUMPDEST PUSH1 0x20 MUL PUSH1 0x20 ADD ADD DUP2 DUP2 MSTORE POP POP DUP1 PUSH1 0x60 ADD MLOAD DUP8 DUP4 DUP2 MLOAD DUP2 LT PUSH2 0x119E JUMPI PUSH32 0x4E487B7100000000000000000000000000000000000000000000000000000000 PUSH1 0x0 MSTORE PUSH1 0x32 PUSH1 0x4 MSTORE PUSH1 0x24 PUSH1 0x0 REVERT JUMPDEST PUSH1 0x20 MUL PUSH1 0x20 ADD ADD SWAP1 PUSH20 0xFFFFFFFFFFFFFFFFFFFFFFFFFFFFFFFFFFFFFFFF AND SWAP1 DUP2 PUSH20 0xFFFFFFFFFFFFFFFFFFFFFFFFFFFFFFFFFFFFFFFF AND DUP2 MSTORE POP POP DUP1 PUSH1 0x40 ADD MLOAD DUP7 DUP4 DUP2 MLOAD DUP2 LT PUSH2 0x1216 JUMPI PUSH32 0x4E487B7100000000000000000000000000000000000000000000000000000000 PUSH1 0x0 MSTORE PUSH1 0x32 PUSH1 0x4 MSTORE PUSH1 0x24 PUSH1 0x0 REVERT JUMPDEST PUSH1 0x20 MUL PUSH1 0x20 ADD ADD DUP2 DUP2 MSTORE POP POP POP DUP1 DUP1 PUSH2 0x122E SWAP1 PUSH2 0x3C79 JUMP JUMPDEST SWAP2 POP POP PUSH2 0xFFA JUMP JUMPDEST POP POP POP POP SWAP2 SWAP4 POP SWAP2 SWAP4 JUMP JUMPDEST PUSH1 0x60 PUSH1 0x0 DUP1 PUSH1 0x0 DUP1 PUSH1 0x0 PUSH1 0x2 PUSH1 0x0 DUP9 DUP2 MSTORE PUSH1 0x20 ADD SWAP1 DUP2 MSTORE PUSH1 0x20 ADD PUSH1 0x0 KECCAK256 SWAP1 POP DUP1 PUSH1 0x1 ADD DUP2 PUSH1 0x3 ADD PUSH1 0x0 SWAP1 SLOAD SWAP1 PUSH2 0x100 EXP SWAP1 DIV PUSH20 0xFFFFFFFFFFFFFFFFFFFFFFFFFFFFFFFFFFFFFFFF AND DUP3 PUSH1 0x7 ADD SLOAD DUP4 PUSH1 0x5 ADD SLOAD DUP5 PUSH1 0x9 ADD PUSH1 0x0 SWAP1 SLOAD SWAP1 PUSH2 0x100 EXP SWAP1 DIV PUSH1 0xFF AND DUP5 DUP1 SLOAD DUP1 PUSH1 0x20 MUL PUSH1 0x20 ADD PUSH1 0x40 MLOAD SWAP1 DUP2 ADD PUSH1 0x40 MSTORE DUP1 SWAP3 SWAP2 SWAP1 DUP2 DUP2 MSTORE PUSH1 0x20 ADD DUP3 DUP1 SLOAD DUP1 ISZERO PUSH2 0x1326 JUMPI PUSH1 0x20 MUL DUP3 ADD SWAP2 SWAP1 PUSH1 0x0 MSTORE PUSH1 0x20 PUSH1 0x0 KECCAK256 SWAP1 JUMPDEST DUP2 PUSH1 0x0 SWAP1 SLOAD SWAP1 PUSH2 0x100 EXP SWAP1 DIV PUSH20 0xFFFFFFFFFFFFFFFFFFFFFFFFFFFFFFFFFFFFFFFF AND PUSH20 0xFFFFFFFFFFFFFFFFFFFFFFFFFFFFFFFFFFFFFFFF AND DUP2 MSTORE PUSH1 0x20 ADD SWAP1 PUSH1 0x1 ADD SWAP1 DUP1 DUP4 GT PUSH2 0x12DC JUMPI JUMPDEST POP POP POP POP POP SWAP5 POP SWAP6 POP SWAP6 POP SWAP6 POP SWAP6 POP SWAP6 POP POP SWAP2 SWAP4 SWAP6 SWAP1 SWAP3 SWAP5 POP JUMP JUMPDEST PUSH1 0x0 DUP1 DUP3 PUSH1 0x0 PUSH1 0x2 PUSH1 0x0 DUP4 DUP2 MSTORE PUSH1 0x20 ADD SWAP1 DUP2 MSTORE PUSH1 0x20 ADD PUSH1 0x0 KECCAK256 PUSH1 0x1 ADD DUP1 SLOAD SWAP1 POP GT PUSH2 0x136B JUMPI PUSH1 0x0 DUP1 REVERT JUMPDEST PUSH1 0x0 PUSH2 0x1375 PUSH2 0x2BE4 JUMP JUMPDEST SWAP1 POP PUSH1 0x0 PUSH1 0x2 PUSH1 0x0 DUP8 DUP2 MSTORE PUSH1 0x20 ADD SWAP1 DUP2 MSTORE PUSH1 0x20 ADD PUSH1 0x0 KECCAK256 SWAP1 POP PUSH1 0x0 DUP3 PUSH20 0xFFFFFFFFFFFFFFFFFFFFFFFFFFFFFFFFFFFFFFFF AND PUSH4 0x28DD2D01 DUP4 PUSH1 0x3 ADD PUSH1 0x0 SWAP1 SLOAD SWAP1 PUSH2 0x100 EXP SWAP1 DIV PUSH20 0xFFFFFFFFFFFFFFFFFFFFFFFFFFFFFFFFFFFFFFFF AND ADDRESS PUSH1 0x40 MLOAD DUP4 PUSH4 0xFFFFFFFF AND PUSH1 0xE0 SHL DUP2 MSTORE PUSH1 0x4 ADD PUSH2 0x13EF SWAP3 SWAP2 SWAP1 PUSH2 0x3619 JUMP JUMPDEST PUSH2 0x140 PUSH1 0x40 MLOAD DUP1 DUP4 SUB DUP2 DUP7 DUP1 EXTCODESIZE ISZERO DUP1 ISZERO PUSH2 0x1408 JUMPI PUSH1 0x0 DUP1 REVERT JUMPDEST POP GAS STATICCALL ISZERO DUP1 ISZERO PUSH2 0x141C JUMPI RETURNDATASIZE PUSH1 0x0 DUP1 RETURNDATACOPY RETURNDATASIZE PUSH1 0x0 REVERT JUMPDEST POP POP POP POP PUSH1 0x40 MLOAD RETURNDATASIZE PUSH1 0x1F NOT PUSH1 0x1F DUP3 ADD AND DUP3 ADD DUP1 PUSH1 0x40 MSTORE POP DUP2 ADD SWAP1 PUSH2 0x1440 SWAP2 SWAP1 PUSH2 0x31F9 JUMP JUMPDEST POP POP POP POP POP POP POP POP POP SWAP1 POP PUSH1 0x4 PUSH1 0x0 DUP4 PUSH1 0x3 ADD PUSH1 0x0 SWAP1 SLOAD SWAP1 PUSH2 0x100 EXP SWAP1 DIV PUSH20 0xFFFFFFFFFFFFFFFFFFFFFFFFFFFFFFFFFFFFFFFF AND PUSH20 0xFFFFFFFFFFFFFFFFFFFFFFFFFFFFFFFFFFFFFFFF AND PUSH20 0xFFFFFFFFFFFFFFFFFFFFFFFFFFFFFFFFFFFFFFFF AND DUP2 MSTORE PUSH1 0x20 ADD SWAP1 DUP2 MSTORE PUSH1 0x20 ADD PUSH1 0x0 KECCAK256 SLOAD DUP3 PUSH1 0x8 ADD SLOAD DUP3 PUSH2 0x14BF SWAP2 SWAP1 PUSH2 0x3AFD JUMP JUMPDEST PUSH2 0x14C9 SWAP2 SWAP1 PUSH2 0x3ACC JUMP JUMPDEST SWAP1 POP DUP1 DUP3 PUSH1 0x8 ADD SLOAD SWAP6 POP SWAP6 POP POP POP POP POP SWAP2 POP SWAP2 JUMP JUMPDEST DUP2 PUSH1 0x0 PUSH1 0x2 PUSH1 0x0 DUP4 DUP2 MSTORE PUSH1 0x20 ADD SWAP1 DUP2 MSTORE PUSH1 0x20 ADD PUSH1 0x0 KECCAK256 PUSH1 0x1 ADD DUP1 SLOAD SWAP1 POP GT PUSH2 0x1505 JUMPI PUSH1 0x0 DUP1 REVERT JUMPDEST DUP3 PUSH1 0x2 PUSH1 0x0 DUP3 DUP2 MSTORE PUSH1 0x20 ADD SWAP1 DUP2 MSTORE PUSH1 0x20 ADD PUSH1 0x0 KECCAK256 PUSH1 0x2 ADD PUSH1 0x0 CALLER PUSH20 0xFFFFFFFFFFFFFFFFFFFFFFFFFFFFFFFFFFFFFFFF AND PUSH20 0xFFFFFFFFFFFFFFFFFFFFFFFFFFFFFFFFFFFFFFFF AND DUP2 MSTORE PUSH1 0x20 ADD SWAP1 DUP2 MSTORE PUSH1 0x20 ADD PUSH1 0x0 KECCAK256 PUSH1 0x3 ADD PUSH1 0x0 SWAP1 SLOAD SWAP1 PUSH2 0x100 EXP SWAP1 DIV PUSH1 0xFF AND PUSH2 0x15A9 JUMPI PUSH1 0x40 MLOAD PUSH32 0x8C379A000000000000000000000000000000000000000000000000000000000 DUP2 MSTORE PUSH1 0x4 ADD PUSH2 0x15A0 SWAP1 PUSH2 0x38C6 JUMP JUMPDEST PUSH1 0x40 MLOAD DUP1 SWAP2 SUB SWAP1 REVERT JUMPDEST PUSH1 0x0 PUSH1 0x2 PUSH1 0x0 DUP7 DUP2 MSTORE PUSH1 0x20 ADD SWAP1 DUP2 MSTORE PUSH1 0x20 ADD PUSH1 0x0 KECCAK256 SWAP1 POP PUSH2 0x15C8 PUSH2 0x2D30 JUMP JUMPDEST DUP5 DUP2 PUSH1 0x40 ADD DUP2 DUP2 MSTORE POP POP CALLER DUP2 PUSH1 0x60 ADD SWAP1 PUSH20 0xFFFFFFFFFFFFFFFFFFFFFFFFFFFFFFFFFFFFFFFF AND SWAP1 DUP2 PUSH20 0xFFFFFFFFFFFFFFFFFFFFFFFFFFFFFFFFFFFFFFFF AND DUP2 MSTORE POP POP PUSH32 0x984C20A11321713448691D23875E2560784081023478B351713F9C5A8214C551 CALLER DUP8 DUP8 PUSH1 0x40 MLOAD PUSH2 0x163D SWAP4 SWAP3 SWAP2 SWAP1 PUSH2 0x3679 JUMP JUMPDEST PUSH1 0x40 MLOAD DUP1 SWAP2 SUB SWAP1 LOG1 DUP2 PUSH1 0xA ADD DUP2 SWAP1 DUP1 PUSH1 0x1 DUP2 SLOAD ADD DUP1 DUP3 SSTORE DUP1 SWAP2 POP POP PUSH1 0x1 SWAP1 SUB SWAP1 PUSH1 0x0 MSTORE PUSH1 0x20 PUSH1 0x0 KECCAK256 SWAP1 PUSH1 0x4 MUL ADD PUSH1 0x0 SWAP1 SWAP2 SWAP1 SWAP2 SWAP1 SWAP2 POP PUSH1 0x0 DUP3 ADD MLOAD DUP2 PUSH1 0x0 ADD SSTORE PUSH1 0x20 DUP3 ADD MLOAD DUP2 PUSH1 0x1 ADD SSTORE PUSH1 0x40 DUP3 ADD MLOAD DUP2 PUSH1 0x2 ADD SSTORE PUSH1 0x60 DUP3 ADD MLOAD DUP2 PUSH1 0x3 ADD PUSH1 0x0 PUSH2 0x100 EXP DUP2 SLOAD DUP2 PUSH20 0xFFFFFFFFFFFFFFFFFFFFFFFFFFFFFFFFFFFFFFFF MUL NOT AND SWAP1 DUP4 PUSH20 0xFFFFFFFFFFFFFFFFFFFFFFFFFFFFFFFFFFFFFFFF AND MUL OR SWAP1 SSTORE POP POP POP POP POP POP POP POP POP JUMP JUMPDEST PUSH1 0x60 PUSH1 0x3 PUSH1 0x0 DUP4 PUSH20 0xFFFFFFFFFFFFFFFFFFFFFFFFFFFFFFFFFFFFFFFF AND PUSH20 0xFFFFFFFFFFFFFFFFFFFFFFFFFFFFFFFFFFFFFFFF AND DUP2 MSTORE PUSH1 0x20 ADD SWAP1 DUP2 MSTORE PUSH1 0x20 ADD PUSH1 0x0 KECCAK256 DUP1 SLOAD DUP1 PUSH1 0x20 MUL PUSH1 0x20 ADD PUSH1 0x40 MLOAD SWAP1 DUP2 ADD PUSH1 0x40 MSTORE DUP1 SWAP3 SWAP2 SWAP1 DUP2 DUP2 MSTORE PUSH1 0x20 ADD DUP3 DUP1 SLOAD DUP1 ISZERO PUSH2 0x176D JUMPI PUSH1 0x20 MUL DUP3 ADD SWAP2 SWAP1 PUSH1 0x0 MSTORE PUSH1 0x20 PUSH1 0x0 KECCAK256 SWAP1 JUMPDEST DUP2 SLOAD DUP2 MSTORE PUSH1 0x20 ADD SWAP1 PUSH1 0x1 ADD SWAP1 DUP1 DUP4 GT PUSH2 0x1759 JUMPI JUMPDEST POP POP POP POP POP SWAP1 POP SWAP2 SWAP1 POP JUMP JUMPDEST PUSH1 0x60 DUP2 PUSH1 0x0 PUSH1 0x2 PUSH1 0x0 DUP4 DUP2 MSTORE PUSH1 0x20 ADD SWAP1 DUP2 MSTORE PUSH1 0x20 ADD PUSH1 0x0 KECCAK256 PUSH1 0x1 ADD DUP1 SLOAD SWAP1 POP GT PUSH2 0x17A2 JUMPI PUSH1 0x0 DUP1 REVERT JUMPDEST PUSH1 0x2 PUSH1 0x0 DUP5 DUP2 MSTORE PUSH1 0x20 ADD SWAP1 DUP2 MSTORE PUSH1 0x20 ADD PUSH1 0x0 KECCAK256 PUSH1 0x1 ADD DUP1 SLOAD DUP1 PUSH1 0x20 MUL PUSH1 0x20 ADD PUSH1 0x40 MLOAD SWAP1 DUP2 ADD PUSH1 0x40 MSTORE DUP1 SWAP3 SWAP2 SWAP1 DUP2 DUP2 MSTORE PUSH1 0x20 ADD DUP3 DUP1 SLOAD DUP1 ISZERO PUSH2 0x1838 JUMPI PUSH1 0x20 MUL DUP3 ADD SWAP2 SWAP1 PUSH1 0x0 MSTORE PUSH1 0x20 PUSH1 0x0 KECCAK256 SWAP1 JUMPDEST DUP2 PUSH1 0x0 SWAP1 SLOAD SWAP1 PUSH2 0x100 EXP SWAP1 DIV PUSH20 0xFFFFFFFFFFFFFFFFFFFFFFFFFFFFFFFFFFFFFFFF AND PUSH20 0xFFFFFFFFFFFFFFFFFFFFFFFFFFFFFFFFFFFFFFFF AND DUP2 MSTORE PUSH1 0x20 ADD SWAP1 PUSH1 0x1 ADD SWAP1 DUP1 DUP4 GT PUSH2 0x17EE JUMPI JUMPDEST POP POP POP POP POP SWAP2 POP POP SWAP2 SWAP1 POP JUMP JUMPDEST PUSH1 0x60 DUP1 DUP3 PUSH1 0x0 PUSH1 0x2 PUSH1 0x0 DUP4 DUP2 MSTORE PUSH1 0x20 ADD SWAP1 DUP2 MSTORE PUSH1 0x20 ADD PUSH1 0x0 KECCAK256 PUSH1 0x1 ADD DUP1 SLOAD SWAP1 POP GT PUSH2 0x186F JUMPI PUSH1 0x0 DUP1 REVERT JUMPDEST PUSH1 0x0 PUSH1 0x2 PUSH1 0x0 DUP7 DUP2 MSTORE PUSH1 0x20 ADD SWAP1 DUP2 MSTORE PUSH1 0x20 ADD PUSH1 0x0 KECCAK256 SWAP1 POP PUSH1 0x0 DUP2 PUSH1 0x1 ADD DUP1 SLOAD SWAP1 POP PUSH8 0xFFFFFFFFFFFFFFFF DUP2 GT ISZERO PUSH2 0x18CF JUMPI PUSH32 0x4E487B7100000000000000000000000000000000000000000000000000000000 PUSH1 0x0 MSTORE PUSH1 0x41 PUSH1 0x4 MSTORE PUSH1 0x24 PUSH1 0x0 REVERT JUMPDEST PUSH1 0x40 MLOAD SWAP1 DUP1 DUP3 MSTORE DUP1 PUSH1 0x20 MUL PUSH1 0x20 ADD DUP3 ADD PUSH1 0x40 MSTORE DUP1 ISZERO PUSH2 0x18FD JUMPI DUP2 PUSH1 0x20 ADD PUSH1 0x20 DUP3 MUL DUP1 CALLDATASIZE DUP4 CALLDATACOPY DUP1 DUP3 ADD SWAP2 POP POP SWAP1 POP JUMPDEST POP SWAP1 POP PUSH1 0x0 JUMPDEST DUP2 MLOAD DUP2 LT ISZERO PUSH2 0x1A0F JUMPI DUP3 PUSH1 0x2 ADD PUSH1 0x0 DUP5 PUSH1 0x1 ADD DUP4 DUP2 SLOAD DUP2 LT PUSH2 0x194E JUMPI PUSH32 0x4E487B7100000000000000000000000000000000000000000000000000000000 PUSH1 0x0 MSTORE PUSH1 0x32 PUSH1 0x4 MSTORE PUSH1 0x24 PUSH1 0x0 REVERT JUMPDEST SWAP1 PUSH1 0x0 MSTORE PUSH1 0x20 PUSH1 0x0 KECCAK256 ADD PUSH1 0x0 SWAP1 SLOAD SWAP1 PUSH2 0x100 EXP SWAP1 DIV PUSH20 0xFFFFFFFFFFFFFFFFFFFFFFFFFFFFFFFFFFFFFFFF AND PUSH20 0xFFFFFFFFFFFFFFFFFFFFFFFFFFFFFFFFFFFFFFFF AND PUSH20 0xFFFFFFFFFFFFFFFFFFFFFFFFFFFFFFFFFFFFFFFF AND DUP2 MSTORE PUSH1 0x20 ADD SWAP1 DUP2 MSTORE PUSH1 0x20 ADD PUSH1 0x0 KECCAK256 PUSH1 0x0 ADD SLOAD DUP3 DUP3 DUP2 MLOAD DUP2 LT PUSH2 0x19F0 JUMPI PUSH32 0x4E487B7100000000000000000000000000000000000000000000000000000000 PUSH1 0x0 MSTORE PUSH1 0x32 PUSH1 0x4 MSTORE PUSH1 0x24 PUSH1 0x0 REVERT JUMPDEST PUSH1 0x20 MUL PUSH1 0x20 ADD ADD DUP2 DUP2 MSTORE POP POP DUP1 DUP1 PUSH2 0x1A07 SWAP1 PUSH2 0x3C79 JUMP JUMPDEST SWAP2 POP POP PUSH2 0x1903 JUMP JUMPDEST POP DUP2 PUSH1 0x1 ADD DUP2 DUP2 DUP1 SLOAD DUP1 PUSH1 0x20 MUL PUSH1 0x20 ADD PUSH1 0x40 MLOAD SWAP1 DUP2 ADD PUSH1 0x40 MSTORE DUP1 SWAP3 SWAP2 SWAP1 DUP2 DUP2 MSTORE PUSH1 0x20 ADD DUP3 DUP1 SLOAD DUP1 ISZERO PUSH2 0x1A96 JUMPI PUSH1 0x20 MUL DUP3 ADD SWAP2 SWAP1 PUSH1 0x0 MSTORE PUSH1 0x20 PUSH1 0x0 KECCAK256 SWAP1 JUMPDEST DUP2 PUSH1 0x0 SWAP1 SLOAD SWAP1 PUSH2 0x100 EXP SWAP1 DIV PUSH20 0xFFFFFFFFFFFFFFFFFFFFFFFFFFFFFFFFFFFFFFFF AND PUSH20 0xFFFFFFFFFFFFFFFFFFFFFFFFFFFFFFFFFFFFFFFF AND DUP2 MSTORE PUSH1 0x20 ADD SWAP1 PUSH1 0x1 ADD SWAP1 DUP1 DUP4 GT PUSH2 0x1A4C JUMPI JUMPDEST POP POP POP POP POP SWAP2 POP SWAP5 POP SWAP5 POP POP POP POP SWAP2 POP SWAP2 JUMP JUMPDEST PUSH1 0x0 PUSH20 0xFFFFFFFFFFFFFFFFFFFFFFFFFFFFFFFFFFFFFFFF AND DUP8 DUP8 PUSH1 0x0 DUP2 DUP2 LT PUSH2 0x1AFB JUMPI PUSH32 0x4E487B7100000000000000000000000000000000000000000000000000000000 PUSH1 0x0 MSTORE PUSH1 0x32 PUSH1 0x4 MSTORE PUSH1 0x24 PUSH1 0x0 REVERT JUMPDEST SWAP1 POP PUSH1 0x20 MUL ADD PUSH1 0x20 DUP2 ADD SWAP1 PUSH2 0x1B10 SWAP2 SWAP1 PUSH2 0x2F7C JUMP JUMPDEST PUSH20 0xFFFFFFFFFFFFFFFFFFFFFFFFFFFFFFFFFFFFFFFF AND EQ ISZERO PUSH2 0x1B67 JUMPI PUSH1 0x40 MLOAD PUSH32 0x8C379A000000000000000000000000000000000000000000000000000000000 DUP2 MSTORE PUSH1 0x4 ADD PUSH2 0x1B5E SWAP1 PUSH2 0x3906 JUMP JUMPDEST PUSH1 0x40 MLOAD DUP1 SWAP2 SUB SWAP1 REVERT JUMPDEST PUSH1 0x0 DUP10 DUP10 PUSH1 0x40 MLOAD PUSH1 0x20 ADD PUSH2 0x1B7C SWAP3 SWAP2 SWAP1 PUSH2 0x35D7 JUMP JUMPDEST PUSH1 0x40 MLOAD PUSH1 0x20 DUP2 DUP4 SUB SUB DUP2 MSTORE SWAP1 PUSH1 0x40 MSTORE DUP1 MLOAD SWAP1 PUSH1 0x20 ADD KECCAK256 SWAP1 POP PUSH1 0x0 PUSH1 0x2 PUSH1 0x0 DUP4 DUP2 MSTORE PUSH1 0x20 ADD SWAP1 DUP2 MSTORE PUSH1 0x20 ADD PUSH1 0x0 KECCAK256 SWAP1 POP CALLER DUP2 PUSH1 0x0 ADD PUSH1 0x0 PUSH2 0x100 EXP DUP2 SLOAD DUP2 PUSH20 0xFFFFFFFFFFFFFFFFFFFFFFFFFFFFFFFFFFFFFFFF MUL NOT AND SWAP1 DUP4 PUSH20 0xFFFFFFFFFFFFFFFFFFFFFFFFFFFFFFFFFFFFFFFF AND MUL OR SWAP1 SSTORE POP DUP9 DUP9 DUP3 PUSH1 0x1 ADD SWAP2 SWAP1 PUSH2 0x1C01 SWAP3 SWAP2 SWAP1 PUSH2 0x2D6E JUMP JUMPDEST POP DUP7 DUP2 PUSH1 0x3 ADD PUSH1 0x0 PUSH2 0x100 EXP DUP2 SLOAD DUP2 PUSH20 0xFFFFFFFFFFFFFFFFFFFFFFFFFFFFFFFFFFFFFFFF MUL NOT AND SWAP1 DUP4 PUSH20 0xFFFFFFFFFFFFFFFFFFFFFFFFFFFFFFFFFFFFFFFF AND MUL OR SWAP1 SSTORE POP DUP6 DUP2 PUSH1 0x7 ADD DUP2 SWAP1 SSTORE POP DUP5 DUP2 PUSH1 0x9 ADD PUSH1 0x0 PUSH2 0x100 EXP DUP2 SLOAD DUP2 PUSH1 0xFF MUL NOT AND SWAP1 DUP4 PUSH1 0x2 DUP2 GT ISZERO PUSH2 0x1C9B JUMPI PUSH32 0x4E487B7100000000000000000000000000000000000000000000000000000000 PUSH1 0x0 MSTORE PUSH1 0x21 PUSH1 0x4 MSTORE PUSH1 0x24 PUSH1 0x0 REVERT JUMPDEST MUL OR SWAP1 SSTORE POP DUP4 DUP2 PUSH1 0x5 ADD DUP2 SWAP1 SSTORE POP DUP3 ISZERO PUSH2 0x1CD2 JUMPI PUSH3 0x15180 DUP5 PUSH2 0x1CBE SWAP2 SWAP1 PUSH2 0x3AFD JUMP JUMPDEST TIMESTAMP PUSH2 0x1CC9 SWAP2 SWAP1 PUSH2 0x3A76 JUMP JUMPDEST DUP2 PUSH1 0x4 ADD DUP2 SWAP1 SSTORE POP JUMPDEST PUSH1 0x0 JUMPDEST DUP10 DUP10 SWAP1 POP DUP2 LT ISZERO PUSH2 0x1E50 JUMPI PUSH1 0x3 PUSH1 0x0 DUP12 DUP12 DUP5 DUP2 DUP2 LT PUSH2 0x1D1D JUMPI PUSH32 0x4E487B7100000000000000000000000000000000000000000000000000000000 PUSH1 0x0 MSTORE PUSH1 0x32 PUSH1 0x4 MSTORE PUSH1 0x24 PUSH1 0x0 REVERT JUMPDEST SWAP1 POP PUSH1 0x20 MUL ADD PUSH1 0x20 DUP2 ADD SWAP1 PUSH2 0x1D32 SWAP2 SWAP1 PUSH2 0x2F7C JUMP JUMPDEST PUSH20 0xFFFFFFFFFFFFFFFFFFFFFFFFFFFFFFFFFFFFFFFF AND PUSH20 0xFFFFFFFFFFFFFFFFFFFFFFFFFFFFFFFFFFFFFFFF AND DUP2 MSTORE PUSH1 0x20 ADD SWAP1 DUP2 MSTORE PUSH1 0x20 ADD PUSH1 0x0 KECCAK256 DUP4 SWAP1 DUP1 PUSH1 0x1 DUP2 SLOAD ADD DUP1 DUP3 SSTORE DUP1 SWAP2 POP POP PUSH1 0x1 SWAP1 SUB SWAP1 PUSH1 0x0 MSTORE PUSH1 0x20 PUSH1 0x0 KECCAK256 ADD PUSH1 0x0 SWAP1 SWAP2 SWAP1 SWAP2 SWAP1 SWAP2 POP SSTORE PUSH1 0x1 DUP3 PUSH1 0x2 ADD PUSH1 0x0 DUP13 DUP13 DUP6 DUP2 DUP2 LT PUSH2 0x1DD4 JUMPI PUSH32 0x4E487B7100000000000000000000000000000000000000000000000000000000 PUSH1 0x0 MSTORE PUSH1 0x32 PUSH1 0x4 MSTORE PUSH1 0x24 PUSH1 0x0 REVERT JUMPDEST SWAP1 POP PUSH1 0x20 MUL ADD PUSH1 0x20 DUP2 ADD SWAP1 PUSH2 0x1DE9 SWAP2 SWAP1 PUSH2 0x2F7C JUMP JUMPDEST PUSH20 0xFFFFFFFFFFFFFFFFFFFFFFFFFFFFFFFFFFFFFFFF AND PUSH20 0xFFFFFFFFFFFFFFFFFFFFFFFFFFFFFFFFFFFFFFFF AND DUP2 MSTORE PUSH1 0x20 ADD SWAP1 DUP2 MSTORE PUSH1 0x20 ADD PUSH1 0x0 KECCAK256 PUSH1 0x3 ADD PUSH1 0x0 PUSH2 0x100 EXP DUP2 SLOAD DUP2 PUSH1 0xFF MUL NOT AND SWAP1 DUP4 ISZERO ISZERO MUL OR SWAP1 SSTORE POP DUP1 DUP1 PUSH2 0x1E48 SWAP1 PUSH2 0x3C79 JUMP JUMPDEST SWAP2 POP POP PUSH2 0x1CD5 JUMP JUMPDEST POP POP POP POP POP POP POP POP POP POP POP POP JUMP JUMPDEST PUSH1 0x60 DUP1 DUP3 PUSH1 0x0 PUSH1 0x2 PUSH1 0x0 DUP4 DUP2 MSTORE PUSH1 0x20 ADD SWAP1 DUP2 MSTORE PUSH1 0x20 ADD PUSH1 0x0 KECCAK256 PUSH1 0x1 ADD DUP1 SLOAD SWAP1 POP GT PUSH2 0x1E88 JUMPI PUSH1 0x0 DUP1 REVERT JUMPDEST PUSH1 0x0 PUSH1 0x2 PUSH1 0x0 DUP7 DUP2 MSTORE PUSH1 0x20 ADD SWAP1 DUP2 MSTORE PUSH1 0x20 ADD PUSH1 0x0 KECCAK256 PUSH1 0x2 ADD SWAP1 POP PUSH1 0x2 PUSH1 0x0 DUP7 DUP2 MSTORE PUSH1 0x20 ADD SWAP1 DUP2 MSTORE PUSH1 0x20 ADD PUSH1 0x0 KECCAK256 PUSH1 0x1 ADD DUP1 SLOAD DUP1 PUSH1 0x20 MUL PUSH1 0x20 ADD PUSH1 0x40 MLOAD SWAP1 DUP2 ADD PUSH1 0x40 MSTORE DUP1 SWAP3 SWAP2 SWAP1 DUP2 DUP2 MSTORE PUSH1 0x20 ADD DUP3 DUP1 SLOAD DUP1 ISZERO PUSH2 0x1F38 JUMPI PUSH1 0x20 MUL DUP3 ADD SWAP2 SWAP1 PUSH1 0x0 MSTORE PUSH1 0x20 PUSH1 0x0 KECCAK256 SWAP1 JUMPDEST DUP2 PUSH1 0x0 SWAP1 SLOAD SWAP1 PUSH2 0x100 EXP SWAP1 DIV PUSH20 0xFFFFFFFFFFFFFFFFFFFFFFFFFFFFFFFFFFFFFFFF AND PUSH20 0xFFFFFFFFFFFFFFFFFFFFFFFFFFFFFFFFFFFFFFFF AND DUP2 MSTORE PUSH1 0x20 ADD SWAP1 PUSH1 0x1 ADD SWAP1 DUP1 DUP4 GT PUSH2 0x1EEE JUMPI JUMPDEST POP POP POP POP POP SWAP4 POP PUSH1 0x0 DUP5 MLOAD PUSH8 0xFFFFFFFFFFFFFFFF DUP2 GT ISZERO PUSH2 0x1F82 JUMPI PUSH32 0x4E487B7100000000000000000000000000000000000000000000000000000000 PUSH1 0x0 MSTORE PUSH1 0x41 PUSH1 0x4 MSTORE PUSH1 0x24 PUSH1 0x0 REVERT JUMPDEST PUSH1 0x40 MLOAD SWAP1 DUP1 DUP3 MSTORE DUP1 PUSH1 0x20 MUL PUSH1 0x20 ADD DUP3 ADD PUSH1 0x40 MSTORE DUP1 ISZERO PUSH2 0x1FB0 JUMPI DUP2 PUSH1 0x20 ADD PUSH1 0x20 DUP3 MUL DUP1 CALLDATASIZE DUP4 CALLDATACOPY DUP1 DUP3 ADD SWAP2 POP POP SWAP1 POP JUMPDEST POP SWAP1 POP PUSH1 0x0 JUMPDEST DUP6 MLOAD DUP2 LT ISZERO PUSH2 0x2099 JUMPI DUP3 PUSH1 0x0 DUP8 DUP4 DUP2 MLOAD DUP2 LT PUSH2 0x1FFB JUMPI PUSH32 0x4E487B7100000000000000000000000000000000000000000000000000000000 PUSH1 0x0 MSTORE PUSH1 0x32 PUSH1 0x4 MSTORE PUSH1 0x24 PUSH1 0x0 REVERT JUMPDEST PUSH1 0x20 MUL PUSH1 0x20 ADD ADD MLOAD PUSH20 0xFFFFFFFFFFFFFFFFFFFFFFFFFFFFFFFFFFFFFFFF AND PUSH20 0xFFFFFFFFFFFFFFFFFFFFFFFFFFFFFFFFFFFFFFFF AND DUP2 MSTORE PUSH1 0x20 ADD SWAP1 DUP2 MSTORE PUSH1 0x20 ADD PUSH1 0x0 KECCAK256 PUSH1 0x1 ADD SLOAD DUP3 DUP3 DUP2 MLOAD DUP2 LT PUSH2 0x207A JUMPI PUSH32 0x4E487B7100000000000000000000000000000000000000000000000000000000 PUSH1 0x0 MSTORE PUSH1 0x32 PUSH1 0x4 MSTORE PUSH1 0x24 PUSH1 0x0 REVERT JUMPDEST PUSH1 0x20 MUL PUSH1 0x20 ADD ADD DUP2 DUP2 MSTORE POP POP DUP1 DUP1 PUSH2 0x2091 SWAP1 PUSH2 0x3C79 JUMP JUMPDEST SWAP2 POP POP PUSH2 0x1FB6 JUMP JUMPDEST POP DUP1 SWAP4 POP POP POP POP SWAP2 POP SWAP2 JUMP JUMPDEST PUSH1 0x0 DUP1 PUSH1 0x0 DUP1 DUP6 PUSH1 0x0 PUSH1 0x2 PUSH1 0x0 DUP4 DUP2 MSTORE PUSH1 0x20 ADD SWAP1 DUP2 MSTORE PUSH1 0x20 ADD PUSH1 0x0 KECCAK256 PUSH1 0x1 ADD DUP1 SLOAD SWAP1 POP GT PUSH2 0x20D2 JUMPI PUSH1 0x0 DUP1 REVERT JUMPDEST PUSH1 0x0 PUSH1 0x2 PUSH1 0x0 DUP10 DUP2 MSTORE PUSH1 0x20 ADD SWAP1 DUP2 MSTORE PUSH1 0x20 ADD PUSH1 0x0 KECCAK256 PUSH1 0xA ADD SWAP1 POP PUSH1 0x0 DUP2 DUP1 SLOAD SWAP1 POP SWAP1 POP DUP1 DUP9 LT PUSH2 0x2137 JUMPI PUSH1 0x40 MLOAD PUSH32 0x8C379A000000000000000000000000000000000000000000000000000000000 DUP2 MSTORE PUSH1 0x4 ADD PUSH2 0x212E SWAP1 PUSH2 0x3866 JUMP JUMPDEST PUSH1 0x40 MLOAD DUP1 SWAP2 SUB SWAP1 REVERT JUMPDEST PUSH1 0x0 DUP3 DUP3 DUP2 SLOAD DUP2 LT PUSH2 0x2172 JUMPI PUSH32 0x4E487B7100000000000000000000000000000000000000000000000000000000 PUSH1 0x0 MSTORE PUSH1 0x32 PUSH1 0x4 MSTORE PUSH1 0x24 PUSH1 0x0 REVERT JUMPDEST SWAP1 PUSH1 0x0 MSTORE PUSH1 0x20 PUSH1 0x0 KECCAK256 SWAP1 PUSH1 0x4 MUL ADD PUSH1 0x40 MLOAD DUP1 PUSH1 0x80 ADD PUSH1 0x40 MSTORE SWAP1 DUP2 PUSH1 0x0 DUP3 ADD SLOAD DUP2 MSTORE PUSH1 0x20 ADD PUSH1 0x1 DUP3 ADD SLOAD DUP2 MSTORE PUSH1 0x20 ADD PUSH1 0x2 DUP3 ADD SLOAD DUP2 MSTORE PUSH1 0x20 ADD PUSH1 0x3 DUP3 ADD PUSH1 0x0 SWAP1 SLOAD SWAP1 PUSH2 0x100 EXP SWAP1 DIV PUSH20 0xFFFFFFFFFFFFFFFFFFFFFFFFFFFFFFFFFFFFFFFF AND PUSH20 0xFFFFFFFFFFFFFFFFFFFFFFFFFFFFFFFFFFFFFFFF AND PUSH20 0xFFFFFFFFFFFFFFFFFFFFFFFFFFFFFFFFFFFFFFFF AND DUP2 MSTORE POP POP SWAP1 POP DUP1 PUSH1 0x0 ADD MLOAD SWAP8 POP DUP1 PUSH1 0x20 ADD MLOAD SWAP7 POP DUP1 PUSH1 0x60 ADD MLOAD SWAP6 POP DUP1 PUSH1 0x40 ADD MLOAD SWAP5 POP POP POP POP POP SWAP3 SWAP6 SWAP2 SWAP5 POP SWAP3 POP JUMP JUMPDEST DUP3 PUSH1 0x0 PUSH1 0x2 PUSH1 0x0 DUP4 DUP2 MSTORE PUSH1 0x20 ADD SWAP1 DUP2 MSTORE PUSH1 0x20 ADD PUSH1 0x0 KECCAK256 PUSH1 0x1 ADD DUP1 SLOAD SWAP1 POP GT PUSH2 0x2251 JUMPI PUSH1 0x0 DUP1 REVERT JUMPDEST PUSH1 0x2 PUSH1 0x0 DUP6 DUP2 MSTORE PUSH1 0x20 ADD SWAP1 DUP2 MSTORE PUSH1 0x20 ADD PUSH1 0x0 KECCAK256 PUSH1 0x2 ADD PUSH1 0x0 CALLER PUSH20 0xFFFFFFFFFFFFFFFFFFFFFFFFFFFFFFFFFFFFFFFF AND PUSH20 0xFFFFFFFFFFFFFFFFFFFFFFFFFFFFFFFFFFFFFFFF AND DUP2 MSTORE PUSH1 0x20 ADD SWAP1 DUP2 MSTORE PUSH1 0x20 ADD PUSH1 0x0 KECCAK256 PUSH1 0x3 ADD PUSH1 0x0 SWAP1 SLOAD SWAP1 PUSH2 0x100 EXP SWAP1 DIV PUSH1 0xFF AND PUSH2 0x22F4 JUMPI PUSH1 0x40 MLOAD PUSH32 0x8C379A000000000000000000000000000000000000000000000000000000000 DUP2 MSTORE PUSH1 0x4 ADD PUSH2 0x22EB SWAP1 PUSH2 0x38C6 JUMP JUMPDEST PUSH1 0x40 MLOAD DUP1 SWAP2 SUB SWAP1 REVERT JUMPDEST PUSH1 0x0 PUSH1 0x2 PUSH1 0x0 DUP7 DUP2 MSTORE PUSH1 0x20 ADD SWAP1 DUP2 MSTORE PUSH1 0x20 ADD PUSH1 0x0 KECCAK256 SWAP1 POP DUP1 PUSH1 0x3 ADD PUSH1 0x0 SWAP1 SLOAD SWAP1 PUSH2 0x100 EXP SWAP1 DIV PUSH20 0xFFFFFFFFFFFFFFFFFFFFFFFFFFFFFFFFFFFFFFFF AND PUSH20 0xFFFFFFFFFFFFFFFFFFFFFFFFFFFFFFFFFFFFFFFF AND DUP5 PUSH20 0xFFFFFFFFFFFFFFFFFFFFFFFFFFFFFFFFFFFFFFFF AND EQ PUSH2 0x239D JUMPI PUSH1 0x40 MLOAD PUSH32 0x8C379A000000000000000000000000000000000000000000000000000000000 DUP2 MSTORE PUSH1 0x4 ADD PUSH2 0x2394 SWAP1 PUSH2 0x3846 JUMP JUMPDEST PUSH1 0x40 MLOAD DUP1 SWAP2 SUB SWAP1 REVERT JUMPDEST DUP4 PUSH20 0xFFFFFFFFFFFFFFFFFFFFFFFFFFFFFFFFFFFFFFFF AND PUSH4 0x23B872DD CALLER ADDRESS DUP7 PUSH1 0x40 MLOAD DUP5 PUSH4 0xFFFFFFFF AND PUSH1 0xE0 SHL DUP2 MSTORE PUSH1 0x4 ADD PUSH2 0x23DA SWAP4 SWAP3 SWAP2 SWAP1 PUSH2 0x3642 JUMP JUMPDEST PUSH1 0x20 PUSH1 0x40 MLOAD DUP1 DUP4 SUB DUP2 PUSH1 0x0 DUP8 DUP1 EXTCODESIZE ISZERO DUP1 ISZERO PUSH2 0x23F4 JUMPI PUSH1 0x0 DUP1 REVERT JUMPDEST POP GAS CALL ISZERO DUP1 ISZERO PUSH2 0x2408 JUMPI RETURNDATASIZE PUSH1 0x0 DUP1 RETURNDATACOPY RETURNDATASIZE PUSH1 0x0 REVERT JUMPDEST POP POP POP POP PUSH1 0x40 MLOAD RETURNDATASIZE PUSH1 0x1F NOT PUSH1 0x1F DUP3 ADD AND DUP3 ADD DUP1 PUSH1 0x40 MSTORE POP DUP2 ADD SWAP1 PUSH2 0x242C SWAP2 SWAP1 PUSH2 0x2FF7 JUMP JUMPDEST POP PUSH1 0x0 PUSH2 0x2437 PUSH2 0x2BE4 JUMP JUMPDEST SWAP1 POP PUSH1 0x0 PUSH2 0x2443 PUSH2 0x2C8A JUMP JUMPDEST SWAP1 POP DUP6 PUSH20 0xFFFFFFFFFFFFFFFFFFFFFFFFFFFFFFFFFFFFFFFF AND PUSH4 0x95EA7B3 DUP3 DUP8 PUSH1 0x40 MLOAD DUP4 PUSH4 0xFFFFFFFF AND PUSH1 0xE0 SHL DUP2 MSTORE PUSH1 0x4 ADD PUSH2 0x2480 SWAP3 SWAP2 SWAP1 PUSH2 0x35F0 JUMP JUMPDEST PUSH1 0x20 PUSH1 0x40 MLOAD DUP1 DUP4 SUB DUP2 PUSH1 0x0 DUP8 DUP1 EXTCODESIZE ISZERO DUP1 ISZERO PUSH2 0x249A JUMPI PUSH1 0x0 DUP1 REVERT JUMPDEST POP GAS CALL ISZERO DUP1 ISZERO PUSH2 0x24AE JUMPI RETURNDATASIZE PUSH1 0x0 DUP1 RETURNDATACOPY RETURNDATASIZE PUSH1 0x0 REVERT JUMPDEST POP POP POP POP PUSH1 0x40 MLOAD RETURNDATASIZE PUSH1 0x1F NOT PUSH1 0x1F DUP3 ADD AND DUP3 ADD DUP1 PUSH1 0x40 MSTORE POP DUP2 ADD SWAP1 PUSH2 0x24D2 SWAP2 SWAP1 PUSH2 0x2FF7 JUMP JUMPDEST PUSH2 0x2511 JUMPI PUSH1 0x40 MLOAD PUSH32 0x8C379A000000000000000000000000000000000000000000000000000000000 DUP2 MSTORE PUSH1 0x4 ADD PUSH2 0x2508 SWAP1 PUSH2 0x38A6 JUMP JUMPDEST PUSH1 0x40 MLOAD DUP1 SWAP2 SUB SWAP1 REVERT JUMPDEST DUP2 PUSH20 0xFFFFFFFFFFFFFFFFFFFFFFFFFFFFFFFFFFFFFFFF AND PUSH4 0xD2D0E066 DUP8 DUP8 PUSH1 0x0 PUSH1 0x40 MLOAD DUP5 PUSH4 0xFFFFFFFF AND PUSH1 0xE0 SHL DUP2 MSTORE PUSH1 0x4 ADD PUSH2 0x254F SWAP4 SWAP3 SWAP2 SWAP1 PUSH2 0x36D9 JUMP JUMPDEST PUSH1 0x0 PUSH1 0x40 MLOAD DUP1 DUP4 SUB DUP2 PUSH1 0x0 DUP8 DUP1 EXTCODESIZE ISZERO DUP1 ISZERO PUSH2 0x2569 JUMPI PUSH1 0x0 DUP1 REVERT JUMPDEST POP GAS CALL ISZERO DUP1 ISZERO PUSH2 0x257D JUMPI RETURNDATASIZE PUSH1 0x0 DUP1 RETURNDATACOPY RETURNDATASIZE PUSH1 0x0 REVERT JUMPDEST POP POP POP POP DUP5 DUP4 PUSH1 0x8 ADD PUSH1 0x0 DUP3 DUP3 SLOAD PUSH2 0x2595 SWAP2 SWAP1 PUSH2 0x3A76 JUMP JUMPDEST SWAP3 POP POP DUP2 SWAP1 SSTORE POP DUP5 DUP4 PUSH1 0x2 ADD PUSH1 0x0 CALLER PUSH20 0xFFFFFFFFFFFFFFFFFFFFFFFFFFFFFFFFFFFFFFFF AND PUSH20 0xFFFFFFFFFFFFFFFFFFFFFFFFFFFFFFFFFFFFFFFF AND DUP2 MSTORE PUSH1 0x20 ADD SWAP1 DUP2 MSTORE PUSH1 0x20 ADD PUSH1 0x0 KECCAK256 PUSH1 0x0 ADD PUSH1 0x0 DUP3 DUP3 SLOAD PUSH2 0x25F0 SWAP2 SWAP1 PUSH2 0x3A76 JUMP JUMPDEST SWAP3 POP POP DUP2 SWAP1 SSTORE POP DUP5 DUP4 PUSH1 0x2 ADD PUSH1 0x0 CALLER PUSH20 0xFFFFFFFFFFFFFFFFFFFFFFFFFFFFFFFFFFFFFFFF AND PUSH20 0xFFFFFFFFFFFFFFFFFFFFFFFFFFFFFFFFFFFFFFFF AND DUP2 MSTORE PUSH1 0x20 ADD SWAP1 DUP2 MSTORE PUSH1 0x20 ADD PUSH1 0x0 KECCAK256 PUSH1 0x2 ADD PUSH1 0x0 DUP3 DUP3 SLOAD PUSH2 0x264B SWAP2 SWAP1 PUSH2 0x3A76 JUMP JUMPDEST SWAP3 POP POP DUP2 SWAP1 SSTORE POP DUP5 PUSH1 0x4 PUSH1 0x0 DUP9 PUSH20 0xFFFFFFFFFFFFFFFFFFFFFFFFFFFFFFFFFFFFFFFF AND PUSH20 0xFFFFFFFFFFFFFFFFFFFFFFFFFFFFFFFFFFFFFFFF AND DUP2 MSTORE PUSH1 0x20 ADD SWAP1 DUP2 MSTORE PUSH1 0x20 ADD PUSH1 0x0 KECCAK256 PUSH1 0x0 DUP3 DUP3 SLOAD PUSH2 0x26A1 SWAP2 SWAP1 PUSH2 0x3A76 JUMP JUMPDEST SWAP3 POP POP DUP2 SWAP1 SSTORE POP POP POP POP POP POP POP POP JUMP JUMPDEST PUSH1 0x1 PUSH1 0x0 SWAP1 SLOAD SWAP1 PUSH2 0x100 EXP SWAP1 DIV PUSH20 0xFFFFFFFFFFFFFFFFFFFFFFFFFFFFFFFFFFFFFFFF AND PUSH20 0xFFFFFFFFFFFFFFFFFFFFFFFFFFFFFFFFFFFFFFFF AND PUSH4 0xDB006A75 DUP3 PUSH1 0x40 MLOAD DUP3 PUSH4 0xFFFFFFFF AND PUSH1 0xE0 SHL DUP2 MSTORE PUSH1 0x4 ADD PUSH2 0x270C SWAP2 SWAP1 PUSH2 0x3926 JUMP JUMPDEST PUSH1 0x0 PUSH1 0x40 MLOAD DUP1 DUP4 SUB DUP2 PUSH1 0x0 DUP8 DUP1 EXTCODESIZE ISZERO DUP1 ISZERO PUSH2 0x2726 JUMPI PUSH1 0x0 DUP1 REVERT JUMPDEST POP GAS CALL ISZERO DUP1 ISZERO PUSH2 0x273A JUMPI RETURNDATASIZE PUSH1 0x0 DUP1 RETURNDATACOPY RETURNDATASIZE PUSH1 0x0 REVERT JUMPDEST POP POP POP POP POP JUMP JUMPDEST PUSH1 0x0 PUSH1 0x2 PUSH1 0x0 DUP5 DUP2 MSTORE PUSH1 0x20 ADD SWAP1 DUP2 MSTORE PUSH1 0x20 ADD PUSH1 0x0 KECCAK256 SWAP1 POP PUSH1 0x0 DUP2 PUSH1 0xA ADD DUP4 DUP2 SLOAD DUP2 LT PUSH2 0x2796 JUMPI PUSH32 0x4E487B7100000000000000000000000000000000000000000000000000000000 PUSH1 0x0 MSTORE PUSH1 0x32 PUSH1 0x4 MSTORE PUSH1 0x24 PUSH1 0x0 REVERT JUMPDEST SWAP1 PUSH1 0x0 MSTORE PUSH1 0x20 PUSH1 0x0 KECCAK256 SWAP1 PUSH1 0x4 MUL ADD SWAP1 POP PUSH2 0x27B3 DUP2 PUSH1 0x2 ADD SLOAD PUSH2 0x26B1 JUMP JUMPDEST DUP2 PUSH1 0x3 ADD PUSH1 0x0 SWAP1 SLOAD SWAP1 PUSH2 0x100 EXP SWAP1 DIV PUSH20 0xFFFFFFFFFFFFFFFFFFFFFFFFFFFFFFFFFFFFFFFF AND PUSH20 0xFFFFFFFFFFFFFFFFFFFFFFFFFFFFFFFFFFFFFFFF AND PUSH4 0x95EA7B3 DUP3 PUSH1 0x3 ADD PUSH1 0x0 SWAP1 SLOAD SWAP1 PUSH2 0x100 EXP SWAP1 DIV PUSH20 0xFFFFFFFFFFFFFFFFFFFFFFFFFFFFFFFFFFFFFFFF AND DUP4 PUSH1 0x2 ADD SLOAD PUSH1 0x40 MLOAD DUP4 PUSH4 0xFFFFFFFF AND PUSH1 0xE0 SHL DUP2 MSTORE PUSH1 0x4 ADD PUSH2 0x283A SWAP3 SWAP2 SWAP1 PUSH2 0x36B0 JUMP JUMPDEST PUSH1 0x20 PUSH1 0x40 MLOAD DUP1 DUP4 SUB DUP2 PUSH1 0x0 DUP8 DUP1 EXTCODESIZE ISZERO DUP1 ISZERO PUSH2 0x2854 JUMPI PUSH1 0x0 DUP1 REVERT JUMPDEST POP GAS CALL ISZERO DUP1 ISZERO PUSH2 0x2868 JUMPI RETURNDATASIZE PUSH1 0x0 DUP1 RETURNDATACOPY RETURNDATASIZE PUSH1 0x0 REVERT JUMPDEST POP POP POP POP PUSH1 0x40 MLOAD RETURNDATASIZE PUSH1 0x1F NOT PUSH1 0x1F DUP3 ADD AND DUP3 ADD DUP1 PUSH1 0x40 MSTORE POP DUP2 ADD SWAP1 PUSH2 0x288C SWAP2 SWAP1 PUSH2 0x2FF7 JUMP JUMPDEST POP DUP2 PUSH1 0x3 ADD PUSH1 0x0 SWAP1 SLOAD SWAP1 PUSH2 0x100 EXP SWAP1 DIV PUSH20 0xFFFFFFFFFFFFFFFFFFFFFFFFFFFFFFFFFFFFFFFF AND PUSH20 0xFFFFFFFFFFFFFFFFFFFFFFFFFFFFFFFFFFFFFFFF AND PUSH4 0xA9059CBB DUP3 PUSH1 0x3 ADD PUSH1 0x0 SWAP1 SLOAD SWAP1 PUSH2 0x100 EXP SWAP1 DIV PUSH20 0xFFFFFFFFFFFFFFFFFFFFFFFFFFFFFFFFFFFFFFFF AND DUP4 PUSH1 0x2 ADD SLOAD PUSH1 0x40 MLOAD DUP4 PUSH4 0xFFFFFFFF AND PUSH1 0xE0 SHL DUP2 MSTORE PUSH1 0x4 ADD PUSH2 0x2914 SWAP3 SWAP2 SWAP1 PUSH2 0x36B0 JUMP JUMPDEST PUSH1 0x20 PUSH1 0x40 MLOAD DUP1 DUP4 SUB DUP2 PUSH1 0x0 DUP8 DUP1 EXTCODESIZE ISZERO DUP1 ISZERO PUSH2 0x292E JUMPI PUSH1 0x0 DUP1 REVERT JUMPDEST POP GAS CALL ISZERO DUP1 ISZERO PUSH2 0x2942 JUMPI RETURNDATASIZE PUSH1 0x0 DUP1 RETURNDATACOPY RETURNDATASIZE PUSH1 0x0 REVERT JUMPDEST POP POP POP POP PUSH1 0x40 MLOAD RETURNDATASIZE PUSH1 0x1F NOT PUSH1 0x1F DUP3 ADD AND DUP3 ADD DUP1 PUSH1 0x40 MSTORE POP DUP2 ADD SWAP1 PUSH2 0x2966 SWAP2 SWAP1 PUSH2 0x2FF7 JUMP JUMPDEST POP DUP1 PUSH1 0x2 ADD SLOAD DUP3 PUSH1 0x2 ADD PUSH1 0x0 DUP4 PUSH1 0x3 ADD PUSH1 0x0 SWAP1 SLOAD SWAP1 PUSH2 0x100 EXP SWAP1 DIV PUSH20 0xFFFFFFFFFFFFFFFFFFFFFFFFFFFFFFFFFFFFFFFF AND PUSH20 0xFFFFFFFFFFFFFFFFFFFFFFFFFFFFFFFFFFFFFFFF AND PUSH20 0xFFFFFFFFFFFFFFFFFFFFFFFFFFFFFFFFFFFFFFFF AND DUP2 MSTORE PUSH1 0x20 ADD SWAP1 DUP2 MSTORE PUSH1 0x20 ADD PUSH1 0x0 KECCAK256 PUSH1 0x0 ADD PUSH1 0x0 DUP3 DUP3 SLOAD PUSH2 0x29E3 SWAP2 SWAP1 PUSH2 0x3B57 JUMP JUMPDEST SWAP3 POP POP DUP2 SWAP1 SSTORE POP PUSH2 0x29F4 DUP5 DUP5 PUSH2 0x29FA JUMP JUMPDEST POP POP POP POP JUMP JUMPDEST PUSH1 0x0 PUSH1 0x2 PUSH1 0x0 DUP5 DUP2 MSTORE PUSH1 0x20 ADD SWAP1 DUP2 MSTORE PUSH1 0x20 ADD PUSH1 0x0 KECCAK256 SWAP1 POP DUP1 PUSH1 0xA ADD PUSH1 0x1 DUP3 PUSH1 0xA ADD DUP1 SLOAD SWAP1 POP PUSH2 0x2A29 SWAP2 SWAP1 PUSH2 0x3B57 JUMP JUMPDEST DUP2 SLOAD DUP2 LT PUSH2 0x2A60 JUMPI PUSH32 0x4E487B7100000000000000000000000000000000000000000000000000000000 PUSH1 0x0 MSTORE PUSH1 0x32 PUSH1 0x4 MSTORE PUSH1 0x24 PUSH1 0x0 REVERT JUMPDEST SWAP1 PUSH1 0x0 MSTORE PUSH1 0x20 PUSH1 0x0 KECCAK256 SWAP1 PUSH1 0x4 MUL ADD DUP2 PUSH1 0xA ADD DUP4 DUP2 SLOAD DUP2 LT PUSH2 0x2AAA JUMPI PUSH32 0x4E487B7100000000000000000000000000000000000000000000000000000000 PUSH1 0x0 MSTORE PUSH1 0x32 PUSH1 0x4 MSTORE PUSH1 0x24 PUSH1 0x0 REVERT JUMPDEST SWAP1 PUSH1 0x0 MSTORE PUSH1 0x20 PUSH1 0x0 KECCAK256 SWAP1 PUSH1 0x4 MUL ADD PUSH1 0x0 DUP3 ADD SLOAD DUP2 PUSH1 0x0 ADD SSTORE PUSH1 0x1 DUP3 ADD SLOAD DUP2 PUSH1 0x1 ADD SSTORE PUSH1 0x2 DUP3 ADD SLOAD DUP2 PUSH1 0x2 ADD SSTORE PUSH1 0x3 DUP3 ADD PUSH1 0x0 SWAP1 SLOAD SWAP1 PUSH2 0x100 EXP SWAP1 DIV PUSH20 0xFFFFFFFFFFFFFFFFFFFFFFFFFFFFFFFFFFFFFFFF AND DUP2 PUSH1 0x3 ADD PUSH1 0x0 PUSH2 0x100 EXP DUP2 SLOAD DUP2 PUSH20 0xFFFFFFFFFFFFFFFFFFFFFFFFFFFFFFFFFFFFFFFF MUL NOT AND SWAP1 DUP4 PUSH20 0xFFFFFFFFFFFFFFFFFFFFFFFFFFFFFFFFFFFFFFFF AND MUL OR SWAP1 SSTORE POP SWAP1 POP POP DUP1 PUSH1 0xA ADD PUSH1 0x1 DUP3 PUSH1 0xA ADD DUP1 SLOAD SWAP1 POP PUSH2 0x2B58 SWAP2 SWAP1 PUSH2 0x3B57 JUMP JUMPDEST DUP2 SLOAD DUP2 LT PUSH2 0x2B8F JUMPI PUSH32 0x4E487B7100000000000000000000000000000000000000000000000000000000 PUSH1 0x0 MSTORE PUSH1 0x32 PUSH1 0x4 MSTORE PUSH1 0x24 PUSH1 0x0 REVERT JUMPDEST SWAP1 PUSH1 0x0 MSTORE PUSH1 0x20 PUSH1 0x0 KECCAK256 SWAP1 PUSH1 0x4 MUL ADD PUSH1 0x0 DUP1 DUP3 ADD PUSH1 0x0 SWAP1 SSTORE PUSH1 0x1 DUP3 ADD PUSH1 0x0 SWAP1 SSTORE PUSH1 0x2 DUP3 ADD PUSH1 0x0 SWAP1 SSTORE PUSH1 0x3 DUP3 ADD PUSH1 0x0 PUSH2 0x100 EXP DUP2 SLOAD SWAP1 PUSH20 0xFFFFFFFFFFFFFFFFFFFFFFFFFFFFFFFFFFFFFFFF MUL NOT AND SWAP1 SSTORE POP POP POP POP POP JUMP JUMPDEST PUSH1 0x0 DUP1 PUSH1 0x0 SWAP1 SLOAD SWAP1 PUSH2 0x100 EXP SWAP1 DIV PUSH20 0xFFFFFFFFFFFFFFFFFFFFFFFFFFFFFFFFFFFFFFFF AND PUSH20 0xFFFFFFFFFFFFFFFFFFFFFFFFFFFFFFFFFFFFFFFF AND PUSH4 0x261BF8B PUSH1 0x40 MLOAD DUP2 PUSH4 0xFFFFFFFF AND PUSH1 0xE0 SHL DUP2 MSTORE PUSH1 0x4 ADD PUSH1 0x20 PUSH1 0x40 MLOAD DUP1 DUP4 SUB DUP2 DUP7 DUP1 EXTCODESIZE ISZERO DUP1 ISZERO PUSH2 0x2C4D JUMPI PUSH1 0x0 DUP1 REVERT JUMPDEST POP GAS STATICCALL ISZERO DUP1 ISZERO PUSH2 0x2C61 JUMPI RETURNDATASIZE PUSH1 0x0 DUP1 RETURNDATACOPY RETURNDATASIZE PUSH1 0x0 REVERT JUMPDEST POP POP POP POP PUSH1 0x40 MLOAD RETURNDATASIZE PUSH1 0x1F NOT PUSH1 0x1F DUP3 ADD AND DUP3 ADD DUP1 PUSH1 0x40 MSTORE POP DUP2 ADD SWAP1 PUSH2 0x2C85 SWAP2 SWAP1 PUSH2 0x2FA5 JUMP JUMPDEST SWAP1 POP SWAP1 JUMP JUMPDEST PUSH1 0x0 DUP1 PUSH1 0x0 SWAP1 SLOAD SWAP1 PUSH2 0x100 EXP SWAP1 DIV PUSH20 0xFFFFFFFFFFFFFFFFFFFFFFFFFFFFFFFFFFFFFFFF AND PUSH20 0xFFFFFFFFFFFFFFFFFFFFFFFFFFFFFFFFFFFFFFFF AND PUSH4 0xED6FF760 PUSH1 0x40 MLOAD DUP2 PUSH4 0xFFFFFFFF AND PUSH1 0xE0 SHL DUP2 MSTORE PUSH1 0x4 ADD PUSH1 0x20 PUSH1 0x40 MLOAD DUP1 DUP4 SUB DUP2 DUP7 DUP1 EXTCODESIZE ISZERO DUP1 ISZERO PUSH2 0x2CF3 JUMPI PUSH1 0x0 DUP1 REVERT JUMPDEST POP GAS STATICCALL ISZERO DUP1 ISZERO PUSH2 0x2D07 JUMPI RETURNDATASIZE PUSH1 0x0 DUP1 RETURNDATACOPY RETURNDATASIZE PUSH1 0x0 REVERT JUMPDEST POP POP POP POP PUSH1 0x40 MLOAD RETURNDATASIZE PUSH1 0x1F NOT PUSH1 0x1F DUP3 ADD AND DUP3 ADD DUP1 PUSH1 0x40 MSTORE POP DUP2 ADD SWAP1 PUSH2 0x2D2B SWAP2 SWAP1 PUSH2 0x2FCE JUMP JUMPDEST SWAP1 POP SWAP1 JUMP JUMPDEST PUSH1 0x40 MLOAD DUP1 PUSH1 0x80 ADD PUSH1 0x40 MSTORE DUP1 PUSH1 0x0 DUP2 MSTORE PUSH1 0x20 ADD PUSH1 0x0 DUP2 MSTORE PUSH1 0x20 ADD PUSH1 0x0 DUP2 MSTORE PUSH1 0x20 ADD PUSH1 0x0 PUSH20 0xFFFFFFFFFFFFFFFFFFFFFFFFFFFFFFFFFFFFFFFF AND DUP2 MSTORE POP SWAP1 JUMP JUMPDEST DUP3 DUP1 SLOAD DUP3 DUP3 SSTORE SWAP1 PUSH1 0x0 MSTORE PUSH1 0x20 PUSH1 0x0 KECCAK256 SWAP1 DUP2 ADD SWAP3 DUP3 ISZERO PUSH2 0x2DFD JUMPI SWAP2 PUSH1 0x20 MUL DUP3 ADD JUMPDEST DUP3 DUP2 GT ISZERO PUSH2 0x2DFC JUMPI DUP3 CALLDATALOAD PUSH20 0xFFFFFFFFFFFFFFFFFFFFFFFFFFFFFFFFFFFFFFFF AND DUP3 PUSH1 0x0 PUSH2 0x100 EXP DUP2 SLOAD DUP2 PUSH20 0xFFFFFFFFFFFFFFFFFFFFFFFFFFFFFFFFFFFFFFFF MUL NOT AND SWAP1 DUP4 PUSH20 0xFFFFFFFFFFFFFFFFFFFFFFFFFFFFFFFFFFFFFFFF AND MUL OR SWAP1 SSTORE POP SWAP2 PUSH1 0x20 ADD SWAP2 SWAP1 PUSH1 0x1 ADD SWAP1 PUSH2 0x2D8E JUMP JUMPDEST JUMPDEST POP SWAP1 POP PUSH2 0x2E0A SWAP2 SWAP1 PUSH2 0x2E0E JUMP JUMPDEST POP SWAP1 JUMP JUMPDEST JUMPDEST DUP1 DUP3 GT ISZERO PUSH2 0x2E27 JUMPI PUSH1 0x0 DUP2 PUSH1 0x0 SWAP1 SSTORE POP PUSH1 0x1 ADD PUSH2 0x2E0F JUMP JUMPDEST POP SWAP1 JUMP JUMPDEST PUSH1 0x0 DUP2 CALLDATALOAD SWAP1 POP PUSH2 0x2E3A DUP2 PUSH2 0x3ECE JUMP JUMPDEST SWAP3 SWAP2 POP POP JUMP JUMPDEST PUSH1 0x0 DUP2 MLOAD SWAP1 POP PUSH2 0x2E4F DUP2 PUSH2 0x3ECE JUMP JUMPDEST SWAP3 SWAP2 POP POP JUMP JUMPDEST PUSH1 0x0 DUP2 MLOAD SWAP1 POP PUSH2 0x2E64 DUP2 PUSH2 0x3EE5 JUMP JUMPDEST SWAP3 SWAP2 POP POP JUMP JUMPDEST PUSH1 0x0 DUP1 DUP4 PUSH1 0x1F DUP5 ADD SLT PUSH2 0x2E7C JUMPI PUSH1 0x0 DUP1 REVERT JUMPDEST DUP3 CALLDATALOAD SWAP1 POP PUSH8 0xFFFFFFFFFFFFFFFF DUP2 GT ISZERO PUSH2 0x2E95 JUMPI PUSH1 0x0 DUP1 REVERT JUMPDEST PUSH1 0x20 DUP4 ADD SWAP2 POP DUP4 PUSH1 0x20 DUP3 MUL DUP4 ADD GT ISZERO PUSH2 0x2EAD JUMPI PUSH1 0x0 DUP1 REVERT JUMPDEST SWAP3 POP SWAP3 SWAP1 POP JUMP JUMPDEST PUSH1 0x0 DUP2 CALLDATALOAD SWAP1 POP PUSH2 0x2EC3 DUP2 PUSH2 0x3EFC JUMP JUMPDEST SWAP3 SWAP2 POP POP JUMP JUMPDEST PUSH1 0x0 DUP2 MLOAD SWAP1 POP PUSH2 0x2ED8 DUP2 PUSH2 0x3EFC JUMP JUMPDEST SWAP3 SWAP2 POP POP JUMP JUMPDEST PUSH1 0x0 DUP2 CALLDATALOAD SWAP1 POP PUSH2 0x2EED DUP2 PUSH2 0x3F13 JUMP JUMPDEST SWAP3 SWAP2 POP POP JUMP JUMPDEST PUSH1 0x0 DUP2 CALLDATALOAD SWAP1 POP PUSH2 0x2F02 DUP2 PUSH2 0x3F2A JUMP JUMPDEST SWAP3 SWAP2 POP POP JUMP JUMPDEST PUSH1 0x0 DUP1 DUP4 PUSH1 0x1F DUP5 ADD SLT PUSH2 0x2F1A JUMPI PUSH1 0x0 DUP1 REVERT JUMPDEST DUP3 CALLDATALOAD SWAP1 POP PUSH8 0xFFFFFFFFFFFFFFFF DUP2 GT ISZERO PUSH2 0x2F33 JUMPI PUSH1 0x0 DUP1 REVERT JUMPDEST PUSH1 0x20 DUP4 ADD SWAP2 POP DUP4 PUSH1 0x1 DUP3 MUL DUP4 ADD GT ISZERO PUSH2 0x2F4B JUMPI PUSH1 0x0 DUP1 REVERT JUMPDEST SWAP3 POP SWAP3 SWAP1 POP JUMP JUMPDEST PUSH1 0x0 DUP2 CALLDATALOAD SWAP1 POP PUSH2 0x2F61 DUP2 PUSH2 0x3F3A JUMP JUMPDEST SWAP3 SWAP2 POP POP JUMP JUMPDEST PUSH1 0x0 DUP2 MLOAD SWAP1 POP PUSH2 0x2F76 DUP2 PUSH2 0x3F3A JUMP JUMPDEST SWAP3 SWAP2 POP POP JUMP JUMPDEST PUSH1 0x0 PUSH1 0x20 DUP3 DUP5 SUB SLT ISZERO PUSH2 0x2F8E JUMPI PUSH1 0x0 DUP1 REVERT JUMPDEST PUSH1 0x0 PUSH2 0x2F9C DUP5 DUP3 DUP6 ADD PUSH2 0x2E2B JUMP JUMPDEST SWAP2 POP POP SWAP3 SWAP2 POP POP JUMP JUMPDEST PUSH1 0x0 PUSH1 0x20 DUP3 DUP5 SUB SLT ISZERO PUSH2 0x2FB7 JUMPI PUSH1 0x0 DUP1 REVERT JUMPDEST PUSH1 0x0 PUSH2 0x2FC5 DUP5 DUP3 DUP6 ADD PUSH2 0x2E40 JUMP JUMPDEST SWAP2 POP POP SWAP3 SWAP2 POP POP JUMP JUMPDEST PUSH1 0x0 PUSH1 0x20 DUP3 DUP5 SUB SLT ISZERO PUSH2 0x2FE0 JUMPI PUSH1 0x0 DUP1 REVERT JUMPDEST PUSH1 0x0 PUSH2 0x2FEE DUP5 DUP3 DUP6 ADD PUSH2 0x2E55 JUMP JUMPDEST SWAP2 POP POP SWAP3 SWAP2 POP POP JUMP JUMPDEST PUSH1 0x0 PUSH1 0x20 DUP3 DUP5 SUB SLT ISZERO PUSH2 0x3009 JUMPI PUSH1 0x0 DUP1 REVERT JUMPDEST PUSH1 0x0 PUSH2 0x3017 DUP5 DUP3 DUP6 ADD PUSH2 0x2EC9 JUMP JUMPDEST SWAP2 POP POP SWAP3 SWAP2 POP POP JUMP JUMPDEST PUSH1 0x0 PUSH1 0x20 DUP3 DUP5 SUB SLT ISZERO PUSH2 0x3032 JUMPI PUSH1 0x0 DUP1 REVERT JUMPDEST PUSH1 0x0 PUSH2 0x3040 DUP5 DUP3 DUP6 ADD PUSH2 0x2EDE JUMP JUMPDEST SWAP2 POP POP SWAP3 SWAP2 POP POP JUMP JUMPDEST PUSH1 0x0 DUP1 PUSH1 0x0 PUSH1 0x60 DUP5 DUP7 SUB SLT ISZERO PUSH2 0x305E JUMPI PUSH1 0x0 DUP1 REVERT JUMPDEST PUSH1 0x0 PUSH2 0x306C DUP7 DUP3 DUP8 ADD PUSH2 0x2EDE JUMP JUMPDEST SWAP4 POP POP PUSH1 0x20 PUSH2 0x307D DUP7 DUP3 DUP8 ADD PUSH2 0x2E2B JUMP JUMPDEST SWAP3 POP POP PUSH1 0x40 PUSH2 0x308E DUP7 DUP3 DUP8 ADD PUSH2 0x2F52 JUMP JUMPDEST SWAP2 POP POP SWAP3 POP SWAP3 POP SWAP3 JUMP JUMPDEST PUSH1 0x0 DUP1 PUSH1 0x40 DUP4 DUP6 SUB SLT ISZERO PUSH2 0x30AB JUMPI PUSH1 0x0 DUP1 REVERT JUMPDEST PUSH1 0x0 PUSH2 0x30B9 DUP6 DUP3 DUP7 ADD PUSH2 0x2EDE JUMP JUMPDEST SWAP3 POP POP PUSH1 0x20 PUSH2 0x30CA DUP6 DUP3 DUP7 ADD PUSH2 0x2F52 JUMP JUMPDEST SWAP2 POP POP SWAP3 POP SWAP3 SWAP1 POP JUMP JUMPDEST PUSH1 0x0 DUP1 PUSH1 0x0 PUSH1 0x60 DUP5 DUP7 SUB SLT ISZERO PUSH2 0x30E9 JUMPI PUSH1 0x0 DUP1 REVERT JUMPDEST PUSH1 0x0 PUSH2 0x30F7 DUP7 DUP3 DUP8 ADD PUSH2 0x2EDE JUMP JUMPDEST SWAP4 POP POP PUSH1 0x20 PUSH2 0x3108 DUP7 DUP3 DUP8 ADD PUSH2 0x2F52 JUMP JUMPDEST SWAP3 POP POP PUSH1 0x40 PUSH2 0x3119 DUP7 DUP3 DUP8 ADD PUSH2 0x2EB4 JUMP JUMPDEST SWAP2 POP POP SWAP3 POP SWAP3 POP SWAP3 JUMP JUMPDEST PUSH1 0x0 DUP1 PUSH1 0x0 DUP1 PUSH1 0x0 DUP1 PUSH1 0x0 DUP1 PUSH1 0x0 PUSH1 0xE0 DUP11 DUP13 SUB SLT ISZERO PUSH2 0x3141 JUMPI PUSH1 0x0 DUP1 REVERT JUMPDEST PUSH1 0x0 DUP11 ADD CALLDATALOAD PUSH8 0xFFFFFFFFFFFFFFFF DUP2 GT ISZERO PUSH2 0x315B JUMPI PUSH1 0x0 DUP1 REVERT JUMPDEST PUSH2 0x3167 DUP13 DUP3 DUP14 ADD PUSH2 0x2F08 JUMP JUMPDEST SWAP10 POP SWAP10 POP POP PUSH1 0x20 DUP11 ADD CALLDATALOAD PUSH8 0xFFFFFFFFFFFFFFFF DUP2 GT ISZERO PUSH2 0x3186 JUMPI PUSH1 0x0 DUP1 REVERT JUMPDEST PUSH2 0x3192 DUP13 DUP3 DUP14 ADD PUSH2 0x2E6A JUMP JUMPDEST SWAP8 POP SWAP8 POP POP PUSH1 0x40 PUSH2 0x31A5 DUP13 DUP3 DUP14 ADD PUSH2 0x2E2B JUMP JUMPDEST SWAP6 POP POP PUSH1 0x60 PUSH2 0x31B6 DUP13 DUP3 DUP14 ADD PUSH2 0x2F52 JUMP JUMPDEST SWAP5 POP POP PUSH1 0x80 PUSH2 0x31C7 DUP13 DUP3 DUP14 ADD PUSH2 0x2EF3 JUMP JUMPDEST SWAP4 POP POP PUSH1 0xA0 PUSH2 0x31D8 DUP13 DUP3 DUP14 ADD PUSH2 0x2F52 JUMP JUMPDEST SWAP3 POP POP PUSH1 0xC0 PUSH2 0x31E9 DUP13 DUP3 DUP14 ADD PUSH2 0x2EB4 JUMP JUMPDEST SWAP2 POP POP SWAP3 SWAP6 SWAP9 POP SWAP3 SWAP6 SWAP9 POP SWAP3 SWAP6 SWAP9 JUMP JUMPDEST PUSH1 0x0 DUP1 PUSH1 0x0 DUP1 PUSH1 0x0 DUP1 PUSH1 0x0 DUP1 PUSH1 0x0 DUP1 PUSH2 0x140 DUP12 DUP14 SUB SLT ISZERO PUSH2 0x3219 JUMPI PUSH1 0x0 DUP1 REVERT JUMPDEST PUSH1 0x0 PUSH2 0x3227 DUP14 DUP3 DUP15 ADD PUSH2 0x2F67 JUMP JUMPDEST SWAP11 POP POP PUSH1 0x20 PUSH2 0x3238 DUP14 DUP3 DUP15 ADD PUSH2 0x2F67 JUMP JUMPDEST SWAP10 POP POP PUSH1 0x40 PUSH2 0x3249 DUP14 DUP3 DUP15 ADD PUSH2 0x2F67 JUMP JUMPDEST SWAP9 POP POP PUSH1 0x60 PUSH2 0x325A DUP14 DUP3 DUP15 ADD PUSH2 0x2F67 JUMP JUMPDEST SWAP8 POP POP PUSH1 0x80 PUSH2 0x326B DUP14 DUP3 DUP15 ADD PUSH2 0x2F67 JUMP JUMPDEST SWAP7 POP POP PUSH1 0xA0 PUSH2 0x327C DUP14 DUP3 DUP15 ADD PUSH2 0x2F67 JUMP JUMPDEST SWAP6 POP POP PUSH1 0xC0 PUSH2 0x328D DUP14 DUP3 DUP15 ADD PUSH2 0x2F67 JUMP JUMPDEST SWAP5 POP POP PUSH1 0xE0 PUSH2 0x329E DUP14 DUP3 DUP15 ADD PUSH2 0x2F67 JUMP JUMPDEST SWAP4 POP POP PUSH2 0x100 PUSH2 0x32B0 DUP14 DUP3 DUP15 ADD PUSH2 0x2F67 JUMP JUMPDEST SWAP3 POP POP PUSH2 0x120 PUSH2 0x32C2 DUP14 DUP3 DUP15 ADD PUSH2 0x2EC9 JUMP JUMPDEST SWAP2 POP POP SWAP3 SWAP6 SWAP9 SWAP12 SWAP2 SWAP5 SWAP8 SWAP11 POP SWAP3 SWAP6 SWAP9 POP JUMP JUMPDEST PUSH1 0x0 PUSH2 0x32E0 DUP4 DUP4 PUSH2 0x332B JUMP JUMPDEST PUSH1 0x20 DUP4 ADD SWAP1 POP SWAP3 SWAP2 POP POP JUMP JUMPDEST PUSH1 0x0 PUSH2 0x32F8 DUP4 DUP4 PUSH2 0x3463 JUMP JUMPDEST PUSH1 0x20 DUP4 ADD SWAP1 POP SWAP3 SWAP2 POP POP JUMP JUMPDEST PUSH1 0x0 PUSH2 0x3310 DUP4 DUP4 PUSH2 0x35B9 JUMP JUMPDEST PUSH1 0x20 DUP4 ADD SWAP1 POP SWAP3 SWAP2 POP POP JUMP JUMPDEST PUSH2 0x3325 DUP2 PUSH2 0x3C10 JUMP JUMPDEST DUP3 MSTORE POP POP JUMP JUMPDEST PUSH2 0x3334 DUP2 PUSH2 0x3B8B JUMP JUMPDEST DUP3 MSTORE POP POP JUMP JUMPDEST PUSH2 0x3343 DUP2 PUSH2 0x3B8B JUMP JUMPDEST DUP3 MSTORE POP POP JUMP JUMPDEST PUSH1 0x0 PUSH2 0x3354 DUP3 PUSH2 0x39DF JUMP JUMPDEST PUSH2 0x335E DUP2 DUP6 PUSH2 0x3A27 JUMP JUMPDEST SWAP4 POP PUSH2 0x3369 DUP4 PUSH2 0x39AF JUMP JUMPDEST DUP1 PUSH1 0x0 JUMPDEST DUP4 DUP2 LT ISZERO PUSH2 0x339A JUMPI DUP2 MLOAD PUSH2 0x3381 DUP9 DUP3 PUSH2 0x32D4 JUMP JUMPDEST SWAP8 POP PUSH2 0x338C DUP4 PUSH2 0x3A00 JUMP JUMPDEST SWAP3 POP POP PUSH1 0x1 DUP2 ADD SWAP1 POP PUSH2 0x336D JUMP JUMPDEST POP DUP6 SWAP4 POP POP POP POP SWAP3 SWAP2 POP POP JUMP JUMPDEST PUSH1 0x0 PUSH2 0x33B2 DUP3 PUSH2 0x39EA JUMP JUMPDEST PUSH2 0x33BC DUP2 DUP6 PUSH2 0x3A38 JUMP JUMPDEST SWAP4 POP PUSH2 0x33C7 DUP4 PUSH2 0x39BF JUMP JUMPDEST DUP1 PUSH1 0x0 JUMPDEST DUP4 DUP2 LT ISZERO PUSH2 0x33F8 JUMPI DUP2 MLOAD PUSH2 0x33DF DUP9 DUP3 PUSH2 0x32EC JUMP JUMPDEST SWAP8 POP PUSH2 0x33EA DUP4 PUSH2 0x3A0D JUMP JUMPDEST SWAP3 POP POP PUSH1 0x1 DUP2 ADD SWAP1 POP PUSH2 0x33CB JUMP JUMPDEST POP DUP6 SWAP4 POP POP POP POP SWAP3 SWAP2 POP POP JUMP JUMPDEST PUSH1 0x0 PUSH2 0x3410 DUP3 PUSH2 0x39F5 JUMP JUMPDEST PUSH2 0x341A DUP2 DUP6 PUSH2 0x3A49 JUMP JUMPDEST SWAP4 POP PUSH2 0x3425 DUP4 PUSH2 0x39CF JUMP JUMPDEST DUP1 PUSH1 0x0 JUMPDEST DUP4 DUP2 LT ISZERO PUSH2 0x3456 JUMPI DUP2 MLOAD PUSH2 0x343D DUP9 DUP3 PUSH2 0x3304 JUMP JUMPDEST SWAP8 POP PUSH2 0x3448 DUP4 PUSH2 0x3A1A JUMP JUMPDEST SWAP3 POP POP PUSH1 0x1 DUP2 ADD SWAP1 POP PUSH2 0x3429 JUMP JUMPDEST POP DUP6 SWAP4 POP POP POP POP SWAP3 SWAP2 POP POP JUMP JUMPDEST PUSH2 0x346C DUP2 PUSH2 0x3BBB JUMP JUMPDEST DUP3 MSTORE POP POP JUMP JUMPDEST PUSH2 0x347B DUP2 PUSH2 0x3BBB JUMP JUMPDEST DUP3 MSTORE POP POP JUMP JUMPDEST PUSH2 0x348A DUP2 PUSH2 0x3C22 JUMP JUMPDEST DUP3 MSTORE POP POP JUMP JUMPDEST PUSH2 0x3499 DUP2 PUSH2 0x3C34 JUMP JUMPDEST DUP3 MSTORE POP POP JUMP JUMPDEST PUSH1 0x0 PUSH2 0x34AB DUP4 DUP6 PUSH2 0x3A6B JUMP JUMPDEST SWAP4 POP PUSH2 0x34B8 DUP4 DUP6 DUP5 PUSH2 0x3C6A JUMP JUMPDEST DUP3 DUP5 ADD SWAP1 POP SWAP4 SWAP3 POP POP POP JUMP JUMPDEST PUSH1 0x0 PUSH2 0x34D1 PUSH1 0x10 DUP4 PUSH2 0x3A5A JUMP JUMPDEST SWAP2 POP PUSH2 0x34DC DUP3 PUSH2 0x3D4F JUMP JUMPDEST PUSH1 0x20 DUP3 ADD SWAP1 POP SWAP2 SWAP1 POP JUMP JUMPDEST PUSH1 0x0 PUSH2 0x34F4 PUSH1 0x30 DUP4 PUSH2 0x3A5A JUMP JUMPDEST SWAP2 POP PUSH2 0x34FF DUP3 PUSH2 0x3D78 JUMP JUMPDEST PUSH1 0x40 DUP3 ADD SWAP1 POP SWAP2 SWAP1 POP JUMP JUMPDEST PUSH1 0x0 PUSH2 0x3517 PUSH1 0x23 DUP4 PUSH2 0x3A5A JUMP JUMPDEST SWAP2 POP PUSH2 0x3522 DUP3 PUSH2 0x3DC7 JUMP JUMPDEST PUSH1 0x40 DUP3 ADD SWAP1 POP SWAP2 SWAP1 POP JUMP JUMPDEST PUSH1 0x0 PUSH2 0x353A PUSH1 0x1B DUP4 PUSH2 0x3A5A JUMP JUMPDEST SWAP2 POP PUSH2 0x3545 DUP3 PUSH2 0x3E16 JUMP JUMPDEST PUSH1 0x20 DUP3 ADD SWAP1 POP SWAP2 SWAP1 POP JUMP JUMPDEST PUSH1 0x0 PUSH2 0x355D PUSH1 0xC DUP4 PUSH2 0x3A5A JUMP JUMPDEST SWAP2 POP PUSH2 0x3568 DUP3 PUSH2 0x3E3F JUMP JUMPDEST PUSH1 0x20 DUP3 ADD SWAP1 POP SWAP2 SWAP1 POP JUMP JUMPDEST PUSH1 0x0 PUSH2 0x3580 PUSH1 0x19 DUP4 PUSH2 0x3A5A JUMP JUMPDEST SWAP2 POP PUSH2 0x358B DUP3 PUSH2 0x3E68 JUMP JUMPDEST PUSH1 0x20 DUP3 ADD SWAP1 POP SWAP2 SWAP1 POP JUMP JUMPDEST PUSH1 0x0 PUSH2 0x35A3 PUSH1 0x14 DUP4 PUSH2 0x3A5A JUMP JUMPDEST SWAP2 POP PUSH2 0x35AE DUP3 PUSH2 0x3E91 JUMP JUMPDEST PUSH1 0x20 DUP3 ADD SWAP1 POP SWAP2 SWAP1 POP JUMP JUMPDEST PUSH2 0x35C2 DUP2 PUSH2 0x3C06 JUMP JUMPDEST DUP3 MSTORE POP POP JUMP JUMPDEST PUSH2 0x35D1 DUP2 PUSH2 0x3C06 JUMP JUMPDEST DUP3 MSTORE POP POP JUMP JUMPDEST PUSH1 0x0 PUSH2 0x35E4 DUP3 DUP5 DUP7 PUSH2 0x349F JUMP JUMPDEST SWAP2 POP DUP2 SWAP1 POP SWAP4 SWAP3 POP POP POP JUMP JUMPDEST PUSH1 0x0 PUSH1 0x40 DUP3 ADD SWAP1 POP PUSH2 0x3605 PUSH1 0x0 DUP4 ADD DUP6 PUSH2 0x331C JUMP JUMPDEST PUSH2 0x3612 PUSH1 0x20 DUP4 ADD DUP5 PUSH2 0x35C8 JUMP JUMPDEST SWAP4 SWAP3 POP POP POP JUMP JUMPDEST PUSH1 0x0 PUSH1 0x40 DUP3 ADD SWAP1 POP PUSH2 0x362E PUSH1 0x0 DUP4 ADD DUP6 PUSH2 0x333A JUMP JUMPDEST PUSH2 0x363B PUSH1 0x20 DUP4 ADD DUP5 PUSH2 0x333A JUMP JUMPDEST SWAP4 SWAP3 POP POP POP JUMP JUMPDEST PUSH1 0x0 PUSH1 0x60 DUP3 ADD SWAP1 POP PUSH2 0x3657 PUSH1 0x0 DUP4 ADD DUP7 PUSH2 0x333A JUMP JUMPDEST PUSH2 0x3664 PUSH1 0x20 DUP4 ADD DUP6 PUSH2 0x333A JUMP JUMPDEST PUSH2 0x3671 PUSH1 0x40 DUP4 ADD DUP5 PUSH2 0x35C8 JUMP JUMPDEST SWAP5 SWAP4 POP POP POP POP JUMP JUMPDEST PUSH1 0x0 PUSH1 0x60 DUP3 ADD SWAP1 POP PUSH2 0x368E PUSH1 0x0 DUP4 ADD DUP7 PUSH2 0x333A JUMP JUMPDEST PUSH2 0x369B PUSH1 0x20 DUP4 ADD DUP6 PUSH2 0x3472 JUMP JUMPDEST PUSH2 0x36A8 PUSH1 0x40 DUP4 ADD DUP5 PUSH2 0x35C8 JUMP JUMPDEST SWAP5 SWAP4 POP POP POP POP JUMP JUMPDEST PUSH1 0x0 PUSH1 0x40 DUP3 ADD SWAP1 POP PUSH2 0x36C5 PUSH1 0x0 DUP4 ADD DUP6 PUSH2 0x333A JUMP JUMPDEST PUSH2 0x36D2 PUSH1 0x20 DUP4 ADD DUP5 PUSH2 0x35C8 JUMP JUMPDEST SWAP4 SWAP3 POP POP POP JUMP JUMPDEST PUSH1 0x0 PUSH1 0x60 DUP3 ADD SWAP1 POP PUSH2 0x36EE PUSH1 0x0 DUP4 ADD DUP7 PUSH2 0x333A JUMP JUMPDEST PUSH2 0x36FB PUSH1 0x20 DUP4 ADD DUP6 PUSH2 0x35C8 JUMP JUMPDEST PUSH2 0x3708 PUSH1 0x40 DUP4 ADD DUP5 PUSH2 0x3490 JUMP JUMPDEST SWAP5 SWAP4 POP POP POP POP JUMP JUMPDEST PUSH1 0x0 PUSH1 0x20 DUP3 ADD SWAP1 POP DUP2 DUP2 SUB PUSH1 0x0 DUP4 ADD MSTORE PUSH2 0x372A DUP2 DUP5 PUSH2 0x3349 JUMP JUMPDEST SWAP1 POP SWAP3 SWAP2 POP POP JUMP JUMPDEST PUSH1 0x0 PUSH1 0xA0 DUP3 ADD SWAP1 POP DUP2 DUP2 SUB PUSH1 0x0 DUP4 ADD MSTORE PUSH2 0x374C DUP2 DUP9 PUSH2 0x3349 JUMP JUMPDEST SWAP1 POP PUSH2 0x375B PUSH1 0x20 DUP4 ADD DUP8 PUSH2 0x333A JUMP JUMPDEST PUSH2 0x3768 PUSH1 0x40 DUP4 ADD DUP7 PUSH2 0x35C8 JUMP JUMPDEST PUSH2 0x3775 PUSH1 0x60 DUP4 ADD DUP6 PUSH2 0x35C8 JUMP JUMPDEST PUSH2 0x3782 PUSH1 0x80 DUP4 ADD DUP5 PUSH2 0x3481 JUMP JUMPDEST SWAP7 SWAP6 POP POP POP POP POP POP JUMP JUMPDEST PUSH1 0x0 PUSH1 0x40 DUP3 ADD SWAP1 POP DUP2 DUP2 SUB PUSH1 0x0 DUP4 ADD MSTORE PUSH2 0x37A6 DUP2 DUP6 PUSH2 0x3349 JUMP JUMPDEST SWAP1 POP DUP2 DUP2 SUB PUSH1 0x20 DUP4 ADD MSTORE PUSH2 0x37BA DUP2 DUP5 PUSH2 0x3405 JUMP JUMPDEST SWAP1 POP SWAP4 SWAP3 POP POP POP JUMP JUMPDEST PUSH1 0x0 PUSH1 0x20 DUP3 ADD SWAP1 POP DUP2 DUP2 SUB PUSH1 0x0 DUP4 ADD MSTORE PUSH2 0x37DD DUP2 DUP5 PUSH2 0x33A7 JUMP JUMPDEST SWAP1 POP SWAP3 SWAP2 POP POP JUMP JUMPDEST PUSH1 0x0 PUSH1 0x80 DUP3 ADD SWAP1 POP DUP2 DUP2 SUB PUSH1 0x0 DUP4 ADD MSTORE PUSH2 0x37FF DUP2 DUP8 PUSH2 0x3405 JUMP JUMPDEST SWAP1 POP DUP2 DUP2 SUB PUSH1 0x20 DUP4 ADD MSTORE PUSH2 0x3813 DUP2 DUP7 PUSH2 0x3405 JUMP JUMPDEST SWAP1 POP DUP2 DUP2 SUB PUSH1 0x40 DUP4 ADD MSTORE PUSH2 0x3827 DUP2 DUP6 PUSH2 0x3349 JUMP JUMPDEST SWAP1 POP DUP2 DUP2 SUB PUSH1 0x60 DUP4 ADD MSTORE PUSH2 0x383B DUP2 DUP5 PUSH2 0x3405 JUMP JUMPDEST SWAP1 POP SWAP6 SWAP5 POP POP POP POP POP JUMP JUMPDEST PUSH1 0x0 PUSH1 0x20 DUP3 ADD SWAP1 POP DUP2 DUP2 SUB PUSH1 0x0 DUP4 ADD MSTORE PUSH2 0x385F DUP2 PUSH2 0x34C4 JUMP JUMPDEST SWAP1 POP SWAP2 SWAP1 POP JUMP JUMPDEST PUSH1 0x0 PUSH1 0x20 DUP3 ADD SWAP1 POP DUP2 DUP2 SUB PUSH1 0x0 DUP4 ADD MSTORE PUSH2 0x387F DUP2 PUSH2 0x34E7 JUMP JUMPDEST SWAP1 POP SWAP2 SWAP1 POP JUMP JUMPDEST PUSH1 0x0 PUSH1 0x20 DUP3 ADD SWAP1 POP DUP2 DUP2 SUB PUSH1 0x0 DUP4 ADD MSTORE PUSH2 0x389F DUP2 PUSH2 0x350A JUMP JUMPDEST SWAP1 POP SWAP2 SWAP1 POP JUMP JUMPDEST PUSH1 0x0 PUSH1 0x20 DUP3 ADD SWAP1 POP DUP2 DUP2 SUB PUSH1 0x0 DUP4 ADD MSTORE PUSH2 0x38BF DUP2 PUSH2 0x352D JUMP JUMPDEST SWAP1 POP SWAP2 SWAP1 POP JUMP JUMPDEST PUSH1 0x0 PUSH1 0x20 DUP3 ADD SWAP1 POP DUP2 DUP2 SUB PUSH1 0x0 DUP4 ADD MSTORE PUSH2 0x38DF DUP2 PUSH2 0x3550 JUMP JUMPDEST SWAP1 POP SWAP2 SWAP1 POP JUMP JUMPDEST PUSH1 0x0 PUSH1 0x20 DUP3 ADD SWAP1 POP DUP2 DUP2 SUB PUSH1 0x0 DUP4 ADD MSTORE PUSH2 0x38FF DUP2 PUSH2 0x3573 JUMP JUMPDEST SWAP1 POP SWAP2 SWAP1 POP JUMP JUMPDEST PUSH1 0x0 PUSH1 0x20 DUP3 ADD SWAP1 POP DUP2 DUP2 SUB PUSH1 0x0 DUP4 ADD MSTORE PUSH2 0x391F DUP2 PUSH2 0x3596 JUMP JUMPDEST SWAP1 POP SWAP2 SWAP1 POP JUMP JUMPDEST PUSH1 0x0 PUSH1 0x20 DUP3 ADD SWAP1 POP PUSH2 0x393B PUSH1 0x0 DUP4 ADD DUP5 PUSH2 0x35C8 JUMP JUMPDEST SWAP3 SWAP2 POP POP JUMP JUMPDEST PUSH1 0x0 PUSH1 0x40 DUP3 ADD SWAP1 POP PUSH2 0x3956 PUSH1 0x0 DUP4 ADD DUP6 PUSH2 0x35C8 JUMP JUMPDEST PUSH2 0x3963 PUSH1 0x20 DUP4 ADD DUP5 PUSH2 0x35C8 JUMP JUMPDEST SWAP4 SWAP3 POP POP POP JUMP JUMPDEST PUSH1 0x0 PUSH1 0x80 DUP3 ADD SWAP1 POP PUSH2 0x397F PUSH1 0x0 DUP4 ADD DUP8 PUSH2 0x35C8 JUMP JUMPDEST PUSH2 0x398C PUSH1 0x20 DUP4 ADD DUP7 PUSH2 0x35C8 JUMP JUMPDEST PUSH2 0x3999 PUSH1 0x40 DUP4 ADD DUP6 PUSH2 0x333A JUMP JUMPDEST PUSH2 0x39A6 PUSH1 0x60 DUP4 ADD DUP5 PUSH2 0x35C8 JUMP JUMPDEST SWAP6 SWAP5 POP POP POP POP POP JUMP JUMPDEST PUSH1 0x0 DUP2 SWAP1 POP PUSH1 0x20 DUP3 ADD SWAP1 POP SWAP2 SWAP1 POP JUMP JUMPDEST PUSH1 0x0 DUP2 SWAP1 POP PUSH1 0x20 DUP3 ADD SWAP1 POP SWAP2 SWAP1 POP JUMP JUMPDEST PUSH1 0x0 DUP2 SWAP1 POP PUSH1 0x20 DUP3 ADD SWAP1 POP SWAP2 SWAP1 POP JUMP JUMPDEST PUSH1 0x0 DUP2 MLOAD SWAP1 POP SWAP2 SWAP1 POP JUMP JUMPDEST PUSH1 0x0 DUP2 MLOAD SWAP1 POP SWAP2 SWAP1 POP JUMP JUMPDEST PUSH1 0x0 DUP2 MLOAD SWAP1 POP SWAP2 SWAP1 POP JUMP JUMPDEST PUSH1 0x0 PUSH1 0x20 DUP3 ADD SWAP1 POP SWAP2 SWAP1 POP JUMP JUMPDEST PUSH1 0x0 PUSH1 0x20 DUP3 ADD SWAP1 POP SWAP2 SWAP1 POP JUMP JUMPDEST PUSH1 0x0 PUSH1 0x20 DUP3 ADD SWAP1 POP SWAP2 SWAP1 POP JUMP JUMPDEST PUSH1 0x0 DUP3 DUP3 MSTORE PUSH1 0x20 DUP3 ADD SWAP1 POP SWAP3 SWAP2 POP POP JUMP JUMPDEST PUSH1 0x0 DUP3 DUP3 MSTORE PUSH1 0x20 DUP3 ADD SWAP1 POP SWAP3 SWAP2 POP POP JUMP JUMPDEST PUSH1 0x0 DUP3 DUP3 MSTORE PUSH1 0x20 DUP3 ADD SWAP1 POP SWAP3 SWAP2 POP POP JUMP JUMPDEST PUSH1 0x0 DUP3 DUP3 MSTORE PUSH1 0x20 DUP3 ADD SWAP1 POP SWAP3 SWAP2 POP POP JUMP JUMPDEST PUSH1 0x0 DUP2 SWAP1 POP SWAP3 SWAP2 POP POP JUMP JUMPDEST PUSH1 0x0 PUSH2 0x3A81 DUP3 PUSH2 0x3C06 JUMP JUMPDEST SWAP2 POP PUSH2 0x3A8C DUP4 PUSH2 0x3C06 JUMP JUMPDEST SWAP3 POP DUP3 PUSH32 0xFFFFFFFFFFFFFFFFFFFFFFFFFFFFFFFFFFFFFFFFFFFFFFFFFFFFFFFFFFFFFFFF SUB DUP3 GT ISZERO PUSH2 0x3AC1 JUMPI PUSH2 0x3AC0 PUSH2 0x3CC2 JUMP JUMPDEST JUMPDEST DUP3 DUP3 ADD SWAP1 POP SWAP3 SWAP2 POP POP JUMP JUMPDEST PUSH1 0x0 PUSH2 0x3AD7 DUP3 PUSH2 0x3C06 JUMP JUMPDEST SWAP2 POP PUSH2 0x3AE2 DUP4 PUSH2 0x3C06 JUMP JUMPDEST SWAP3 POP DUP3 PUSH2 0x3AF2 JUMPI PUSH2 0x3AF1 PUSH2 0x3CF1 JUMP JUMPDEST JUMPDEST DUP3 DUP3 DIV SWAP1 POP SWAP3 SWAP2 POP POP JUMP JUMPDEST PUSH1 0x0 PUSH2 0x3B08 DUP3 PUSH2 0x3C06 JUMP JUMPDEST SWAP2 POP PUSH2 0x3B13 DUP4 PUSH2 0x3C06 JUMP JUMPDEST SWAP3 POP DUP2 PUSH32 0xFFFFFFFFFFFFFFFFFFFFFFFFFFFFFFFFFFFFFFFFFFFFFFFFFFFFFFFFFFFFFFFF DIV DUP4 GT DUP3 ISZERO ISZERO AND ISZERO PUSH2 0x3B4C JUMPI PUSH2 0x3B4B PUSH2 0x3CC2 JUMP JUMPDEST JUMPDEST DUP3 DUP3 MUL SWAP1 POP SWAP3 SWAP2 POP POP JUMP JUMPDEST PUSH1 0x0 PUSH2 0x3B62 DUP3 PUSH2 0x3C06 JUMP JUMPDEST SWAP2 POP PUSH2 0x3B6D DUP4 PUSH2 0x3C06 JUMP JUMPDEST SWAP3 POP DUP3 DUP3 LT ISZERO PUSH2 0x3B80 JUMPI PUSH2 0x3B7F PUSH2 0x3CC2 JUMP JUMPDEST JUMPDEST DUP3 DUP3 SUB SWAP1 POP SWAP3 SWAP2 POP POP JUMP JUMPDEST PUSH1 0x0 PUSH2 0x3B96 DUP3 PUSH2 0x3BE6 JUMP JUMPDEST SWAP1 POP SWAP2 SWAP1 POP JUMP JUMPDEST PUSH1 0x0 PUSH2 0x3BA8 DUP3 PUSH2 0x3BE6 JUMP JUMPDEST SWAP1 POP SWAP2 SWAP1 POP JUMP JUMPDEST PUSH1 0x0 DUP2 ISZERO ISZERO SWAP1 POP SWAP2 SWAP1 POP JUMP JUMPDEST PUSH1 0x0 DUP2 SWAP1 POP SWAP2 SWAP1 POP JUMP JUMPDEST PUSH1 0x0 DUP2 SWAP1 POP PUSH2 0x3BD3 DUP3 PUSH2 0x3EBA JUMP JUMPDEST SWAP2 SWAP1 POP JUMP JUMPDEST PUSH1 0x0 PUSH2 0xFFFF DUP3 AND SWAP1 POP SWAP2 SWAP1 POP JUMP JUMPDEST PUSH1 0x0 PUSH20 0xFFFFFFFFFFFFFFFFFFFFFFFFFFFFFFFFFFFFFFFF DUP3 AND SWAP1 POP SWAP2 SWAP1 POP JUMP JUMPDEST PUSH1 0x0 DUP2 SWAP1 POP SWAP2 SWAP1 POP JUMP JUMPDEST PUSH1 0x0 PUSH2 0x3C1B DUP3 PUSH2 0x3C46 JUMP JUMPDEST SWAP1 POP SWAP2 SWAP1 POP JUMP JUMPDEST PUSH1 0x0 PUSH2 0x3C2D DUP3 PUSH2 0x3BC5 JUMP JUMPDEST SWAP1 POP SWAP2 SWAP1 POP JUMP JUMPDEST PUSH1 0x0 PUSH2 0x3C3F DUP3 PUSH2 0x3BD8 JUMP JUMPDEST SWAP1 POP SWAP2 SWAP1 POP JUMP JUMPDEST PUSH1 0x0 PUSH2 0x3C51 DUP3 PUSH2 0x3C58 JUMP JUMPDEST SWAP1 POP SWAP2 SWAP1 POP JUMP JUMPDEST PUSH1 0x0 PUSH2 0x3C63 DUP3 PUSH2 0x3BE6 JUMP JUMPDEST SWAP1 POP SWAP2 SWAP1 POP JUMP JUMPDEST DUP3 DUP2 DUP4 CALLDATACOPY PUSH1 0x0 DUP4 DUP4 ADD MSTORE POP POP POP JUMP JUMPDEST PUSH1 0x0 PUSH2 0x3C84 DUP3 PUSH2 0x3C06 JUMP JUMPDEST SWAP2 POP PUSH32 0xFFFFFFFFFFFFFFFFFFFFFFFFFFFFFFFFFFFFFFFFFFFFFFFFFFFFFFFFFFFFFFFF DUP3 EQ ISZERO PUSH2 0x3CB7 JUMPI PUSH2 0x3CB6 PUSH2 0x3CC2 JUMP JUMPDEST JUMPDEST PUSH1 0x1 DUP3 ADD SWAP1 POP SWAP2 SWAP1 POP JUMP JUMPDEST PUSH32 0x4E487B7100000000000000000000000000000000000000000000000000000000 PUSH1 0x0 MSTORE PUSH1 0x11 PUSH1 0x4 MSTORE PUSH1 0x24 PUSH1 0x0 REVERT JUMPDEST PUSH32 0x4E487B7100000000000000000000000000000000000000000000000000000000 PUSH1 0x0 MSTORE PUSH1 0x12 PUSH1 0x4 MSTORE PUSH1 0x24 PUSH1 0x0 REVERT JUMPDEST PUSH32 0x4E487B7100000000000000000000000000000000000000000000000000000000 PUSH1 0x0 MSTORE PUSH1 0x21 PUSH1 0x4 MSTORE PUSH1 0x24 PUSH1 0x0 REVERT JUMPDEST PUSH32 0x496E636F727265637420746F6B656E2100000000000000000000000000000000 PUSH1 0x0 DUP3 ADD MSTORE POP JUMP JUMPDEST PUSH32 0x5265717565737420696E6465782065786365656473206E756D626572206F6620 PUSH1 0x0 DUP3 ADD MSTORE PUSH32 0x63757272656E7420726571756573747300000000000000000000000000000000 PUSH1 0x20 DUP3 ADD MSTORE POP JUMP JUMPDEST PUSH32 0x43616E6E6F74207769746864726177206D6F7265207468616E206465706F7369 PUSH1 0x0 DUP3 ADD MSTORE PUSH32 0x7465640000000000000000000000000000000000000000000000000000000000 PUSH1 0x20 DUP3 ADD MSTORE POP JUMP JUMPDEST PUSH32 0x417070726F76616C20666F72204C5020636F7265206661696C65640000000000 PUSH1 0x0 DUP3 ADD MSTORE POP JUMP JUMPDEST PUSH32 0x4E6F742061206D656D6265720000000000000000000000000000000000000000 PUSH1 0x0 DUP3 ADD MSTORE POP JUMP JUMPDEST PUSH32 0x5468657265206973207374696C6C2074696D65206C6566742100000000000000 PUSH1 0x0 DUP3 ADD MSTORE POP JUMP JUMPDEST PUSH32 0x4D75737420636F6E7461696E206D656D62657273000000000000000000000000 PUSH1 0x0 DUP3 ADD MSTORE POP JUMP JUMPDEST PUSH1 0x3 DUP2 LT PUSH2 0x3ECB JUMPI PUSH2 0x3ECA PUSH2 0x3D20 JUMP JUMPDEST JUMPDEST POP JUMP JUMPDEST PUSH2 0x3ED7 DUP2 PUSH2 0x3B8B JUMP JUMPDEST DUP2 EQ PUSH2 0x3EE2 JUMPI PUSH1 0x0 DUP1 REVERT JUMPDEST POP JUMP JUMPDEST PUSH2 0x3EEE DUP2 PUSH2 0x3B9D JUMP JUMPDEST DUP2 EQ PUSH2 0x3EF9 JUMPI PUSH1 0x0 DUP1 REVERT JUMPDEST POP JUMP JUMPDEST PUSH2 0x3F05 DUP2 PUSH2 0x3BAF JUMP JUMPDEST DUP2 EQ PUSH2 0x3F10 JUMPI PUSH1 0x0 DUP1 REVERT JUMPDEST POP JUMP JUMPDEST PUSH2 0x3F1C DUP2 PUSH2 0x3BBB JUMP JUMPDEST DUP2 EQ PUSH2 0x3F27 JUMPI PUSH1 0x0 DUP1 REVERT JUMPDEST POP JUMP JUMPDEST PUSH1 0x3 DUP2 LT PUSH2 0x3F37 JUMPI PUSH1 0x0 DUP1 REVERT JUMPDEST POP JUMP JUMPDEST PUSH2 0x3F43 DUP2 PUSH2 0x3C06 JUMP JUMPDEST DUP2 EQ PUSH2 0x3F4E JUMPI PUSH1 0x0 DUP1 REVERT JUMPDEST POP JUMP INVALID LOG2 PUSH5 0x6970667358 0x22 SLT KECCAK256 0x2B GAS PUSH32 0x3CC3C6EDE5847960B097CA27E62105314CBA6F13B5FD27D1C78E78F6B264736F PUSH13 0x63430008040033000000000000 "
    },
    "gasEstimates": {
      "creation": {
        "codeDepositCost": "3252600",
        "executionCost": "45345",
        "totalCost": "3297945"
      },
      "external": {
        "createCircle(string,address[],address,uint256,uint8,uint256,bool)": "infinite",
        "deposit(bytes32,address,uint256)": "infinite",
        "getBalances(bytes32)": "infinite",
        "getCircleInfo(bytes32)": "infinite",
        "getCircles(address)": "infinite",
        "getMembers(bytes32)": "infinite",
        "getRequest(bytes32,uint256)": "3354",
        "getRequests(bytes32)": "infinite",
        "getTotalBalance(bytes32)": "infinite",
        "queryMissedPayments(bytes32)": "infinite",
        "request(bytes32,uint256)": "infinite",
        "startNewCycle(bytes32)": "infinite",
        "vote(bytes32,uint256,bool)": "infinite",
        "withdraw(bytes32,uint256)": "infinite"
      },
      "internal": {
        "approveRequest(bytes32,uint256)": "infinite",
        "deleteRequest(bytes32,uint256)": "infinite",
        "getLendingPool()": "infinite",
        "getLendingPoolCore()": "infinite",
        "withdrawMoola(uint256)": "infinite"
      }
    },
    "methodIdentifiers": {
      "createCircle(string,address[],address,uint256,uint8,uint256,bool)": "87cf2ac9",
      "deposit(bytes32,address,uint256)": "d954863c",
      "getBalances(bytes32)": "8743de81",
      "getCircleInfo(bytes32)": "64c50007",
      "getCircles(address)": "79bbbdba",
      "getMembers(bytes32)": "7b641fbc",
      "getRequest(bytes32,uint256)": "cdea9a8f",
      "getRequests(bytes32)": "32e7a848",
      "getTotalBalance(bytes32)": "69d5dd67",
      "queryMissedPayments(bytes32)": "968a5020",
      "request(bytes32,uint256)": "775146c3",
      "startNewCycle(bytes32)": "00671b97",
      "vote(bytes32,uint256,bool)": "2c729fd1",
      "withdraw(bytes32,uint256)": "040cf020"
    }
  },
  "abi": [
    {
      "anonymous": false,
      "inputs": [
        {
          "indexed": false,
          "internalType": "address",
          "name": "user",
          "type": "address"
        },
        {
          "indexed": false,
          "internalType": "bytes32",
          "name": "circle",
          "type": "bytes32"
        },
        {
          "indexed": false,
          "internalType": "uint256",
          "name": "amount",
          "type": "uint256"
        }
      ],
      "name": "ContributionMade",
      "type": "event"
    },
    {
      "anonymous": false,
      "inputs": [
        {
          "indexed": false,
          "internalType": "address",
          "name": "requester",
          "type": "address"
        },
        {
          "indexed": false,
          "internalType": "bytes32",
          "name": "circle",
          "type": "bytes32"
        },
        {
          "indexed": false,
          "internalType": "uint256",
          "name": "amount",
          "type": "uint256"
        }
      ],
      "name": "RequestGranted",
      "type": "event"
    },
    {
      "anonymous": false,
      "inputs": [
        {
          "indexed": false,
          "internalType": "address",
          "name": "requester",
          "type": "address"
        },
        {
          "indexed": false,
          "internalType": "bytes32",
          "name": "circle",
          "type": "bytes32"
        },
        {
          "indexed": false,
          "internalType": "uint256",
          "name": "amount",
          "type": "uint256"
        }
      ],
      "name": "RequestMade",
      "type": "event"
    },
    {
      "inputs": [
        {
          "internalType": "string",
          "name": "uuid",
          "type": "string"
        },
        {
          "internalType": "address[]",
          "name": "members",
          "type": "address[]"
        },
        {
          "internalType": "address",
          "name": "tokenAddr",
          "type": "address"
        },
        {
          "internalType": "uint256",
          "name": "depositAmount",
          "type": "uint256"
        },
        {
          "internalType": "enum SavingCircle.GovernanceType",
          "name": "govType",
          "type": "uint8"
        },
        {
          "internalType": "uint256",
          "name": "cycleTime",
          "type": "uint256"
        },
        {
          "internalType": "bool",
          "name": "autoStart",
          "type": "bool"
        }
      ],
      "name": "createCircle",
      "outputs": [],
      "stateMutability": "nonpayable",
      "type": "function"
    },
    {
      "inputs": [
        {
          "internalType": "bytes32",
          "name": "circleID",
          "type": "bytes32"
        },
        {
          "internalType": "address",
          "name": "token",
          "type": "address"
        },
        {
          "internalType": "uint256",
          "name": "value",
          "type": "uint256"
        }
      ],
      "name": "deposit",
      "outputs": [],
      "stateMutability": "payable",
      "type": "function"
    },
    {
      "inputs": [
        {
          "internalType": "bytes32",
          "name": "circleID",
          "type": "bytes32"
        }
      ],
      "name": "getBalances",
      "outputs": [
        {
          "internalType": "address[]",
          "name": "",
          "type": "address[]"
        },
        {
          "internalType": "uint256[]",
          "name": "",
          "type": "uint256[]"
        }
      ],
      "stateMutability": "view",
      "type": "function"
    },
    {
      "inputs": [
        {
          "internalType": "bytes32",
          "name": "circle",
          "type": "bytes32"
        }
      ],
      "name": "getCircleInfo",
      "outputs": [
        {
          "internalType": "address[]",
          "name": "",
          "type": "address[]"
        },
        {
          "internalType": "address",
          "name": "",
          "type": "address"
        },
        {
          "internalType": "uint256",
          "name": "",
          "type": "uint256"
        },
        {
          "internalType": "uint256",
          "name": "",
          "type": "uint256"
        },
        {
          "internalType": "enum SavingCircle.GovernanceType",
          "name": "",
          "type": "uint8"
        }
      ],
      "stateMutability": "view",
      "type": "function"
    },
    {
      "inputs": [
        {
          "internalType": "address",
          "name": "user",
          "type": "address"
        }
      ],
      "name": "getCircles",
      "outputs": [
        {
          "internalType": "bytes32[]",
          "name": "",
          "type": "bytes32[]"
        }
      ],
      "stateMutability": "view",
      "type": "function"
    },
    {
      "inputs": [
        {
          "internalType": "bytes32",
          "name": "circle",
          "type": "bytes32"
        }
      ],
      "name": "getMembers",
      "outputs": [
        {
          "internalType": "address[]",
          "name": "",
          "type": "address[]"
        }
      ],
      "stateMutability": "view",
      "type": "function"
    },
    {
      "inputs": [
        {
          "internalType": "bytes32",
          "name": "circleID",
          "type": "bytes32"
        },
        {
          "internalType": "uint256",
          "name": "requestIndex",
          "type": "uint256"
        }
      ],
      "name": "getRequest",
      "outputs": [
        {
          "internalType": "uint256",
          "name": "_approvals",
          "type": "uint256"
        },
        {
          "internalType": "uint256",
          "name": "_denials",
          "type": "uint256"
        },
        {
          "internalType": "address",
          "name": "_requester",
          "type": "address"
        },
        {
          "internalType": "uint256",
          "name": "_amount",
          "type": "uint256"
        }
      ],
      "stateMutability": "view",
      "type": "function"
    },
    {
      "inputs": [
        {
          "internalType": "bytes32",
          "name": "circleID",
          "type": "bytes32"
        }
      ],
      "name": "getRequests",
      "outputs": [
        {
          "internalType": "uint256[]",
          "name": "_approvals",
          "type": "uint256[]"
        },
        {
          "internalType": "uint256[]",
          "name": "_denials",
          "type": "uint256[]"
        },
        {
          "internalType": "address[]",
          "name": "_addresses",
          "type": "address[]"
        },
        {
          "internalType": "uint256[]",
          "name": "_amounts",
          "type": "uint256[]"
        }
      ],
      "stateMutability": "view",
      "type": "function"
    },
    {
      "inputs": [
        {
          "internalType": "bytes32",
          "name": "circleID",
          "type": "bytes32"
        }
      ],
      "name": "getTotalBalance",
      "outputs": [
        {
          "internalType": "uint256",
          "name": "",
          "type": "uint256"
        },
        {
          "internalType": "uint256",
          "name": "",
          "type": "uint256"
        }
      ],
      "stateMutability": "view",
      "type": "function"
    },
    {
      "inputs": [
        {
          "internalType": "bytes32",
          "name": "circleID",
          "type": "bytes32"
        }
      ],
      "name": "queryMissedPayments",
      "outputs": [
        {
          "internalType": "address[]",
          "name": "_addresses",
          "type": "address[]"
        },
        {
          "internalType": "uint256[]",
          "name": "_missedPayments",
          "type": "uint256[]"
        }
      ],
      "stateMutability": "view",
      "type": "function"
    },
    {
      "inputs": [
        {
          "internalType": "bytes32",
          "name": "circleID",
          "type": "bytes32"
        },
        {
          "internalType": "uint256",
          "name": "value",
          "type": "uint256"
        }
      ],
      "name": "request",
      "outputs": [],
      "stateMutability": "nonpayable",
      "type": "function"
    },
    {
      "inputs": [
        {
          "internalType": "bytes32",
          "name": "circle",
          "type": "bytes32"
        }
      ],
      "name": "startNewCycle",
      "outputs": [],
      "stateMutability": "nonpayable",
      "type": "function"
    },
    {
      "inputs": [
        {
          "internalType": "bytes32",
          "name": "circleID",
          "type": "bytes32"
        },
        {
          "internalType": "uint256",
          "name": "requestIndex",
          "type": "uint256"
        },
        {
          "internalType": "bool",
          "name": "approved",
          "type": "bool"
        }
      ],
      "name": "vote",
      "outputs": [],
      "stateMutability": "nonpayable",
      "type": "function"
    },
    {
      "inputs": [
        {
          "internalType": "bytes32",
          "name": "circleID",
          "type": "bytes32"
        },
        {
          "internalType": "uint256",
          "name": "amt",
          "type": "uint256"
        }
      ],
      "name": "withdraw",
      "outputs": [],
      "stateMutability": "nonpayable",
      "type": "function"
    },
    {
      "stateMutability": "payable",
      "type": "receive"
    }
  ]
}