{
  "_format": "hh-sol-artifact-1",
  "contractName": "CentroWallet",
  "sourceName": "contracts/Wallet/CentroWallet.sol",
  "abi": [
    {
      "inputs": [
        {
          "internalType": "address",
          "name": "_owner",
          "type": "address"
        },
        {
          "internalType": "address",
          "name": "_store",
          "type": "address"
        }
      ],
      "stateMutability": "nonpayable",
      "type": "constructor"
    },
    {
      "anonymous": false,
      "inputs": [
        {
          "indexed": false,
          "internalType": "address",
          "name": "target",
          "type": "address"
        },
        {
          "indexed": false,
          "internalType": "bytes",
          "name": "data",
          "type": "bytes"
        },
        {
          "indexed": false,
          "internalType": "address",
          "name": "caller",
          "type": "address"
        }
      ],
      "name": "ContractCalled",
      "type": "event"
    },
    {
      "anonymous": false,
      "inputs": [
        {
          "indexed": false,
          "internalType": "address",
          "name": "_user",
          "type": "address"
        },
        {
          "indexed": false,
          "internalType": "enum CentroWallet.Role",
          "name": "_role",
          "type": "uint8"
        }
      ],
      "name": "RoleAdded",
      "type": "event"
    },
    {
      "anonymous": false,
      "inputs": [
        {
          "indexed": false,
          "internalType": "address",
          "name": "_user",
          "type": "address"
        },
        {
          "indexed": false,
          "internalType": "enum CentroWallet.Role",
          "name": "_role",
          "type": "uint8"
        }
      ],
      "name": "RoleRevoked",
      "type": "event"
    },
    {
      "inputs": [
        {
          "internalType": "address",
          "name": "_from",
          "type": "address"
        },
        {
          "internalType": "address",
          "name": "_toAdd",
          "type": "address"
        },
        {
          "internalType": "enum CentroWallet.Role",
          "name": "_role",
          "type": "uint8"
        }
      ],
      "name": "addRole",
      "outputs": [],
      "stateMutability": "nonpayable",
      "type": "function"
    },
    {
      "inputs": [
        {
          "internalType": "address",
          "name": "_from",
          "type": "address"
        },
        {
          "internalType": "address",
          "name": "_token",
          "type": "address"
        },
        {
          "internalType": "address",
          "name": "_target",
          "type": "address"
        },
        {
          "internalType": "uint256",
          "name": "_amt",
          "type": "uint256"
        }
      ],
      "name": "approve",
      "outputs": [],
      "stateMutability": "nonpayable",
      "type": "function"
    },
    {
      "inputs": [
        {
          "internalType": "address",
          "name": "_from",
          "type": "address"
        },
        {
          "internalType": "address",
          "name": "_target",
          "type": "address"
        },
        {
          "internalType": "bytes",
          "name": "_data",
          "type": "bytes"
        }
      ],
      "name": "callContract",
      "outputs": [
        {
          "internalType": "bytes",
          "name": "",
          "type": "bytes"
        }
      ],
      "stateMutability": "nonpayable",
      "type": "function"
    },
    {
      "inputs": [
        {
          "internalType": "address",
          "name": "_from",
          "type": "address"
        },
        {
          "internalType": "address",
          "name": "_token",
          "type": "address"
        },
        {
          "internalType": "uint256",
          "name": "_amount",
          "type": "uint256"
        }
      ],
      "name": "deposit",
      "outputs": [],
      "stateMutability": "payable",
      "type": "function"
    },
    {
      "inputs": [
        {
          "internalType": "address",
          "name": "_from",
          "type": "address"
        }
      ],
      "name": "getBasis",
      "outputs": [
        {
          "internalType": "address[]",
          "name": "",
          "type": "address[]"
        },
        {
          "internalType": "uint256[]",
          "name": "",
          "type": "uint256[]"
        }
      ],
      "stateMutability": "view",
      "type": "function"
    },
    {
      "inputs": [
        {
          "internalType": "address",
          "name": "_token",
          "type": "address"
        },
        {
          "internalType": "uint256",
          "name": "_amount",
          "type": "uint256"
        }
      ],
      "name": "incrementBasis",
      "outputs": [],
      "stateMutability": "nonpayable",
      "type": "function"
    },
    {
      "inputs": [],
      "name": "receive",
      "outputs": [],
      "stateMutability": "payable",
      "type": "function"
    },
    {
      "inputs": [
        {
          "internalType": "address",
          "name": "_from",
          "type": "address"
        },
        {
          "internalType": "address",
          "name": "_toRevoke",
          "type": "address"
        }
      ],
      "name": "revokeRole",
      "outputs": [],
      "stateMutability": "nonpayable",
      "type": "function"
    },
    {
      "inputs": [
        {
          "internalType": "address",
          "name": "_from",
          "type": "address"
        },
        {
          "internalType": "address",
          "name": "_token",
          "type": "address"
        },
        {
          "internalType": "address",
          "name": "_to",
          "type": "address"
        },
        {
          "internalType": "uint256",
          "name": "_amount",
          "type": "uint256"
        }
      ],
      "name": "send",
      "outputs": [],
      "stateMutability": "payable",
      "type": "function"
    },
    {
      "inputs": [
        {
          "internalType": "address",
          "name": "_from",
          "type": "address"
        },
        {
          "internalType": "address",
          "name": "_token",
          "type": "address"
        },
        {
          "internalType": "uint256",
          "name": "_amount",
          "type": "uint256"
        }
      ],
      "name": "withdraw",
      "outputs": [],
      "stateMutability": "nonpayable",
      "type": "function"
    }
  ],
  "bytecode": "0x60806040523480156200001157600080fd5b50604051620027463803806200274683398101604081905262000034916200009b565b600180546001600160a01b03199081166001600160a01b0394851690811783556000908152600460205260408120805460ff191690931790925581541691909216179055620000d2565b80516001600160a01b03811681146200009657600080fd5b919050565b60008060408385031215620000ae578182fd5b620000b9836200007e565b9150620000c9602084016200007e565b90509250929050565b61266480620000e26000396000f3fe6080604052600436106100b15760003560e01c80638340f54911610069578063d9caed121161004e578063d9caed121461018a578063e4921c10146101aa578063f2ae6bab146101ca576100b1565b80638340f5491461016f578063a3e76c0f14610182576100b1565b806337d701cd1161009a57806337d701cd1461010257806359eba4541461012f578063602c6f241461014f576100b1565b806306e83e2f146100b6578063319b0957146100cb575b600080fd5b6100c96100c4366004611dcf565b6101ea565b005b3480156100d757600080fd5b506100eb6100e6366004611d58565b6107b8565b6040516100f9929190612126565b60405180910390f35b34801561010e57600080fd5b5061012261011d366004611e1f565b610a4f565b6040516100f991906121a9565b34801561013b57600080fd5b506100c961014a366004611dcf565b610c10565b34801561015b57600080fd5b506100c961016a366004611f0e565b610d83565b6100c961017d366004611f5b565b610f9f565b6100c96112f1565b34801561019657600080fd5b506100c96101a5366004611f5b565b6112f3565b3480156101b657600080fd5b506100c96101c5366004611f9b565b6118b7565b3480156101d657600080fd5b506100c96101e5366004611d97565b6119b1565b60008054906101000a90046001600160a01b03166001600160a01b0316637dba887b6040518163ffffffff1660e01b815260040160206040518083038186803b15801561023657600080fd5b505afa15801561024a573d6000803e3d6000fd5b505050506040513d601f19601f8201168201806040525081019061026e9190611d7b565b6001600160a01b0316336001600160a01b0316148061029757506001546001600160a01b031633145b6102bc5760405162461bcd60e51b81526004016102b390612352565b60405180910390fd5b6001600160a01b038416600090815260046020526040902054849060ff166102f65760405162461bcd60e51b81526004016102b3906122f5565b600085816001600160a01b03821660009081526005602052604090205460ff16600381111561033557634e487b7160e01b600052602160045260246000fd5b146103525760405162461bcd60e51b81526004016102b39061222a565b6001600160a01b03871660009081526004602052604090205460ff1661038a5760405162461bcd60e51b81526004016102b39061248b565b600054604080517f24785172000000000000000000000000000000000000000000000000000000008152905188926001600160a01b0316916324785172916004808301926020929190829003018186803b1580156103e757600080fd5b505afa1580156103fb573d6000803e3d6000fd5b505050506040513d601f19601f8201168201806040525081019061041f9190611d7b565b6001600160a01b0316876001600160a01b0316146106e6576000851561044557856104da565b6040517f70a082310000000000000000000000000000000000000000000000000000000081526001600160a01b038316906370a082319061048a903090600401612064565b60206040518083038186803b1580156104a257600080fd5b505afa1580156104b6573d6000803e3d6000fd5b505050506040513d601f19601f820116820180604052508101906104da9190611fe6565b6040517f70a082310000000000000000000000000000000000000000000000000000000081529091506001600160a01b038316906370a0823190610522903090600401612064565b60206040518083038186803b15801561053a57600080fd5b505afa15801561054e573d6000803e3d6000fd5b505050506040513d601f19601f820116820180604052508101906105729190611fe6565b8111156105915760405162461bcd60e51b81526004016102b390612287565b6040517f095ea7b30000000000000000000000000000000000000000000000000000000081526001600160a01b0383169063095ea7b3906105d8908a90859060040161210d565b602060405180830381600087803b1580156105f257600080fd5b505af1158015610606573d6000803e3d6000fd5b505050506040513d601f19601f8201168201806040525081019061062a9190611fc6565b6106465760405162461bcd60e51b81526004016102b39061241d565b6040517fa9059cbb0000000000000000000000000000000000000000000000000000000081526001600160a01b0383169063a9059cbb9061068d908a90859060040161210d565b602060405180830381600087803b1580156106a757600080fd5b505af11580156106bb573d6000803e3d6000fd5b505050506040513d601f19601f820116820180604052508101906106df9190611fc6565b5050610781565b6040517fa9059cbb0000000000000000000000000000000000000000000000000000000081526001600160a01b0382169063a9059cbb9061072d908990899060040161210d565b602060405180830381600087803b15801561074757600080fd5b505af115801561075b573d6000803e3d6000fd5b505050506040513d601f19601f8201168201806040525081019061077f9190611fc6565b505b6001600160a01b038716600090815260026020526040812080548792906107a990849061256e565b90915550505050505050505050565b60608060008054906101000a90046001600160a01b03166001600160a01b0316637dba887b6040518163ffffffff1660e01b815260040160206040518083038186803b15801561080757600080fd5b505afa15801561081b573d6000803e3d6000fd5b505050506040513d601f19601f8201168201806040525081019061083f9190611d7b565b6001600160a01b0316336001600160a01b0316148061086857506001546001600160a01b031633145b6108845760405162461bcd60e51b81526004016102b390612352565b6001600160a01b038316600090815260046020526040902054839060ff166108be5760405162461bcd60e51b81526004016102b3906122f5565b6001600160a01b03841660009081526004602052604090205460ff166108f65760405162461bcd60e51b81526004016102b3906121f3565b60035460009067ffffffffffffffff81111561092257634e487b7160e01b600052604160045260246000fd5b60405190808252806020026020018201604052801561094b578160200160208202803683370190505b50905060005b6003548110156109e457600260006003838154811061098057634e487b7160e01b600052603260045260246000fd5b60009182526020808320909101546001600160a01b0316835282019290925260400190205482518390839081106109c757634e487b7160e01b600052603260045260246000fd5b6020908102919091010152806109dc816125b1565b915050610951565b5060038181805480602002602001604051908101604052809291908181526020018280548015610a3d57602002820191906000526020600020905b81546001600160a01b03168152600190910190602001808311610a1f575b50505050509150935093505050915091565b600054604080517f7dba887b00000000000000000000000000000000000000000000000000000000815290516060926001600160a01b031691637dba887b916004808301926020929190829003018186803b158015610aad57600080fd5b505afa158015610ac1573d6000803e3d6000fd5b505050506040513d601f19601f82011682018060405250810190610ae59190611d7b565b6001600160a01b0316336001600160a01b03161480610b0e57506001546001600160a01b031633145b610b2a5760405162461bcd60e51b81526004016102b390612352565b6001600160a01b038416600090815260046020526040902054849060ff16610b645760405162461bcd60e51b81526004016102b3906122f5565b600085816001600160a01b03821660009081526005602052604090205460ff166003811115610ba357634e487b7160e01b600052602160045260246000fd5b14610bc05760405162461bcd60e51b81526004016102b39061222a565b7fd358f396b0a567971ec8d1592d1a4d5ae4cc3925a55e356359645a6ca8ef54d3868689604051610bf39392919061209c565b60405180910390a1610c058686611bcb565b979650505050505050565b60008054906101000a90046001600160a01b03166001600160a01b0316637dba887b6040518163ffffffff1660e01b815260040160206040518083038186803b158015610c5c57600080fd5b505afa158015610c70573d6000803e3d6000fd5b505050506040513d601f19601f82011682018060405250810190610c949190611d7b565b6001600160a01b0316336001600160a01b03161480610cbd57506001546001600160a01b031633145b610cd95760405162461bcd60e51b81526004016102b390612352565b6001600160a01b038416600090815260046020526040902054849060ff16610d135760405162461bcd60e51b81526004016102b3906122f5565b600085816001600160a01b03821660009081526005602052604090205460ff166003811115610d5257634e487b7160e01b600052602160045260246000fd5b14610d6f5760405162461bcd60e51b81526004016102b39061222a565b610d7a868686611c6d565b50505050505050565b60008054906101000a90046001600160a01b03166001600160a01b0316637dba887b6040518163ffffffff1660e01b815260040160206040518083038186803b158015610dcf57600080fd5b505afa158015610de3573d6000803e3d6000fd5b505050506040513d601f19601f82011682018060405250810190610e079190611d7b565b6001600160a01b0316336001600160a01b03161480610e3057506001546001600160a01b031633145b610e4c5760405162461bcd60e51b81526004016102b390612352565b6001600160a01b038316600090815260046020526040902054839060ff16610e865760405162461bcd60e51b81526004016102b3906122f5565b600084816001600160a01b03821660009081526005602052604090205460ff166003811115610ec557634e487b7160e01b600052602160045260246000fd5b14610ee25760405162461bcd60e51b81526004016102b39061222a565b6001600160a01b0385166000908152600460209081526040808320805460017fffffffffffffffffffffffffffffffffffffffffffffffffffffffffffffff009182168117909255600590935292208054879391921690836003811115610f5957634e487b7160e01b600052602160045260246000fd5b02179055507f0ed8a6a6a166243876472f7a8610b62c1a76c67911642d39ff34ead38105534f8585604051610f8f9291906120d2565b60405180910390a1505050505050565b60008054906101000a90046001600160a01b03166001600160a01b0316637dba887b6040518163ffffffff1660e01b815260040160206040518083038186803b158015610feb57600080fd5b505afa158015610fff573d6000803e3d6000fd5b505050506040513d601f19601f820116820180604052508101906110239190611d7b565b6001600160a01b0316336001600160a01b0316148061104c57506001546001600160a01b031633145b6110685760405162461bcd60e51b81526004016102b390612352565b6001600160a01b038316600090815260046020526040902054839060ff166110a25760405162461bcd60e51b81526004016102b3906122f5565b836003806001600160a01b03831660009081526005602052604090205460ff1660038111156110e157634e487b7160e01b600052602160045260246000fd5b14156110ff5760405162461bcd60e51b81526004016102b390612389565b60008054906101000a90046001600160a01b03166001600160a01b031663247851726040518163ffffffff1660e01b815260040160206040518083038186803b15801561114b57600080fd5b505afa15801561115f573d6000803e3d6000fd5b505050506040513d601f19601f820116820180604052508101906111839190611d7b565b6001600160a01b0316856001600160a01b03161461123b576040517f23b872dd00000000000000000000000000000000000000000000000000000000815285906001600160a01b038216906323b872dd906111e6908a9030908a90600401612078565b602060405180830381600087803b15801561120057600080fd5b505af1158015611214573d6000803e3d6000fd5b505050506040513d601f19601f820116820180604052508101906112389190611fc6565b50505b6001600160a01b0385166000908152600260205260409020546112bc57600380546001810182556000919091527fc2575a0e9e593c00f959f8c92f12db2869c3395a3b0502d05e2516446f71f85b0180547fffffffffffffffffffffffff0000000000000000000000000000000000000000166001600160a01b0387161790555b6001600160a01b038516600090815260026020526040812080548692906112e4908490612556565b9091555050505050505050565b565b60008054906101000a90046001600160a01b03166001600160a01b0316637dba887b6040518163ffffffff1660e01b815260040160206040518083038186803b15801561133f57600080fd5b505afa158015611353573d6000803e3d6000fd5b505050506040513d601f19601f820116820180604052508101906113779190611d7b565b6001600160a01b0316336001600160a01b031614806113a057506001546001600160a01b031633145b6113bc5760405162461bcd60e51b81526004016102b390612352565b6001600160a01b038316600090815260046020526040902054839060ff166113f65760405162461bcd60e51b81526004016102b3906122f5565b600084816001600160a01b03821660009081526005602052604090205460ff16600381111561143557634e487b7160e01b600052602160045260246000fd5b146114525760405162461bcd60e51b81526004016102b39061222a565b6001600160a01b03861660009081526004602052604090205460ff1661148a5760405162461bcd60e51b81526004016102b3906121bc565b600054604080517f24785172000000000000000000000000000000000000000000000000000000008152905187926001600160a01b0316916324785172916004808301926020929190829003018186803b1580156114e757600080fd5b505afa1580156114fb573d6000803e3d6000fd5b505050506040513d601f19601f8201168201806040525081019061151f9190611d7b565b6001600160a01b0316866001600160a01b0316146117e6576000851561154557856115da565b6040517f70a082310000000000000000000000000000000000000000000000000000000081526001600160a01b038316906370a082319061158a903090600401612064565b60206040518083038186803b1580156115a257600080fd5b505afa1580156115b6573d6000803e3d6000fd5b505050506040513d601f19601f820116820180604052508101906115da9190611fe6565b6040517f70a082310000000000000000000000000000000000000000000000000000000081529091506001600160a01b038316906370a0823190611622903090600401612064565b60206040518083038186803b15801561163a57600080fd5b505afa15801561164e573d6000803e3d6000fd5b505050506040513d601f19601f820116820180604052508101906116729190611fe6565b8111156116915760405162461bcd60e51b81526004016102b390612287565b6040517f095ea7b30000000000000000000000000000000000000000000000000000000081526001600160a01b0383169063095ea7b3906116d8908b90859060040161210d565b602060405180830381600087803b1580156116f257600080fd5b505af1158015611706573d6000803e3d6000fd5b505050506040513d601f19601f8201168201806040525081019061172a9190611fc6565b6117465760405162461bcd60e51b81526004016102b3906122be565b6040517fa9059cbb0000000000000000000000000000000000000000000000000000000081526001600160a01b0383169063a9059cbb9061178d908b90859060040161210d565b602060405180830381600087803b1580156117a757600080fd5b505af11580156117bb573d6000803e3d6000fd5b505050506040513d601f19601f820116820180604052508101906117df9190611fc6565b5050611881565b6040517fa9059cbb0000000000000000000000000000000000000000000000000000000081526001600160a01b0382169063a9059cbb9061182d908a90899060040161210d565b602060405180830381600087803b15801561184757600080fd5b505af115801561185b573d6000803e3d6000fd5b505050506040513d601f19601f8201168201806040525081019061187f9190611fc6565b505b6001600160a01b038616600090815260026020526040812080548792906118a990849061256e565b909155505050505050505050565b60008054906101000a90046001600160a01b03166001600160a01b0316637dba887b6040518163ffffffff1660e01b815260040160206040518083038186803b15801561190357600080fd5b505afa158015611917573d6000803e3d6000fd5b505050506040513d601f19601f8201168201806040525081019061193b9190611d7b565b6001600160a01b0316336001600160a01b0316148061196457506001546001600160a01b031633145b6119805760405162461bcd60e51b81526004016102b390612352565b6001600160a01b038216600090815260026020526040812080548392906119a8908490612556565b90915550505050565b60008054906101000a90046001600160a01b03166001600160a01b0316637dba887b6040518163ffffffff1660e01b815260040160206040518083038186803b1580156119fd57600080fd5b505afa158015611a11573d6000803e3d6000fd5b505050506040513d601f19601f82011682018060405250810190611a359190611d7b565b6001600160a01b0316336001600160a01b03161480611a5e57506001546001600160a01b031633145b611a7a5760405162461bcd60e51b81526004016102b390612352565b6001600160a01b038216600090815260046020526040902054829060ff16611ab45760405162461bcd60e51b81526004016102b3906122f5565b600083816001600160a01b03821660009081526005602052604090205460ff166003811115611af357634e487b7160e01b600052602160045260246000fd5b14611b105760405162461bcd60e51b81526004016102b39061222a565b6001546001600160a01b0385811691161415611b3e5760405162461bcd60e51b81526004016102b3906124f9565b6001600160a01b038416600090815260046020908152604080832080547fffffffffffffffffffffffffffffffffffffffffffffffffffffffffffffff001690556005909152908190205490517f34a1009b84e077aee5bc8197faf7105e54f9ba6879e2a51a716e4156ea9ad76991611bbc91879160ff16906120d2565b60405180910390a15050505050565b60606001600160a01b038316611bf35760405162461bcd60e51b81526004016102b390612454565b600080846001600160a01b031684604051611c0e9190612048565b6000604051808303816000865af19150503d8060008114611c4b576040519150601f19603f3d011682016040523d82523d6000602084013e611c50565b606091505b50915091506000821415611c65573d60208201fd5b949350505050565b6001600160a01b038316611c935760405162461bcd60e51b81526004016102b3906123e6565b6001600160a01b038216611cb95760405162461bcd60e51b81526004016102b3906124c2565b6040517f095ea7b30000000000000000000000000000000000000000000000000000000081526001600160a01b0384169063095ea7b390611d00908590859060040161210d565b602060405180830381600087803b158015611d1a57600080fd5b505af1158015611d2e573d6000803e3d6000fd5b505050506040513d601f19601f82011682018060405250810190611d529190611fc6565b50505050565b600060208284031215611d69578081fd5b8135611d7481612616565b9392505050565b600060208284031215611d8c578081fd5b8151611d7481612616565b60008060408385031215611da9578081fd5b8235611db481612616565b91506020830135611dc481612616565b809150509250929050565b60008060008060808587031215611de4578182fd5b8435611def81612616565b93506020850135611dff81612616565b92506040850135611e0f81612616565b9396929550929360600135925050565b600080600060608486031215611e33578283fd5b8335611e3e81612616565b92506020840135611e4e81612616565b9150604084013567ffffffffffffffff80821115611e6a578283fd5b818601915086601f830112611e7d578283fd5b813581811115611e8f57611e8f612600565b604051601f82017fffffffffffffffffffffffffffffffffffffffffffffffffffffffffffffffe0908116603f01168101908382118183101715611ed557611ed5612600565b81604052828152896020848701011115611eed578586fd5b82602086016020830137856020848301015280955050505050509250925092565b600080600060608486031215611f22578283fd5b8335611f2d81612616565b92506020840135611f3d81612616565b9150604084013560048110611f50578182fd5b809150509250925092565b600080600060608486031215611f6f578283fd5b8335611f7a81612616565b92506020840135611f8a81612616565b929592945050506040919091013590565b60008060408385031215611fad578182fd5b8235611fb881612616565b946020939093013593505050565b600060208284031215611fd7578081fd5b81518015158114611d74578182fd5b600060208284031215611ff7578081fd5b5051919050565b60008151808452612016816020860160208601612585565b601f017fffffffffffffffffffffffffffffffffffffffffffffffffffffffffffffffe0169290920160200192915050565b6000825161205a818460208701612585565b9190910192915050565b6001600160a01b0391909116815260200190565b6001600160a01b039384168152919092166020820152604081019190915260600190565b60006001600160a01b038086168352606060208401526120bf6060840186611ffe565b9150808416604084015250949350505050565b6001600160a01b0383168152604081016004831061210057634e487b7160e01b600052602160045260246000fd5b8260208301529392505050565b6001600160a01b03929092168252602082015260400190565b604080825283519082018190526000906020906060840190828701845b828110156121685781516001600160a01b031684529284019290840190600101612143565b50505083810382850152845180825285830191830190845b8181101561219c57835183529284019291840191600101612180565b5090979650505050505050565b600060208252611d746020830184611ffe565b60208082526015908201527f556e617574686f72697a65642077697468647261770000000000000000000000604082015260600190565b60208082526013908201527f556e617574686f72697a65642071756572792e00000000000000000000000000604082015260600190565b6020808252602d908201527f557365722069732074686520696e636f727265637420726f6c6520666f72207460408201527f686973206f7065726174696f6e00000000000000000000000000000000000000606082015260800190565b60208082526012908201527f496e73756666696369656e742066756e64730000000000000000000000000000604082015260600190565b60208082526016908201527f546f6b656e20617070726f76616c206661696c65642100000000000000000000604082015260600190565b6020808252602c908201527f55736572206973206e6f7420617574686f72697a656420746f2061636365737360408201527f20746869732077616c6c65740000000000000000000000000000000000000000606082015260800190565b60208082526013908201527f556e617574686f72697a65642061636365737300000000000000000000000000604082015260600190565b6020808252602f908201527f55736572206973206e6f742074686520636f727265637420726f6c6520666f7260408201527f2074686973206f7065726174696f6e0000000000000000000000000000000000606082015260800190565b60208082526015908201527f496e76616c696420746f6b656e20616464726573730000000000000000000000604082015260600190565b60208082526015908201527f546f6b656e20617070726f76616c206661696c65640000000000000000000000604082015260600190565b6020808252600f908201527f54617267657420696e76616c6964210000000000000000000000000000000000604082015260600190565b60208082526016908201527f556e617574686f72697a6564207472616e736665722e00000000000000000000604082015260600190565b60208082526010908201527f496e76616c696420617070726f76656500000000000000000000000000000000604082015260600190565b60208082526024908201527f546865206f726967696e616c206f776e65722063616e6e6f742062652072657660408201527f6f6b656400000000000000000000000000000000000000000000000000000000606082015260800190565b60008219821115612569576125696125ea565b500190565b600082821015612580576125806125ea565b500390565b60005b838110156125a0578181015183820152602001612588565b83811115611d525750506000910152565b60007fffffffffffffffffffffffffffffffffffffffffffffffffffffffffffffffff8214156125e3576125e36125ea565b5060010190565b634e487b7160e01b600052601160045260246000fd5b634e487b7160e01b600052604160045260246000fd5b6001600160a01b038116811461262b57600080fd5b5056fea2646970667358221220677de2c65f84c7109aa97bb1a6549c1786ea6f03c1743c68b42a2d3e8df432ef64736f6c63430008010033",
  "linkReferences": {},
  "deployedLinkReferences": {}
}