{
  "_format": "hh-sol-artifact-1",
  "contractName": "CentroMain",
  "sourceName": "contracts/CentroMain.sol",
  "abi": [
    {
      "inputs": [
        {
          "internalType": "address",
          "name": "_store",
          "type": "address"
        },
        {
          "internalType": "address",
          "name": "_siphonAddress",
          "type": "address"
        }
      ],
      "stateMutability": "nonpayable",
      "type": "constructor"
    },
    {
      "anonymous": false,
      "inputs": [
        {
          "indexed": false,
          "internalType": "address",
          "name": "wallet",
          "type": "address"
        },
        {
          "indexed": false,
          "internalType": "address",
          "name": "pool",
          "type": "address"
        },
        {
          "indexed": false,
          "internalType": "address",
          "name": "tok1",
          "type": "address"
        },
        {
          "indexed": false,
          "internalType": "address",
          "name": "tok2",
          "type": "address"
        },
        {
          "indexed": false,
          "internalType": "uint256",
          "name": "liquidityAdded",
          "type": "uint256"
        },
        {
          "indexed": false,
          "internalType": "uint256",
          "name": "amt1",
          "type": "uint256"
        },
        {
          "indexed": false,
          "internalType": "uint256",
          "name": "amt2",
          "type": "uint256"
        }
      ],
      "name": "AddedLiquidity",
      "type": "event"
    },
    {
      "anonymous": false,
      "inputs": [
        {
          "indexed": false,
          "internalType": "address",
          "name": "_wallet",
          "type": "address"
        },
        {
          "indexed": false,
          "internalType": "address",
          "name": "_token",
          "type": "address"
        },
        {
          "indexed": false,
          "internalType": "uint256",
          "name": "_amount",
          "type": "uint256"
        }
      ],
      "name": "DepositMade",
      "type": "event"
    },
    {
      "anonymous": false,
      "inputs": [
        {
          "indexed": false,
          "internalType": "address",
          "name": "wallet",
          "type": "address"
        },
        {
          "indexed": false,
          "internalType": "address",
          "name": "pool",
          "type": "address"
        },
        {
          "indexed": false,
          "internalType": "address",
          "name": "tok1",
          "type": "address"
        },
        {
          "indexed": false,
          "internalType": "address",
          "name": "tok2",
          "type": "address"
        },
        {
          "indexed": false,
          "internalType": "uint256",
          "name": "liquidityRemoved",
          "type": "uint256"
        },
        {
          "indexed": false,
          "internalType": "uint256",
          "name": "amt1",
          "type": "uint256"
        },
        {
          "indexed": false,
          "internalType": "uint256",
          "name": "amt2",
          "type": "uint256"
        }
      ],
      "name": "RemovedLiquidity",
      "type": "event"
    },
    {
      "anonymous": false,
      "inputs": [
        {
          "indexed": false,
          "internalType": "address",
          "name": "wallet",
          "type": "address"
        },
        {
          "indexed": false,
          "internalType": "address",
          "name": "tokIn",
          "type": "address"
        },
        {
          "indexed": false,
          "internalType": "address",
          "name": "tokOut",
          "type": "address"
        },
        {
          "indexed": false,
          "internalType": "uint256",
          "name": "amtIn",
          "type": "uint256"
        },
        {
          "indexed": false,
          "internalType": "uint256",
          "name": "amtOut",
          "type": "uint256"
        }
      ],
      "name": "SwapMade",
      "type": "event"
    },
    {
      "anonymous": false,
      "inputs": [
        {
          "indexed": false,
          "internalType": "address",
          "name": "_sender",
          "type": "address"
        },
        {
          "indexed": false,
          "internalType": "address",
          "name": "_receiver",
          "type": "address"
        },
        {
          "indexed": false,
          "internalType": "address",
          "name": "_token",
          "type": "address"
        },
        {
          "indexed": false,
          "internalType": "uint256",
          "name": "_amount",
          "type": "uint256"
        }
      ],
      "name": "TransferMade",
      "type": "event"
    },
    {
      "anonymous": false,
      "inputs": [
        {
          "indexed": false,
          "internalType": "address",
          "name": "_wallet",
          "type": "address"
        },
        {
          "indexed": false,
          "internalType": "address",
          "name": "_token",
          "type": "address"
        },
        {
          "indexed": false,
          "internalType": "uint256",
          "name": "_amount",
          "type": "uint256"
        }
      ],
      "name": "WithdrawMade",
      "type": "event"
    },
    {
      "inputs": [
        {
          "internalType": "address",
          "name": "lp",
          "type": "address"
        }
      ],
      "name": "_getPoolAddress",
      "outputs": [
        {
          "internalType": "address",
          "name": "",
          "type": "address"
        }
      ],
      "stateMutability": "view",
      "type": "function"
    },
    {
      "inputs": [
        {
          "internalType": "address",
          "name": "_tok1",
          "type": "address"
        },
        {
          "internalType": "address",
          "name": "_tok2",
          "type": "address"
        }
      ],
      "name": "_getUbeReserves",
      "outputs": [
        {
          "internalType": "uint256",
          "name": "_amt1",
          "type": "uint256"
        },
        {
          "internalType": "uint256",
          "name": "_amt2",
          "type": "uint256"
        }
      ],
      "stateMutability": "view",
      "type": "function"
    },
    {
      "inputs": [
        {
          "internalType": "address",
          "name": "toAdd",
          "type": "address"
        }
      ],
      "name": "addAdmin",
      "outputs": [],
      "stateMutability": "nonpayable",
      "type": "function"
    },
    {
      "inputs": [
        {
          "internalType": "address",
          "name": "_tok1",
          "type": "address"
        },
        {
          "internalType": "address",
          "name": "_tok2",
          "type": "address"
        },
        {
          "internalType": "uint256",
          "name": "_amt1",
          "type": "uint256"
        },
        {
          "internalType": "uint256",
          "name": "_amt2",
          "type": "uint256"
        },
        {
          "internalType": "uint256",
          "name": "_walletID",
          "type": "uint256"
        }
      ],
      "name": "addLiquidity",
      "outputs": [
        {
          "internalType": "uint256",
          "name": "amount1",
          "type": "uint256"
        },
        {
          "internalType": "uint256",
          "name": "amount2",
          "type": "uint256"
        },
        {
          "internalType": "uint256",
          "name": "liquidity",
          "type": "uint256"
        }
      ],
      "stateMutability": "nonpayable",
      "type": "function"
    },
    {
      "inputs": [
        {
          "internalType": "address",
          "name": "_baseToken",
          "type": "address"
        },
        {
          "internalType": "uint256",
          "name": "_baseAmount",
          "type": "uint256"
        },
        {
          "internalType": "address",
          "name": "_tok1",
          "type": "address"
        },
        {
          "internalType": "address",
          "name": "_tok2",
          "type": "address"
        },
        {
          "internalType": "uint256",
          "name": "_walletID",
          "type": "uint256"
        }
      ],
      "name": "addLiquidityFromOne",
      "outputs": [],
      "stateMutability": "nonpayable",
      "type": "function"
    },
    {
      "inputs": [
        {
          "internalType": "address",
          "name": "",
          "type": "address"
        },
        {
          "internalType": "uint256",
          "name": "",
          "type": "uint256"
        }
      ],
      "name": "addressToWalletIDs",
      "outputs": [
        {
          "internalType": "uint256",
          "name": "",
          "type": "uint256"
        }
      ],
      "stateMutability": "view",
      "type": "function"
    },
    {
      "inputs": [
        {
          "internalType": "uint256",
          "name": "_amount",
          "type": "uint256"
        },
        {
          "internalType": "uint256",
          "name": "_maxSellAmount",
          "type": "uint256"
        },
        {
          "internalType": "uint256",
          "name": "_walletID",
          "type": "uint256"
        }
      ],
      "name": "buyCelo",
      "outputs": [],
      "stateMutability": "nonpayable",
      "type": "function"
    },
    {
      "inputs": [
        {
          "internalType": "address",
          "name": "_pair",
          "type": "address"
        },
        {
          "internalType": "uint256",
          "name": "_walletId",
          "type": "uint256"
        }
      ],
      "name": "claimRewardFromPair",
      "outputs": [
        {
          "internalType": "uint256",
          "name": "_earned",
          "type": "uint256"
        }
      ],
      "stateMutability": "nonpayable",
      "type": "function"
    },
    {
      "inputs": [
        {
          "internalType": "address",
          "name": "_tok1",
          "type": "address"
        },
        {
          "internalType": "address",
          "name": "_tok2",
          "type": "address"
        },
        {
          "internalType": "uint256",
          "name": "_walletId",
          "type": "uint256"
        }
      ],
      "name": "claimRewardFromTokens",
      "outputs": [
        {
          "internalType": "uint256",
          "name": "_earned",
          "type": "uint256"
        }
      ],
      "stateMutability": "nonpayable",
      "type": "function"
    },
    {
      "inputs": [
        {
          "internalType": "address",
          "name": "_pair",
          "type": "address"
        },
        {
          "internalType": "uint256",
          "name": "_walletId",
          "type": "uint256"
        }
      ],
      "name": "compoundFarmPair",
      "outputs": [],
      "stateMutability": "nonpayable",
      "type": "function"
    },
    {
      "inputs": [
        {
          "internalType": "address",
          "name": "_tok1",
          "type": "address"
        },
        {
          "internalType": "address",
          "name": "_tok2",
          "type": "address"
        },
        {
          "internalType": "uint256",
          "name": "_walletId",
          "type": "uint256"
        }
      ],
      "name": "compoundFarmTokens",
      "outputs": [],
      "stateMutability": "nonpayable",
      "type": "function"
    },
    {
      "inputs": [
        {
          "internalType": "address",
          "name": "_token",
          "type": "address"
        },
        {
          "internalType": "uint256",
          "name": "_amount",
          "type": "uint256"
        },
        {
          "internalType": "uint256",
          "name": "_walletID",
          "type": "uint256"
        }
      ],
      "name": "deposit",
      "outputs": [],
      "stateMutability": "payable",
      "type": "function"
    },
    {
      "inputs": [
        {
          "internalType": "address",
          "name": "_user",
          "type": "address"
        }
      ],
      "name": "getAccountIDs",
      "outputs": [
        {
          "internalType": "uint256[]",
          "name": "",
          "type": "uint256[]"
        }
      ],
      "stateMutability": "view",
      "type": "function"
    },
    {
      "inputs": [],
      "name": "getAccountOverview",
      "outputs": [
        {
          "internalType": "address[]",
          "name": "",
          "type": "address[]"
        },
        {
          "internalType": "uint256[]",
          "name": "",
          "type": "uint256[]"
        }
      ],
      "stateMutability": "view",
      "type": "function"
    },
    {
      "inputs": [
        {
          "internalType": "address",
          "name": "_token",
          "type": "address"
        },
        {
          "internalType": "uint256",
          "name": "_walletID",
          "type": "uint256"
        }
      ],
      "name": "getMoolaBalance",
      "outputs": [
        {
          "internalType": "uint256",
          "name": "currentATokenBalance",
          "type": "uint256"
        }
      ],
      "stateMutability": "view",
      "type": "function"
    },
    {
      "inputs": [
        {
          "internalType": "address",
          "name": "_tok1",
          "type": "address"
        },
        {
          "internalType": "address",
          "name": "_tok2",
          "type": "address"
        }
      ],
      "name": "getPoolAddress",
      "outputs": [
        {
          "internalType": "address",
          "name": "",
          "type": "address"
        }
      ],
      "stateMutability": "view",
      "type": "function"
    },
    {
      "inputs": [
        {
          "internalType": "uint256",
          "name": "_walletID",
          "type": "uint256"
        }
      ],
      "name": "getWallet",
      "outputs": [
        {
          "internalType": "string",
          "name": "",
          "type": "string"
        },
        {
          "internalType": "address",
          "name": "",
          "type": "address"
        }
      ],
      "stateMutability": "view",
      "type": "function"
    },
    {
      "inputs": [
        {
          "internalType": "uint256",
          "name": "_walletID",
          "type": "uint256"
        }
      ],
      "name": "getWalletAddress",
      "outputs": [
        {
          "internalType": "address",
          "name": "",
          "type": "address"
        }
      ],
      "stateMutability": "view",
      "type": "function"
    },
    {
      "inputs": [
        {
          "internalType": "uint256",
          "name": "_walletID",
          "type": "uint256"
        }
      ],
      "name": "getWalletBasis",
      "outputs": [
        {
          "internalType": "address[]",
          "name": "tokens",
          "type": "address[]"
        },
        {
          "internalType": "uint256[]",
          "name": "balances",
          "type": "uint256[]"
        }
      ],
      "stateMutability": "view",
      "type": "function"
    },
    {
      "inputs": [
        {
          "internalType": "address",
          "name": "_tokIn",
          "type": "address"
        },
        {
          "internalType": "address",
          "name": "_tokOut",
          "type": "address"
        },
        {
          "internalType": "uint256",
          "name": "_amtIn",
          "type": "uint256"
        },
        {
          "internalType": "uint256",
          "name": "_minOut",
          "type": "uint256"
        },
        {
          "internalType": "uint256",
          "name": "_walletID",
          "type": "uint256"
        }
      ],
      "name": "makeSwap",
      "outputs": [
        {
          "internalType": "uint256",
          "name": "_received",
          "type": "uint256"
        }
      ],
      "stateMutability": "nonpayable",
      "type": "function"
    },
    {
      "inputs": [
        {
          "internalType": "address",
          "name": "_token",
          "type": "address"
        },
        {
          "internalType": "uint256",
          "name": "_amount",
          "type": "uint256"
        },
        {
          "internalType": "uint256",
          "name": "_walletID",
          "type": "uint256"
        }
      ],
      "name": "moolaDeposit",
      "outputs": [],
      "stateMutability": "payable",
      "type": "function"
    },
    {
      "inputs": [
        {
          "internalType": "address",
          "name": "_token",
          "type": "address"
        },
        {
          "internalType": "uint256",
          "name": "_amount",
          "type": "uint256"
        },
        {
          "internalType": "uint256",
          "name": "_walletID",
          "type": "uint256"
        }
      ],
      "name": "moolaWithdraw",
      "outputs": [],
      "stateMutability": "payable",
      "type": "function"
    },
    {
      "inputs": [
        {
          "internalType": "string",
          "name": "name",
          "type": "string"
        }
      ],
      "name": "newWallet",
      "outputs": [
        {
          "internalType": "bool",
          "name": "",
          "type": "bool"
        }
      ],
      "stateMutability": "nonpayable",
      "type": "function"
    },
    {
      "inputs": [
        {
          "internalType": "address",
          "name": "_baseToken",
          "type": "address"
        },
        {
          "internalType": "uint256",
          "name": "_baseAmount",
          "type": "uint256"
        },
        {
          "internalType": "address",
          "name": "_tok1",
          "type": "address"
        },
        {
          "internalType": "address",
          "name": "_tok2",
          "type": "address"
        },
        {
          "internalType": "uint256",
          "name": "_walletId",
          "type": "uint256"
        }
      ],
      "name": "oneTokenToFarm",
      "outputs": [],
      "stateMutability": "nonpayable",
      "type": "function"
    },
    {
      "inputs": [
        {
          "internalType": "uint256",
          "name": "_walletID",
          "type": "uint256"
        }
      ],
      "name": "persistWallet",
      "outputs": [
        {
          "internalType": "string",
          "name": "",
          "type": "string"
        }
      ],
      "stateMutability": "nonpayable",
      "type": "function"
    },
    {
      "inputs": [
        {
          "internalType": "address",
          "name": "_tok1",
          "type": "address"
        },
        {
          "internalType": "address",
          "name": "_tok2",
          "type": "address"
        },
        {
          "internalType": "uint256",
          "name": "_liquidity",
          "type": "uint256"
        },
        {
          "internalType": "uint256",
          "name": "_min1",
          "type": "uint256"
        },
        {
          "internalType": "uint256",
          "name": "_min2",
          "type": "uint256"
        },
        {
          "internalType": "uint256",
          "name": "_walletID",
          "type": "uint256"
        }
      ],
      "name": "removeLiquidity",
      "outputs": [
        {
          "internalType": "bytes",
          "name": "",
          "type": "bytes"
        }
      ],
      "stateMutability": "nonpayable",
      "type": "function"
    },
    {
      "inputs": [
        {
          "internalType": "uint256",
          "name": "_amount",
          "type": "uint256"
        },
        {
          "internalType": "uint256",
          "name": "_minBuyAmount",
          "type": "uint256"
        },
        {
          "internalType": "uint256",
          "name": "_walletID",
          "type": "uint256"
        }
      ],
      "name": "sellCelo",
      "outputs": [],
      "stateMutability": "nonpayable",
      "type": "function"
    },
    {
      "inputs": [
        {
          "internalType": "address",
          "name": "_token",
          "type": "address"
        },
        {
          "internalType": "uint256",
          "name": "_receiver",
          "type": "uint256"
        },
        {
          "internalType": "uint256",
          "name": "_amount",
          "type": "uint256"
        },
        {
          "internalType": "uint256",
          "name": "_walletID",
          "type": "uint256"
        }
      ],
      "name": "send",
      "outputs": [],
      "stateMutability": "payable",
      "type": "function"
    },
    {
      "inputs": [
        {
          "internalType": "address",
          "name": "_pair",
          "type": "address"
        },
        {
          "internalType": "uint256",
          "name": "_amount",
          "type": "uint256"
        },
        {
          "internalType": "uint256",
          "name": "_walletId",
          "type": "uint256"
        }
      ],
      "name": "stakeLiquidity",
      "outputs": [],
      "stateMutability": "nonpayable",
      "type": "function"
    },
    {
      "inputs": [
        {
          "internalType": "address",
          "name": "_tok1",
          "type": "address"
        },
        {
          "internalType": "address",
          "name": "_tok2",
          "type": "address"
        },
        {
          "internalType": "uint256",
          "name": "_amt1",
          "type": "uint256"
        },
        {
          "internalType": "uint256",
          "name": "_amt2",
          "type": "uint256"
        },
        {
          "internalType": "uint256",
          "name": "_walletId",
          "type": "uint256"
        }
      ],
      "name": "twoTokensToFarm",
      "outputs": [],
      "stateMutability": "nonpayable",
      "type": "function"
    },
    {
      "inputs": [
        {
          "internalType": "address",
          "name": "_tok1",
          "type": "address"
        },
        {
          "internalType": "address",
          "name": "_tok2",
          "type": "address"
        },
        {
          "internalType": "uint256",
          "name": "_amt",
          "type": "uint256"
        },
        {
          "internalType": "uint256",
          "name": "_walletId",
          "type": "uint256"
        }
      ],
      "name": "ubeStakeTokens",
      "outputs": [],
      "stateMutability": "nonpayable",
      "type": "function"
    },
    {
      "inputs": [
        {
          "internalType": "uint256",
          "name": "",
          "type": "uint256"
        }
      ],
      "name": "walletIDToWallet",
      "outputs": [
        {
          "internalType": "string",
          "name": "name",
          "type": "string"
        },
        {
          "internalType": "string",
          "name": "role",
          "type": "string"
        },
        {
          "internalType": "address",
          "name": "addr",
          "type": "address"
        },
        {
          "internalType": "address",
          "name": "owner",
          "type": "address"
        },
        {
          "internalType": "uint256",
          "name": "id",
          "type": "uint256"
        }
      ],
      "stateMutability": "view",
      "type": "function"
    },
    {
      "inputs": [
        {
          "internalType": "address",
          "name": "_token",
          "type": "address"
        },
        {
          "internalType": "uint256",
          "name": "_amount",
          "type": "uint256"
        },
        {
          "internalType": "uint256",
          "name": "_walletID",
          "type": "uint256"
        }
      ],
      "name": "withdraw",
      "outputs": [],
      "stateMutability": "payable",
      "type": "function"
    },
    {
      "inputs": [
        {
          "internalType": "address",
          "name": "_pair",
          "type": "address"
        },
        {
          "internalType": "uint256",
          "name": "_amount",
          "type": "uint256"
        },
        {
          "internalType": "uint256",
          "name": "_walletId",
          "type": "uint256"
        }
      ],
      "name": "withdrawLiquidityPair",
      "outputs": [],
      "stateMutability": "nonpayable",
      "type": "function"
    }
  ],
  "bytecode": "0x60806040523480156200001157600080fd5b5060405162007155380380620071558339810160408190526200003491620000a4565b600680546001600160a01b039384166001600160a01b03199182161790915560016005819055336000908152600360205260409020805460ff1916909117905560048054929093169116179055620000db565b80516001600160a01b03811681146200009f57600080fd5b919050565b60008060408385031215620000b7578182fd5b620000c28362000087565b9150620000d26020840162000087565b90509250929050565b61706a80620000eb6000396000f3fe6080604052600436106200024e5760003560e01c8063704802751162000139578063af27652711620000c1578063d0a00f91116200008b578063e7b5ae48116200006d578063e7b5ae481462000733578063e99a9d731462000758578063fd14c815146200077d576200024e565b8063d0a00f9114620006e9578063e04a23a6146200070e576200024e565b8063af2765271462000663578063b5c5f6721462000688578063c674645d146200069f578063cb804eae14620006c4576200024e565b80638d30d30311620001035780638d30d30314620005b957806391c98a2a14620005de57806396200bfe1462000614578063a55d89ef146200062b576200024e565b80637048027514620005225780637a7bb9e7146200054757806384f27862146200056c5780638bb3ef4d1462000591576200024e565b806343d57fc611620001db578063509c67a311620001a55780635bdebd2c11620001875780635bdebd2c14620004b35780636372c9e814620004d8578063668095d614620004fd576200024e565b8063509c67a314620004595780635470b13b146200047e576200024e565b806343d57fc614620003a757806344483d5314620003cc57806349696da8146200040057806349ec96bb1462000434576200024e565b80631bccf2c2116200021d5780631bccf2c214620003035780632ef140ef146200033757806330af9be0146200034e5780633fa1e0c81462000373576200024e565b806301287e1114620002535780630733679114620002905780630efe6a8b14620002b75780631a8ff07b14620002ce575b600080fd5b3480156200026057600080fd5b50620002786200027236600462003b52565b62000794565b6040516200028791906200414c565b60405180910390f35b3480156200029d57600080fd5b50620002b5620002af366004620038bd565b620009a9565b005b620002b5620002c83660046200391e565b62000aef565b348015620002db57600080fd5b50620002f3620002ed36600462003711565b62000bc0565b60405162000287929190620045d6565b3480156200031057600080fd5b5062000328620003223660046200374e565b62000d18565b604051620002879190620045cd565b620002b56200034836600462003955565b62000d58565b3480156200035b57600080fd5b50620002b56200036d3660046200391e565b62000ebc565b3480156200038057600080fd5b50620003986200039236600462003711565b62000ede565b60405162000287919062003ef6565b348015620003b457600080fd5b50620002b5620003c63660046200391e565b62000f0c565b348015620003d957600080fd5b50620003f1620003eb36600462003832565b62000f28565b60405162000287919062004157565b3480156200040d57600080fd5b50620004256200041f366004620036d3565b62001175565b60405162000287919062004137565b3480156200044157600080fd5b50620002b56200045336600462003ca2565b6200121b565b3480156200046657600080fd5b50620002b5620004783660046200388f565b62001422565b3480156200048b57600080fd5b50620004a36200049d36600462003c18565b62001541565b604051620002879291906200416c565b348015620004c057600080fd5b5062000328620004d2366004620037dd565b62001631565b348015620004e557600080fd5b50620002b5620004f73660046200374e565b62001a0b565b3480156200050a57600080fd5b50620003286200051c3660046200388f565b62001a3e565b3480156200052f57600080fd5b50620002b562000541366004620036d3565b62001a70565b3480156200055457600080fd5b50620002b56200056636600462003ca2565b62001ae4565b3480156200057957600080fd5b50620002b56200058b36600462003793565b62001c89565b3480156200059e57600080fd5b50620005a962001d64565b604051620002879291906200410e565b348015620005c657600080fd5b5062000328620005d83660046200388f565b62001ecc565b348015620005eb57600080fd5b5062000603620005fd366004620037dd565b62001f1c565b604051620002879392919062004622565b620002b5620006253660046200391e565b620022ba565b3480156200063857600080fd5b50620006506200064a36600462003c18565b62002547565b6040516200028795949392919062004199565b3480156200067057600080fd5b506200039862000682366004620036d3565b620026a2565b620002b5620006993660046200391e565b620027be565b348015620006ac57600080fd5b50620003f1620006be36600462003c18565b62002855565b348015620006d157600080fd5b5062000398620006e336600462003c18565b62002882565b348015620006f657600080fd5b50620005a96200070836600462003c18565b620028d0565b3480156200071b57600080fd5b50620003286200072d3660046200388f565b6200298c565b3480156200074057600080fd5b50620002b562000752366004620038bd565b62002a5c565b3480156200076557600080fd5b50620002b562000777366004620037dd565b62002a81565b620002b56200078e3660046200391e565b62002aa2565b600654604051600091829133916001600160a01b031690620007b6906200356a565b620007c392919062003f0a565b604051809103906000f080158015620007e0573d6000803e3d6000fd5b506005546000818152600160209081526040808320338085529284905292208054949550909391929091159062000819848a8a62003578565b506002840180546001600160a01b0388167fffffffffffffffffffffffff0000000000000000000000000000000000000000918216179091556003850180549091163317905582546001810184556000848152602081209091018290556005805491620008868362004795565b90915550503360009081526002602090815260409182902083905560065482517fee26c57600000000000000000000000000000000000000000000000000000000815292516001600160a01b039091169263ee26c576926004808301939192829003018186803b158015620008fa57600080fd5b505afa1580156200090f573d6000803e3d6000fd5b505050506040513d601f19601f82011682018060405250810190620009359190620036f2565b6001600160a01b0316630d3798e43388856040518463ffffffff1660e01b8152600401620009669392919062003fc6565b600060405180830381600087803b1580156200098157600080fd5b505af115801562000996573d6000803e3d6000fd5b5060019c9b505050505050505050505050565b816001600160a01b0316836001600160a01b03161415620009e75760405162461bcd60e51b8152600401620009de90620044dc565b60405180910390fd5b6000620009f48262002c07565b9050600062000a05600287620046ae565b9050600080886001600160a01b0316876001600160a01b03161462000a6e5760008062000a338b8a62000bc0565b91509150600062000a4686848462002c5a565b905062000a638c8b8862000a5c6005866200470f565b8c62001631565b945050505062000a72565b8291505b886001600160a01b0316866001600160a01b03161462000acf5760008062000a9b8b8962000bc0565b91509150600062000aae86848462002c5a565b905062000ac48c8a8862000a5c6005866200470f565b935050505062000ad2565b50815b62000ae1878784848962001f1c565b505050505050505050505050565b600062000afc8262002c07565b90507f1de3ece35391f6bba650736f2d5d3f12e2cfc54538a340cc5d762d34ca449de781858560405162000b339392919062004021565b60405180910390a16040517f8340f5490000000000000000000000000000000000000000000000000000000081526001600160a01b03821690638340f5499062000b869033908890889060040162004021565b600060405180830381600087803b15801562000ba157600080fd5b505af115801562000bb6573d6000803e3d6000fd5b5050505050505050565b600080600062000bd1858562002d05565b9050600080826001600160a01b0316630902f1ac6040518163ffffffff1660e01b815260040160606040518083038186803b15801562000c1057600080fd5b505afa15801562000c25573d6000803e3d6000fd5b505050506040513d601f19601f8201168201806040525081019062000c4b919062003bc4565b506dffffffffffffffffffffffffffff1691506dffffffffffffffffffffffffffff169150866001600160a01b0316836001600160a01b0316630dfe16816040518163ffffffff1660e01b815260040160206040518083038186803b15801562000cb457600080fd5b505afa15801562000cc9573d6000803e3d6000fd5b505050506040513d601f19601f8201168201806040525081019062000cef9190620036f2565b6001600160a01b03161462000d0657808262000d09565b81815b945094505050505b9250929050565b60008062000d268362002c07565b9050600062000d4062000d3862002d24565b878762002dae565b905062000d4e818562001ecc565b9695505050505050565b600062000d658262002c07565b9050600062000d748562002c07565b6040517f06e83e2f0000000000000000000000000000000000000000000000000000000081529091506001600160a01b038316906306e83e2f9062000dc49033908a9086908a9060040162003f68565b600060405180830381600087803b15801562000ddf57600080fd5b505af115801562000df4573d6000803e3d6000fd5b50506040517fe4921c100000000000000000000000000000000000000000000000000000000081526001600160a01b038416925063e4921c10915062000e419089908890600401620040d1565b600060405180830381600087803b15801562000e5c57600080fd5b505af115801562000e71573d6000803e3d6000fd5b505050507f979ece407f0f9d2e856185e9ad64957140d0f2085942c94da79e6507903c5de78282888760405162000eac949392919062003f68565b60405180910390a1505050505050565b600062000ec98262002c07565b905062000ed884848362002e27565b50505050565b60008062000ef762000eef62002d24565b858562002dae565b905062000f0481620026a2565b949350505050565b600062000f198262002c07565b905062000ed884848362002ed7565b6060600062000f378362002c07565b9050600062000f4562002ff0565b9050600062000f558a8a62002d05565b60405163167ae91560e21b81529091506001600160a01b038416906359eba4549062000f8c903390859087908e9060040162003f68565b600060405180830381600087803b15801562000fa757600080fd5b505af115801562000fbc573d6000803e3d6000fd5b505060405163167ae91560e21b81526001600160a01b03861692506359eba454915062000ff4903390859081908e9060040162003f68565b600060405180830381600087803b1580156200100f57600080fd5b505af115801562001024573d6000803e3d6000fd5b50505050600060405180608001604052806048815260200162006fa0604891398b8b8b8b8b894260405160240162001063979695949392919062004091565b60408051601f198184030181529082905291620010809162003e57565b60408051918290039091206020830180517bffffffffffffffffffffffffffffffffffffffffffffffffffffffff167fffffffff00000000000000000000000000000000000000000000000000000000909216919091179052516337d701cd60e01b81529091506001600160a01b038516906337d701cd906200110c9033908790869060040162003fea565b600060405180830381600087803b1580156200112757600080fd5b505af11580156200113c573d6000803e3d6000fd5b505050506040513d6000823e601f3d908101601f1916820160405262001166919081019062003ab7565b9b9a5050505050505050505050565b6001600160a01b038116600090815260208190526040902054606090620011b05760405162461bcd60e51b8152600401620009de90620042b2565b6001600160a01b03821660009081526020818152604091829020805483518184028101840190945280845290918301828280156200120e57602002820191906000526020600020905b815481526020019060010190808311620011f9575b505050505090505b919050565b6000620012288262002c07565b60065460405163bf40fac160e01b81529192506000916001600160a01b039091169063bf40fac1906200125e90600401620041e7565b60206040518083038186803b1580156200127757600080fd5b505afa1580156200128c573d6000803e3d6000fd5b505050506040513d601f19601f82011682018060405250810190620012b29190620036f2565b905060008585604051602401620012cb929190620045d6565b60408051601f198184030181529181526020820180517bffffffffffffffffffffffffffffffffffffffffffffffffffffffff167f8fe240f0000000000000000000000000000000000000000000000000000000001790525163167ae91560e21b81529091506001600160a01b038416906359eba454906200135990339060009087908b9060040162003f68565b600060405180830381600087803b1580156200137457600080fd5b505af115801562001389573d6000803e3d6000fd5b50506040516337d701cd60e01b81526001600160a01b03861692506337d701cd9150620013bf9033908690869060040162003fea565b600060405180830381600087803b158015620013da57600080fd5b505af1158015620013ef573d6000803e3d6000fd5b505050506040513d6000823e601f3d908101601f1916820160405262001419919081019062003ab7565b50505050505050565b600062001430838362001ecc565b9050600083905062000ed872be915b9dcf56a3cbe739d9b9c202ca692409ec83836001600160a01b0316630dfe16816040518163ffffffff1660e01b815260040160206040518083038186803b1580156200148a57600080fd5b505afa1580156200149f573d6000803e3d6000fd5b505050506040513d601f19601f82011682018060405250810190620014c59190620036f2565b846001600160a01b031663d21220a76040518163ffffffff1660e01b815260040160206040518083038186803b158015620014ff57600080fd5b505afa15801562001514573d6000803e3d6000fd5b505050506040513d601f19601f820116820180604052508101906200153a9190620036f2565b8762002a5c565b6000818152600160205260408120600281015460609291906001600160a01b0316620015815760405162461bcd60e51b8152600401620009de9062004346565b6002810154815482916001600160a01b0316908290620015a19062004758565b80601f0160208091040260200160405190810160405280929190818152602001828054620015cf9062004758565b8015620016205780601f10620015f45761010080835404028352916020019162001620565b820191906000526020600020905b8154815290600101906020018083116200160257829003601f168201915b505050505091509250925050915091565b6000806200163f8362002c07565b905060006200164d62002ff0565b905060006200165d898962002d05565b60405163167ae91560e21b81529091506001600160a01b038416906359eba45490620016949033908d9086908d9060040162003f68565b600060405180830381600087803b158015620016af57600080fd5b505af1158015620016c4573d6000803e3d6000fd5b505060405163167ae91560e21b81526001600160a01b03861692506359eba4549150620016fc9033908d9087908d9060040162003f68565b600060405180830381600087803b1580156200171757600080fd5b505af11580156200172c573d6000803e3d6000fd5b5060009250600291506200173d9050565b60405190808252806020026020018201604052801562001767578160200160208202803683370190505b50905089816000815181106200178d57634e487b7160e01b600052603260045260246000fd5b60200260200101906001600160a01b031690816001600160a01b0316815250508881600181518110620017d057634e487b7160e01b600052603260045260246000fd5b60200260200101906001600160a01b031690816001600160a01b031681525050600060405180608001604052806043815260200162006f5d60439139898984884260405160240162001827959493929190620045e4565b60408051601f198184030181529082905291620018449162003e57565b60408051918290039091206020830180517bffffffffffffffffffffffffffffffffffffffffffffffffffffffff167fffffffff00000000000000000000000000000000000000000000000000000000909216919091179052516337d701cd60e01b81529091506000906001600160a01b038716906337d701cd90620018d39033908990879060040162003fea565b600060405180830381600087803b158015620018ee57600080fd5b505af115801562001903573d6000803e3d6000fd5b505050506040513d6000823e601f3d908101601f191682016040526200192d919081019062003ab7565b905060008180602001905181019062001947919062003a63565b90507fe2df93bcc2a434fd508bce88fe5d790bb098616aece9a397b210b1f918f1f4d2878e8e8e85600187516200197f91906200470f565b815181106200199e57634e487b7160e01b600052603260045260246000fd5b6020026020010151604051620019b995949392919062003f92565b60405180910390a18060018251620019d291906200470f565b81518110620019f157634e487b7160e01b600052603260045260246000fd5b602002602001015197505050505050505095945050505050565b600062001a1a84848462000d18565b905062000ed872be915b9dcf56a3cbe739d9b9c202ca692409ec8286868662002a5c565b6000602052816000526040600020818154811062001a5b57600080fd5b90600052602060002001600091509150505481565b3360009081526003602052604090205460ff1662001aa25760405162461bcd60e51b8152600401620009de906200430f565b6001600160a01b0316600090815260036020526040902080547fffffffffffffffffffffffffffffffffffffffffffffffffffffffffffffff00166001179055565b600062001af18262002c07565b90506000848460405160240162001b0a929190620045d6565b60408051601f198184030181529181526020820180517bffffffffffffffffffffffffffffffffffffffffffffffffffffffff167f907ba1ea00000000000000000000000000000000000000000000000000000000179052600654905163bf40fac160e01b81529192506000916001600160a01b039091169063bf40fac19062001b9790600401620041e7565b60206040518083038186803b15801562001bb057600080fd5b505afa15801562001bc5573d6000803e3d6000fd5b505050506040513d601f19601f8201168201806040525081019062001beb9190620036f2565b60405163167ae91560e21b81529091506001600160a01b038416906359eba4549062001c2390339060009086908b9060040162003f68565b600060405180830381600087803b15801562001c3e57600080fd5b505af115801562001c53573d6000803e3d6000fd5b50506040516337d701cd60e01b81526001600160a01b03861692506337d701cd9150620013bf9033908590879060040162003fea565b600062001c968262002c07565b9050600062001ca862000d3862002d24565b90506000841562001cba578462001d55565b6040517f70a082310000000000000000000000000000000000000000000000000000000081526001600160a01b038316906370a082319062001d0190869060040162003ef6565b60206040518083038186803b15801562001d1a57600080fd5b505afa15801562001d2f573d6000803e3d6000fd5b505050506040513d601f19601f8201168201806040525081019062001d55919062003c31565b90506200141982828662000f0c565b3360009081526020818152604080832080548251818502810185019093528083526060948594909392919083018282801562001dc057602002820191906000526020600020905b81548152602001906001019080831162001dab575b505050505090506000815167ffffffffffffffff81111562001df257634e487b7160e01b600052604160045260246000fd5b60405190808252806020026020018201604052801562001e1c578160200160208202803683370190505b50905060005b825181101562001ec5576000606062001e6385848151811062001e5557634e487b7160e01b600052603260045260246000fd5b602002602001015162001541565b80935081925050508184848151811062001e8d57634e487b7160e01b600052603260045260246000fd5b60200260200101906001600160a01b031690816001600160a01b0316815250505050808062001ebc9062004795565b91505062001e22565b5050509091565b60008062001eda8362002c07565b9050600062001eea858362003021565b9050600062001f0e72be915b9dcf56a3cbe739d9b9c202ca692409ec8387620031ba565b905062000d4e81836200470f565b60008060008062001f2d8562002c07565b9050600062001f3b62002ff0565b9050600062001f4b8b8b62002d05565b90508815620020255760405163167ae91560e21b81526001600160a01b038416906359eba4549062001f889033908f9086908f9060040162003f68565b600060405180830381600087803b15801562001fa357600080fd5b505af115801562001fb8573d6000803e3d6000fd5b505060405163167ae91560e21b81526001600160a01b03861692506359eba454915062001ff09033908f9087908f9060040162003f68565b600060405180830381600087803b1580156200200b57600080fd5b505af115801562002020573d6000803e3d6000fd5b505050505b8715620020fd5760405163167ae91560e21b81526001600160a01b038416906359eba45490620020609033908e9086908e9060040162003f68565b600060405180830381600087803b1580156200207b57600080fd5b505af115801562002090573d6000803e3d6000fd5b505060405163167ae91560e21b81526001600160a01b03861692506359eba4549150620020c89033908e9087908e9060040162003f68565b600060405180830381600087803b158015620020e357600080fd5b505af1158015620020f8573d6000803e3d6000fd5b505050505b60006040518060800160405280604d815260200162006fe8604d91398c8c8c8c6000808a426040516024016200213b98979695949392919062004045565b60408051601f198184030181529082905291620021589162003e57565b60408051918290039091206020830180517bffffffffffffffffffffffffffffffffffffffffffffffffffffffff167fffffffff00000000000000000000000000000000000000000000000000000000909216919091179052516337d701cd60e01b81529091506000906001600160a01b038616906337d701cd90620021e79033908890879060040162003fea565b600060405180830381600087803b1580156200220257600080fd5b505af115801562002217573d6000803e3d6000fd5b505050506040513d6000823e601f3d908101601f1916820160405262002241919081019062003ab7565b90508080602001905181019062002259919062003cce565b809850819950829a505050507f2a4b10176712f843f13a5a3c22ba63a21ab24da24329c7ee082ffe5111b1527f85848f8f8a8d8d604051620022a2979695949392919062003f24565b60405180910390a15050505050955095509592505050565b6000620022c78262002c07565b90506000620022d5620032f8565b905060006040518060400160405280601f81526020017f6465706f73697428616464726573732c75696e743235362c75696e7431362900815250868660006040516024016200232793929190620040ea565b60408051601f198184030181529082905291620023449162003e57565b60405180910390207bffffffffffffffffffffffffffffffffffffffffffffffffffffffff19166020820180517bffffffffffffffffffffffffffffffffffffffffffffffffffffffff838183161783525050505090506000600660009054906101000a90046001600160a01b03166001600160a01b031663247851726040518163ffffffff1660e01b815260040160206040518083038186803b158015620023ec57600080fd5b505afa15801562002401573d6000803e3d6000fd5b505050506040513d601f19601f82011682018060405250810190620024279190620036f2565b6001600160a01b0316876001600160a01b0316141562002449575084620024bb565b836001600160a01b03166359eba454338962002464620033fe565b8a6040518563ffffffff1660e01b815260040162002486949392919062003f68565b600060405180830381600087803b158015620024a157600080fd5b505af1158015620024b6573d6000803e3d6000fd5b505050505b6040516337d701cd60e01b81526001600160a01b038516906337d701cd90620024ed9033908790879060040162003fea565b600060405180830381600087803b1580156200250857600080fd5b505af11580156200251d573d6000803e3d6000fd5b505050506040513d6000823e601f3d908101601f1916820160405262000bb6919081019062003ab7565b600160205260009081526040902080548190620025649062004758565b80601f0160208091040260200160405190810160405280929190818152602001828054620025929062004758565b8015620025e35780601f10620025b757610100808354040283529160200191620025e3565b820191906000526020600020905b815481529060010190602001808311620025c557829003601f168201915b505050505090806001018054620025fa9062004758565b80601f0160208091040260200160405190810160405280929190818152602001828054620026289062004758565b8015620026795780601f106200264d5761010080835404028352916020019162002679565b820191906000526020600020905b8154815290600101906020018083116200265b57829003601f168201915b505050506002830154600384015460049094015492936001600160a01b03918216939116915085565b60065460405163bf40fac160e01b815260009182916001600160a01b039091169063bf40fac190620026d790600401620044a5565b60206040518083038186803b158015620026f057600080fd5b505afa15801562002705573d6000803e3d6000fd5b505050506040513d601f19601f820116820180604052508101906200272b9190620036f2565b90506000816001600160a01b031663a4063dbc856040518263ffffffff1660e01b81526004016200275d919062003ef6565b60a06040518083038186803b1580156200277657600080fd5b505afa1580156200278b573d6000803e3d6000fd5b505050506040513d601f19601f82011682018060405250810190620027b1919062003c4a565b5090979650505050505050565b6000620027cb8262002c07565b90507f05eb62c58353b6d904c9c25c0b3455179f3a2e5a16130b0b391c5cf62e7b27fe818585604051620028029392919062004021565b60405180910390a16040517fd9caed120000000000000000000000000000000000000000000000000000000081526001600160a01b0382169063d9caed129062000b869033908890889060040162004021565b606060006060620028668462001541565b5033600090815260026020526040902085905592505050919050565b600081815260016020526040812060028101546001600160a01b0316620028bd5760405162461bcd60e51b8152600401620009de9062004346565b600201546001600160a01b031692915050565b6060806000620028e08462002c07565b6040517f319b09570000000000000000000000000000000000000000000000000000000081529091506001600160a01b0382169063319b0957906200292a90339060040162003ef6565b60006040518083038186803b1580156200294357600080fd5b505afa15801562002958573d6000803e3d6000fd5b505050506040513d6000823e601f3d908101601f1916820160405262002982919081019062003992565b9250925050915091565b6000806200299a8362002c07565b90506000620029a8620032f8565b6040517f28dd2d010000000000000000000000000000000000000000000000000000000081529091506001600160a01b038216906328dd2d0190620029f4908890869060040162003f0a565b6101406040518083038186803b15801562002a0e57600080fd5b505afa15801562002a23573d6000803e3d6000fd5b505050506040513d601f19601f8201168201806040525081019062002a49919062003cfc565b50979d9c50505050505050505050505050565b62002a6b8585858585620009a9565b62002a7a838360008462001c89565b5050505050565b62002a90858585858562001f1c565b50505062002a7a858560008462001c89565b600062002aaf8262002c07565b905060006040518060400160405280600f81526020017f72656465656d2875696e743235362900000000000000000000000000000000008152508460405160240162002afc9190620045cd565b60408051601f19818403018152908290529162002b199162003e57565b60408051918290039091206020830180517bffffffffffffffffffffffffffffffffffffffffffffffffffffffff167fffffffff00000000000000000000000000000000000000000000000000000000909216919091179052516337d701cd60e01b81529091506001600160a01b038316906337d701cd9062002ba59033908990869060040162003fea565b600060405180830381600087803b15801562002bc057600080fd5b505af115801562002bd5573d6000803e3d6000fd5b505050506040513d6000823e601f3d908101601f1916820160405262002bff919081019062003ab7565b505050505050565b600080821562002c18578262002c29565b336000908152600260205260409020545b90508062002c4b5760405162461bcd60e51b8152600401620009de9062004411565b6000606062000d4e8362001541565b600080841162002c7e5760405162461bcd60e51b8152600401620009de9062004570565b60008311801562002c8f5750600082115b62002cae5760405162461bcd60e51b8152600401620009de906200421e565b600062002cbe856103e5620034c3565b9050600062002cce8285620034c3565b9050600062002cec8362002ce5886103e8620034c3565b90620034d1565b905062002cfa8183620046ae565b979650505050505050565b600062002d1d62002d1562002d24565b848462002dae565b9392505050565b60065460405163bf40fac160e01b81526000916001600160a01b03169063bf40fac19062002d55906004016200437d565b60206040518083038186803b15801562002d6e57600080fd5b505afa15801562002d83573d6000803e3d6000fd5b505050506040513d601f19601f8201168201806040525081019062002da99190620036f2565b905090565b600080600062002dbf8585620034df565b91509150600086838360405160200162002ddb92919062003e1d565b6040516020818303038152906040528051906020012060405160200162002e0492919062003e75565b60408051601f198184030181529190528051602090910120979650505050505050565b80600062002e3585620026a2565b905060008460405160240162002e4c9190620045cd565b60408051601f198184030181529181526020820180517bffffffffffffffffffffffffffffffffffffffffffffffffffffffff167f2e1a7d4d00000000000000000000000000000000000000000000000000000000179052516337d701cd60e01b81529091506001600160a01b038416906337d701cd90620013bf9033908690869060040162003fea565b80600062002ee585620026a2565b60405163167ae91560e21b81529091506001600160a01b038316906359eba4549062002f1c903390899086908a9060040162003f68565b600060405180830381600087803b15801562002f3757600080fd5b505af115801562002f4c573d6000803e3d6000fd5b5050505060008460405160240162002f659190620045cd565b60408051601f198184030181529181526020820180517bffffffffffffffffffffffffffffffffffffffffffffffffffffffff167fa694fc3a00000000000000000000000000000000000000000000000000000000179052516337d701cd60e01b81529091506001600160a01b038416906337d701cd90620013bf9033908690869060040162003fea565b60065460405163bf40fac160e01b81526000916001600160a01b03169063bf40fac19062002d55906004016200446e565b600081816200303085620026a2565b6040517e8cc2620000000000000000000000000000000000000000000000000000000081529091506001600160a01b03821690628cc262906200307890879060040162003ef6565b60206040518083038186803b1580156200309157600080fd5b505afa158015620030a6573d6000803e3d6000fd5b505050506040513d601f19601f82011682018060405250810190620030cc919062003c31565b6040805160048082526024820183526020820180517bffffffffffffffffffffffffffffffffffffffffffffffffffffffff167f3d18b9120000000000000000000000000000000000000000000000000000000017905291516337d701cd60e01b8152929550916001600160a01b038516916337d701cd9162003156913391879187910162003fea565b600060405180830381600087803b1580156200317157600080fd5b505af115801562003186573d6000803e3d6000fd5b505050506040513d6000823e601f3d908101601f19168201604052620031b0919081019062003ab7565b5050505092915050565b600080620031c88362002c07565b90506000620031d9600a86620046ae565b6004805460405163167ae91560e21b81529293506001600160a01b03808616936359eba45493620032149333938d9391169188910162003f68565b600060405180830381600087803b1580156200322f57600080fd5b505af115801562003244573d6000803e3d6000fd5b5050600480546040517f23b872dd0000000000000000000000000000000000000000000000000000000081526001600160a01b03808c1695506323b872dd9450620032989388939091169187910162004021565b602060405180830381600087803b158015620032b357600080fd5b505af1158015620032c8573d6000803e3d6000fd5b505050506040513d601f19601f82011682018060405250810190620032ee919062003a9a565b5095945050505050565b60065460405163bf40fac160e01b815260009182916001600160a01b039091169063bf40fac1906200332d906004016200427b565b60206040518083038186803b1580156200334657600080fd5b505afa1580156200335b573d6000803e3d6000fd5b505050506040513d601f19601f82011682018060405250810190620033819190620036f2565b9050806001600160a01b0316630261bf8b6040518163ffffffff1660e01b815260040160206040518083038186803b158015620033bd57600080fd5b505afa158015620033d2573d6000803e3d6000fd5b505050506040513d601f19601f82011682018060405250810190620033f89190620036f2565b91505090565b60065460405163bf40fac160e01b815260009182916001600160a01b039091169063bf40fac19062003433906004016200427b565b60206040518083038186803b1580156200344c57600080fd5b505afa15801562003461573d6000803e3d6000fd5b505050506040513d601f19601f82011682018060405250810190620034879190620036f2565b9050806001600160a01b031663ed6ff7606040518163ffffffff1660e01b815260040160206040518083038186803b158015620033bd57600080fd5b600062002d1d8284620046cf565b600062002d1d828462004693565b600080826001600160a01b0316846001600160a01b03161415620035175760405162461bcd60e51b8152600401620009de90620043b4565b826001600160a01b0316846001600160a01b031610620035395782846200353c565b83835b90925090506001600160a01b03821662000d115760405162461bcd60e51b8152600401620009de9062004539565b612746806200481783390190565b828054620035869062004758565b90600052602060002090601f016020900481019282620035aa576000855562003613565b82601f10620035e3578280017fffffffffffffffffffffffffffffffffffffffffffffffffffffffffffffff0082351617855562003613565b8280016001018555821562003613579182015b8281111562003613578235825591602001919060010190620035f6565b506200362192915062003625565b5090565b5b8082111562003621576000815560010162003626565b600082601f8301126200364d578081fd5b815160206200366662003660836200466c565b62004638565b828152818101908583018385028701840188101562003683578586fd5b855b85811015620027b15781518452928401929084019060010162003685565b805180151581146200121657600080fd5b80516dffffffffffffffffffffffffffff811681146200121657600080fd5b600060208284031215620036e5578081fd5b813562002d1d81620047fd565b60006020828403121562003704578081fd5b815162002d1d81620047fd565b6000806040838503121562003724578081fd5b82356200373181620047fd565b915060208301356200374381620047fd565b809150509250929050565b60008060006060848603121562003763578081fd5b83356200377081620047fd565b925060208401356200378281620047fd565b929592945050506040919091013590565b60008060008060808587031215620037a9578081fd5b8435620037b681620047fd565b93506020850135620037c881620047fd565b93969395505050506040820135916060013590565b600080600080600060a08688031215620037f5578081fd5b85356200380281620047fd565b945060208601356200381481620047fd565b94979496505050506040830135926060810135926080909101359150565b60008060008060008060c087890312156200384b578081fd5b86356200385881620047fd565b955060208701356200386a81620047fd565b95989597505050506040840135936060810135936080820135935060a0909101359150565b60008060408385031215620038a2578182fd5b8235620038af81620047fd565b946020939093013593505050565b600080600080600060a08688031215620038d5578283fd5b8535620038e281620047fd565b9450602086013593506040860135620038fb81620047fd565b925060608601356200390d81620047fd565b949793965091946080013592915050565b60008060006060848603121562003933578081fd5b83356200394081620047fd565b95602085013595506040909401359392505050565b600080600080608085870312156200396b578182fd5b84356200397881620047fd565b966020860135965060408601359560600135945092505050565b60008060408385031215620039a5578182fd5b825167ffffffffffffffff80821115620039bd578384fd5b818501915085601f830112620039d1578384fd5b81516020620039e462003660836200466c565b82815281810190858301838502870184018b101562003a01578889fd5b8896505b8487101562003a3057805162003a1b81620047fd565b83526001969096019591830191830162003a05565b509188015191965090935050508082111562003a4a578283fd5b5062003a59858286016200363c565b9150509250929050565b60006020828403121562003a75578081fd5b815167ffffffffffffffff81111562003a8c578182fd5b62000f04848285016200363c565b60006020828403121562003aac578081fd5b62002d1d82620036a3565b60006020828403121562003ac9578081fd5b815167ffffffffffffffff8082111562003ae1578283fd5b818401915084601f83011262003af5578283fd5b81518181111562003b0a5762003b0a620047e7565b62003b1f6020601f19601f8401160162004638565b915080825285602082850101111562003b36578384fd5b62003b4981602084016020860162004729565b50949350505050565b6000806020838503121562003b65578182fd5b823567ffffffffffffffff8082111562003b7d578384fd5b818501915085601f83011262003b91578384fd5b81358181111562003ba0578485fd5b86602082850101111562003bb2578485fd5b60209290920196919550909350505050565b60008060006060848603121562003bd9578081fd5b62003be484620036b4565b925062003bf460208501620036b4565b9150604084015163ffffffff8116811462003c0d578182fd5b809150509250925092565b60006020828403121562003c2a578081fd5b5035919050565b60006020828403121562003c43578081fd5b5051919050565b600080600080600060a0868803121562003c62578283fd5b85519450602086015162003c7681620047fd565b604087015190945062003c8981620047fd565b6060870151608090970151959894975095949392505050565b60008060006060848603121562003cb7578081fd5b505081359360208301359350604090920135919050565b60008060006060848603121562003ce3578081fd5b8351925060208401519150604084015190509250925092565b6000806000806000806000806000806101408b8d03121562003d1c578788fd5b8a51995060208b0151985060408b0151975060608b0151965060808b0151955060a08b0151945060c08b0151935060e08b015192506101008b0151915062003d686101208c01620036a3565b90509295989b9194979a5092959850565b6000815180845260208085019450808401835b8381101562003db35781516001600160a01b03168752958201959082019060010162003d8c565b509495945050505050565b6000815180845260208085019450808401835b8381101562003db35781518752958201959082019060010162003dd1565b6000815180845262003e0981602086016020860162004729565b601f01601f19169290920160200192915050565b7fffffffffffffffffffffffffffffffffffffffff000000000000000000000000606093841b811682529190921b16601482015260280190565b6000825162003e6b81846020870162004729565b9190910192915050565b7fff00000000000000000000000000000000000000000000000000000000000000815260609290921b7fffffffffffffffffffffffffffffffffffffffff00000000000000000000000016600183015260158201527fb3b8ff62960acea3a88039ebcf80699f15786f1b17cebd82802f7375827a339c603582015260550190565b6001600160a01b0391909116815260200190565b6001600160a01b0392831681529116602082015260400190565b6001600160a01b03978816815295871660208701529386166040860152919094166060840152608083019390935260a082019290925260c081019190915260e00190565b6001600160a01b039485168152928416602084015292166040820152606081019190915260800190565b6001600160a01b03958616815293851660208501529190931660408301526060820192909252608081019190915260a00190565b6001600160a01b039384168152919092166020820152901515604082015260600190565b60006001600160a01b0380861683528085166020840152506060604083015262004018606083018462003def565b95945050505050565b6001600160a01b039384168152919092166020820152604081019190915260600190565b6001600160a01b03988916815296881660208801526040870195909552606086019390935260ff91821660808601521660a084015290921660c082015260e08101919091526101000190565b6001600160a01b039788168152958716602087015260408601949094526060850192909252608084015290921660a082015260c081019190915260e00190565b6001600160a01b03929092168252602082015260400190565b6001600160a01b03939093168352602083019190915260ff16604082015260600190565b60006040825262004123604083018562003d79565b828103602084015262004018818562003dbe565b60006020825262002d1d602083018462003dbe565b901515815260200190565b60006020825262002d1d602083018462003def565b60006040825262004181604083018562003def565b90506001600160a01b03831660208301529392505050565b600060a08252620041ae60a083018862003def565b8281036020840152620041c2818862003def565b6001600160a01b03968716604085015294909516606083015250608001529392505050565b60208082526008908201527f65786368616e6765000000000000000000000000000000000000000000000000604082015260600190565b60208082526021908201527f476574416d6f756e743a20494e53554646494349454e545f4c4951554944495460408201527f5900000000000000000000000000000000000000000000000000000000000000606082015260800190565b6020808252600d908201527f6d6f6f6c6150726f766964657200000000000000000000000000000000000000604082015260600190565b60208082526022908201527f4164647265737320646f6573206e6f74206861766520616e79206163636f756e60408201527f7473000000000000000000000000000000000000000000000000000000000000606082015260800190565b60208082526015908201527f55736572206d75737420626520616e2061646d696e0000000000000000000000604082015260600190565b60208082526015908201527f57616c6c657420646f6573206e6f742065786973740000000000000000000000604082015260600190565b6020808252600e908201527f55626573776170466163746f7279000000000000000000000000000000000000604082015260600190565b60208082526025908201527f556e697377617056324c6962726172793a204944454e544943414c5f4144445260408201527f4553534553000000000000000000000000000000000000000000000000000000606082015260800190565b60208082526029908201527f50726f7669646520612077616c6c65742069642c206f7220706572736973742060408201527f612077616c6c65742e0000000000000000000000000000000000000000000000606082015260800190565b6020808252600d908201527f55626573776170526f7574657200000000000000000000000000000000000000604082015260600190565b60208082526010908201527f55626520506f6f6c204d616e6167657200000000000000000000000000000000604082015260600190565b60208082526032908201527f4d75737420737065636966792074776f20646966666572656e7420617373657460408201527f7320746f2061646420746f20746865204c500000000000000000000000000000606082015260800190565b6020808252601e908201527f556e697377617056324c6962726172793a205a45524f5f414444524553530000604082015260600190565b60208082526024908201527f476574416d6f756e743a20494e53554646494349454e545f494e5055545f414d60408201527f4f554e5400000000000000000000000000000000000000000000000000000000606082015260800190565b90815260200190565b918252602082015260400190565b600086825285602083015260a060408301526200460560a083018662003d79565b6001600160a01b0394909416606083015250608001529392505050565b9283526020830191909152604082015260600190565b604051601f8201601f1916810167ffffffffffffffff81118282101715620046645762004664620047e7565b604052919050565b600067ffffffffffffffff821115620046895762004689620047e7565b5060209081020190565b60008219821115620046a957620046a9620047d1565b500190565b600082620046ca57634e487b7160e01b81526012600452602481fd5b500490565b6000817fffffffffffffffffffffffffffffffffffffffffffffffffffffffffffffffff04831182151516156200470a576200470a620047d1565b500290565b600082821015620047245762004724620047d1565b500390565b60005b83811015620047465781810151838201526020016200472c565b8381111562000ed85750506000910152565b6002810460018216806200476d57607f821691505b602082108114156200478f57634e487b7160e01b600052602260045260246000fd5b50919050565b60007fffffffffffffffffffffffffffffffffffffffffffffffffffffffffffffffff821415620047ca57620047ca620047d1565b5060010190565b634e487b7160e01b600052601160045260246000fd5b634e487b7160e01b600052604160045260246000fd5b6001600160a01b03811681146200481357600080fd5b5056fe60806040523480156200001157600080fd5b50604051620027463803806200274683398101604081905262000034916200009b565b600180546001600160a01b03199081166001600160a01b0394851690811783556000908152600460205260408120805460ff191690931790925581541691909216179055620000d2565b80516001600160a01b03811681146200009657600080fd5b919050565b60008060408385031215620000ae578182fd5b620000b9836200007e565b9150620000c9602084016200007e565b90509250929050565b61266480620000e26000396000f3fe6080604052600436106100b15760003560e01c80638340f54911610069578063d9caed121161004e578063d9caed121461018a578063e4921c10146101aa578063f2ae6bab146101ca576100b1565b80638340f5491461016f578063a3e76c0f14610182576100b1565b806337d701cd1161009a57806337d701cd1461010257806359eba4541461012f578063602c6f241461014f576100b1565b806306e83e2f146100b6578063319b0957146100cb575b600080fd5b6100c96100c4366004611dcf565b6101ea565b005b3480156100d757600080fd5b506100eb6100e6366004611d58565b6107b8565b6040516100f9929190612126565b60405180910390f35b34801561010e57600080fd5b5061012261011d366004611e1f565b610a4f565b6040516100f991906121a9565b34801561013b57600080fd5b506100c961014a366004611dcf565b610c10565b34801561015b57600080fd5b506100c961016a366004611f0e565b610d83565b6100c961017d366004611f5b565b610f9f565b6100c96112f1565b34801561019657600080fd5b506100c96101a5366004611f5b565b6112f3565b3480156101b657600080fd5b506100c96101c5366004611f9b565b6118b7565b3480156101d657600080fd5b506100c96101e5366004611d97565b6119b1565b60008054906101000a90046001600160a01b03166001600160a01b0316637dba887b6040518163ffffffff1660e01b815260040160206040518083038186803b15801561023657600080fd5b505afa15801561024a573d6000803e3d6000fd5b505050506040513d601f19601f8201168201806040525081019061026e9190611d7b565b6001600160a01b0316336001600160a01b0316148061029757506001546001600160a01b031633145b6102bc5760405162461bcd60e51b81526004016102b390612352565b60405180910390fd5b6001600160a01b038416600090815260046020526040902054849060ff166102f65760405162461bcd60e51b81526004016102b3906122f5565b600085816001600160a01b03821660009081526005602052604090205460ff16600381111561033557634e487b7160e01b600052602160045260246000fd5b146103525760405162461bcd60e51b81526004016102b39061222a565b6001600160a01b03871660009081526004602052604090205460ff1661038a5760405162461bcd60e51b81526004016102b39061248b565b600054604080517f24785172000000000000000000000000000000000000000000000000000000008152905188926001600160a01b0316916324785172916004808301926020929190829003018186803b1580156103e757600080fd5b505afa1580156103fb573d6000803e3d6000fd5b505050506040513d601f19601f8201168201806040525081019061041f9190611d7b565b6001600160a01b0316876001600160a01b0316146106e6576000851561044557856104da565b6040517f70a082310000000000000000000000000000000000000000000000000000000081526001600160a01b038316906370a082319061048a903090600401612064565b60206040518083038186803b1580156104a257600080fd5b505afa1580156104b6573d6000803e3d6000fd5b505050506040513d601f19601f820116820180604052508101906104da9190611fe6565b6040517f70a082310000000000000000000000000000000000000000000000000000000081529091506001600160a01b038316906370a0823190610522903090600401612064565b60206040518083038186803b15801561053a57600080fd5b505afa15801561054e573d6000803e3d6000fd5b505050506040513d601f19601f820116820180604052508101906105729190611fe6565b8111156105915760405162461bcd60e51b81526004016102b390612287565b6040517f095ea7b30000000000000000000000000000000000000000000000000000000081526001600160a01b0383169063095ea7b3906105d8908a90859060040161210d565b602060405180830381600087803b1580156105f257600080fd5b505af1158015610606573d6000803e3d6000fd5b505050506040513d601f19601f8201168201806040525081019061062a9190611fc6565b6106465760405162461bcd60e51b81526004016102b39061241d565b6040517fa9059cbb0000000000000000000000000000000000000000000000000000000081526001600160a01b0383169063a9059cbb9061068d908a90859060040161210d565b602060405180830381600087803b1580156106a757600080fd5b505af11580156106bb573d6000803e3d6000fd5b505050506040513d601f19601f820116820180604052508101906106df9190611fc6565b5050610781565b6040517fa9059cbb0000000000000000000000000000000000000000000000000000000081526001600160a01b0382169063a9059cbb9061072d908990899060040161210d565b602060405180830381600087803b15801561074757600080fd5b505af115801561075b573d6000803e3d6000fd5b505050506040513d601f19601f8201168201806040525081019061077f9190611fc6565b505b6001600160a01b038716600090815260026020526040812080548792906107a990849061256e565b90915550505050505050505050565b60608060008054906101000a90046001600160a01b03166001600160a01b0316637dba887b6040518163ffffffff1660e01b815260040160206040518083038186803b15801561080757600080fd5b505afa15801561081b573d6000803e3d6000fd5b505050506040513d601f19601f8201168201806040525081019061083f9190611d7b565b6001600160a01b0316336001600160a01b0316148061086857506001546001600160a01b031633145b6108845760405162461bcd60e51b81526004016102b390612352565b6001600160a01b038316600090815260046020526040902054839060ff166108be5760405162461bcd60e51b81526004016102b3906122f5565b6001600160a01b03841660009081526004602052604090205460ff166108f65760405162461bcd60e51b81526004016102b3906121f3565b60035460009067ffffffffffffffff81111561092257634e487b7160e01b600052604160045260246000fd5b60405190808252806020026020018201604052801561094b578160200160208202803683370190505b50905060005b6003548110156109e457600260006003838154811061098057634e487b7160e01b600052603260045260246000fd5b60009182526020808320909101546001600160a01b0316835282019290925260400190205482518390839081106109c757634e487b7160e01b600052603260045260246000fd5b6020908102919091010152806109dc816125b1565b915050610951565b5060038181805480602002602001604051908101604052809291908181526020018280548015610a3d57602002820191906000526020600020905b81546001600160a01b03168152600190910190602001808311610a1f575b50505050509150935093505050915091565b600054604080517f7dba887b00000000000000000000000000000000000000000000000000000000815290516060926001600160a01b031691637dba887b916004808301926020929190829003018186803b158015610aad57600080fd5b505afa158015610ac1573d6000803e3d6000fd5b505050506040513d601f19601f82011682018060405250810190610ae59190611d7b565b6001600160a01b0316336001600160a01b03161480610b0e57506001546001600160a01b031633145b610b2a5760405162461bcd60e51b81526004016102b390612352565b6001600160a01b038416600090815260046020526040902054849060ff16610b645760405162461bcd60e51b81526004016102b3906122f5565b600085816001600160a01b03821660009081526005602052604090205460ff166003811115610ba357634e487b7160e01b600052602160045260246000fd5b14610bc05760405162461bcd60e51b81526004016102b39061222a565b7fd358f396b0a567971ec8d1592d1a4d5ae4cc3925a55e356359645a6ca8ef54d3868689604051610bf39392919061209c565b60405180910390a1610c058686611bcb565b979650505050505050565b60008054906101000a90046001600160a01b03166001600160a01b0316637dba887b6040518163ffffffff1660e01b815260040160206040518083038186803b158015610c5c57600080fd5b505afa158015610c70573d6000803e3d6000fd5b505050506040513d601f19601f82011682018060405250810190610c949190611d7b565b6001600160a01b0316336001600160a01b03161480610cbd57506001546001600160a01b031633145b610cd95760405162461bcd60e51b81526004016102b390612352565b6001600160a01b038416600090815260046020526040902054849060ff16610d135760405162461bcd60e51b81526004016102b3906122f5565b600085816001600160a01b03821660009081526005602052604090205460ff166003811115610d5257634e487b7160e01b600052602160045260246000fd5b14610d6f5760405162461bcd60e51b81526004016102b39061222a565b610d7a868686611c6d565b50505050505050565b60008054906101000a90046001600160a01b03166001600160a01b0316637dba887b6040518163ffffffff1660e01b815260040160206040518083038186803b158015610dcf57600080fd5b505afa158015610de3573d6000803e3d6000fd5b505050506040513d601f19601f82011682018060405250810190610e079190611d7b565b6001600160a01b0316336001600160a01b03161480610e3057506001546001600160a01b031633145b610e4c5760405162461bcd60e51b81526004016102b390612352565b6001600160a01b038316600090815260046020526040902054839060ff16610e865760405162461bcd60e51b81526004016102b3906122f5565b600084816001600160a01b03821660009081526005602052604090205460ff166003811115610ec557634e487b7160e01b600052602160045260246000fd5b14610ee25760405162461bcd60e51b81526004016102b39061222a565b6001600160a01b0385166000908152600460209081526040808320805460017fffffffffffffffffffffffffffffffffffffffffffffffffffffffffffffff009182168117909255600590935292208054879391921690836003811115610f5957634e487b7160e01b600052602160045260246000fd5b02179055507f0ed8a6a6a166243876472f7a8610b62c1a76c67911642d39ff34ead38105534f8585604051610f8f9291906120d2565b60405180910390a1505050505050565b60008054906101000a90046001600160a01b03166001600160a01b0316637dba887b6040518163ffffffff1660e01b815260040160206040518083038186803b158015610feb57600080fd5b505afa158015610fff573d6000803e3d6000fd5b505050506040513d601f19601f820116820180604052508101906110239190611d7b565b6001600160a01b0316336001600160a01b0316148061104c57506001546001600160a01b031633145b6110685760405162461bcd60e51b81526004016102b390612352565b6001600160a01b038316600090815260046020526040902054839060ff166110a25760405162461bcd60e51b81526004016102b3906122f5565b836003806001600160a01b03831660009081526005602052604090205460ff1660038111156110e157634e487b7160e01b600052602160045260246000fd5b14156110ff5760405162461bcd60e51b81526004016102b390612389565b60008054906101000a90046001600160a01b03166001600160a01b031663247851726040518163ffffffff1660e01b815260040160206040518083038186803b15801561114b57600080fd5b505afa15801561115f573d6000803e3d6000fd5b505050506040513d601f19601f820116820180604052508101906111839190611d7b565b6001600160a01b0316856001600160a01b03161461123b576040517f23b872dd00000000000000000000000000000000000000000000000000000000815285906001600160a01b038216906323b872dd906111e6908a9030908a90600401612078565b602060405180830381600087803b15801561120057600080fd5b505af1158015611214573d6000803e3d6000fd5b505050506040513d601f19601f820116820180604052508101906112389190611fc6565b50505b6001600160a01b0385166000908152600260205260409020546112bc57600380546001810182556000919091527fc2575a0e9e593c00f959f8c92f12db2869c3395a3b0502d05e2516446f71f85b0180547fffffffffffffffffffffffff0000000000000000000000000000000000000000166001600160a01b0387161790555b6001600160a01b038516600090815260026020526040812080548692906112e4908490612556565b9091555050505050505050565b565b60008054906101000a90046001600160a01b03166001600160a01b0316637dba887b6040518163ffffffff1660e01b815260040160206040518083038186803b15801561133f57600080fd5b505afa158015611353573d6000803e3d6000fd5b505050506040513d601f19601f820116820180604052508101906113779190611d7b565b6001600160a01b0316336001600160a01b031614806113a057506001546001600160a01b031633145b6113bc5760405162461bcd60e51b81526004016102b390612352565b6001600160a01b038316600090815260046020526040902054839060ff166113f65760405162461bcd60e51b81526004016102b3906122f5565b600084816001600160a01b03821660009081526005602052604090205460ff16600381111561143557634e487b7160e01b600052602160045260246000fd5b146114525760405162461bcd60e51b81526004016102b39061222a565b6001600160a01b03861660009081526004602052604090205460ff1661148a5760405162461bcd60e51b81526004016102b3906121bc565b600054604080517f24785172000000000000000000000000000000000000000000000000000000008152905187926001600160a01b0316916324785172916004808301926020929190829003018186803b1580156114e757600080fd5b505afa1580156114fb573d6000803e3d6000fd5b505050506040513d601f19601f8201168201806040525081019061151f9190611d7b565b6001600160a01b0316866001600160a01b0316146117e6576000851561154557856115da565b6040517f70a082310000000000000000000000000000000000000000000000000000000081526001600160a01b038316906370a082319061158a903090600401612064565b60206040518083038186803b1580156115a257600080fd5b505afa1580156115b6573d6000803e3d6000fd5b505050506040513d601f19601f820116820180604052508101906115da9190611fe6565b6040517f70a082310000000000000000000000000000000000000000000000000000000081529091506001600160a01b038316906370a0823190611622903090600401612064565b60206040518083038186803b15801561163a57600080fd5b505afa15801561164e573d6000803e3d6000fd5b505050506040513d601f19601f820116820180604052508101906116729190611fe6565b8111156116915760405162461bcd60e51b81526004016102b390612287565b6040517f095ea7b30000000000000000000000000000000000000000000000000000000081526001600160a01b0383169063095ea7b3906116d8908b90859060040161210d565b602060405180830381600087803b1580156116f257600080fd5b505af1158015611706573d6000803e3d6000fd5b505050506040513d601f19601f8201168201806040525081019061172a9190611fc6565b6117465760405162461bcd60e51b81526004016102b3906122be565b6040517fa9059cbb0000000000000000000000000000000000000000000000000000000081526001600160a01b0383169063a9059cbb9061178d908b90859060040161210d565b602060405180830381600087803b1580156117a757600080fd5b505af11580156117bb573d6000803e3d6000fd5b505050506040513d601f19601f820116820180604052508101906117df9190611fc6565b5050611881565b6040517fa9059cbb0000000000000000000000000000000000000000000000000000000081526001600160a01b0382169063a9059cbb9061182d908a90899060040161210d565b602060405180830381600087803b15801561184757600080fd5b505af115801561185b573d6000803e3d6000fd5b505050506040513d601f19601f8201168201806040525081019061187f9190611fc6565b505b6001600160a01b038616600090815260026020526040812080548792906118a990849061256e565b909155505050505050505050565b60008054906101000a90046001600160a01b03166001600160a01b0316637dba887b6040518163ffffffff1660e01b815260040160206040518083038186803b15801561190357600080fd5b505afa158015611917573d6000803e3d6000fd5b505050506040513d601f19601f8201168201806040525081019061193b9190611d7b565b6001600160a01b0316336001600160a01b0316148061196457506001546001600160a01b031633145b6119805760405162461bcd60e51b81526004016102b390612352565b6001600160a01b038216600090815260026020526040812080548392906119a8908490612556565b90915550505050565b60008054906101000a90046001600160a01b03166001600160a01b0316637dba887b6040518163ffffffff1660e01b815260040160206040518083038186803b1580156119fd57600080fd5b505afa158015611a11573d6000803e3d6000fd5b505050506040513d601f19601f82011682018060405250810190611a359190611d7b565b6001600160a01b0316336001600160a01b03161480611a5e57506001546001600160a01b031633145b611a7a5760405162461bcd60e51b81526004016102b390612352565b6001600160a01b038216600090815260046020526040902054829060ff16611ab45760405162461bcd60e51b81526004016102b3906122f5565b600083816001600160a01b03821660009081526005602052604090205460ff166003811115611af357634e487b7160e01b600052602160045260246000fd5b14611b105760405162461bcd60e51b81526004016102b39061222a565b6001546001600160a01b0385811691161415611b3e5760405162461bcd60e51b81526004016102b3906124f9565b6001600160a01b038416600090815260046020908152604080832080547fffffffffffffffffffffffffffffffffffffffffffffffffffffffffffffff001690556005909152908190205490517f34a1009b84e077aee5bc8197faf7105e54f9ba6879e2a51a716e4156ea9ad76991611bbc91879160ff16906120d2565b60405180910390a15050505050565b60606001600160a01b038316611bf35760405162461bcd60e51b81526004016102b390612454565b600080846001600160a01b031684604051611c0e9190612048565b6000604051808303816000865af19150503d8060008114611c4b576040519150601f19603f3d011682016040523d82523d6000602084013e611c50565b606091505b50915091506000821415611c65573d60208201fd5b949350505050565b6001600160a01b038316611c935760405162461bcd60e51b81526004016102b3906123e6565b6001600160a01b038216611cb95760405162461bcd60e51b81526004016102b3906124c2565b6040517f095ea7b30000000000000000000000000000000000000000000000000000000081526001600160a01b0384169063095ea7b390611d00908590859060040161210d565b602060405180830381600087803b158015611d1a57600080fd5b505af1158015611d2e573d6000803e3d6000fd5b505050506040513d601f19601f82011682018060405250810190611d529190611fc6565b50505050565b600060208284031215611d69578081fd5b8135611d7481612616565b9392505050565b600060208284031215611d8c578081fd5b8151611d7481612616565b60008060408385031215611da9578081fd5b8235611db481612616565b91506020830135611dc481612616565b809150509250929050565b60008060008060808587031215611de4578182fd5b8435611def81612616565b93506020850135611dff81612616565b92506040850135611e0f81612616565b9396929550929360600135925050565b600080600060608486031215611e33578283fd5b8335611e3e81612616565b92506020840135611e4e81612616565b9150604084013567ffffffffffffffff80821115611e6a578283fd5b818601915086601f830112611e7d578283fd5b813581811115611e8f57611e8f612600565b604051601f82017fffffffffffffffffffffffffffffffffffffffffffffffffffffffffffffffe0908116603f01168101908382118183101715611ed557611ed5612600565b81604052828152896020848701011115611eed578586fd5b82602086016020830137856020848301015280955050505050509250925092565b600080600060608486031215611f22578283fd5b8335611f2d81612616565b92506020840135611f3d81612616565b9150604084013560048110611f50578182fd5b809150509250925092565b600080600060608486031215611f6f578283fd5b8335611f7a81612616565b92506020840135611f8a81612616565b929592945050506040919091013590565b60008060408385031215611fad578182fd5b8235611fb881612616565b946020939093013593505050565b600060208284031215611fd7578081fd5b81518015158114611d74578182fd5b600060208284031215611ff7578081fd5b5051919050565b60008151808452612016816020860160208601612585565b601f017fffffffffffffffffffffffffffffffffffffffffffffffffffffffffffffffe0169290920160200192915050565b6000825161205a818460208701612585565b9190910192915050565b6001600160a01b0391909116815260200190565b6001600160a01b039384168152919092166020820152604081019190915260600190565b60006001600160a01b038086168352606060208401526120bf6060840186611ffe565b9150808416604084015250949350505050565b6001600160a01b0383168152604081016004831061210057634e487b7160e01b600052602160045260246000fd5b8260208301529392505050565b6001600160a01b03929092168252602082015260400190565b604080825283519082018190526000906020906060840190828701845b828110156121685781516001600160a01b031684529284019290840190600101612143565b50505083810382850152845180825285830191830190845b8181101561219c57835183529284019291840191600101612180565b5090979650505050505050565b600060208252611d746020830184611ffe565b60208082526015908201527f556e617574686f72697a65642077697468647261770000000000000000000000604082015260600190565b60208082526013908201527f556e617574686f72697a65642071756572792e00000000000000000000000000604082015260600190565b6020808252602d908201527f557365722069732074686520696e636f727265637420726f6c6520666f72207460408201527f686973206f7065726174696f6e00000000000000000000000000000000000000606082015260800190565b60208082526012908201527f496e73756666696369656e742066756e64730000000000000000000000000000604082015260600190565b60208082526016908201527f546f6b656e20617070726f76616c206661696c65642100000000000000000000604082015260600190565b6020808252602c908201527f55736572206973206e6f7420617574686f72697a656420746f2061636365737360408201527f20746869732077616c6c65740000000000000000000000000000000000000000606082015260800190565b60208082526013908201527f556e617574686f72697a65642061636365737300000000000000000000000000604082015260600190565b6020808252602f908201527f55736572206973206e6f742074686520636f727265637420726f6c6520666f7260408201527f2074686973206f7065726174696f6e0000000000000000000000000000000000606082015260800190565b60208082526015908201527f496e76616c696420746f6b656e20616464726573730000000000000000000000604082015260600190565b60208082526015908201527f546f6b656e20617070726f76616c206661696c65640000000000000000000000604082015260600190565b6020808252600f908201527f54617267657420696e76616c6964210000000000000000000000000000000000604082015260600190565b60208082526016908201527f556e617574686f72697a6564207472616e736665722e00000000000000000000604082015260600190565b60208082526010908201527f496e76616c696420617070726f76656500000000000000000000000000000000604082015260600190565b60208082526024908201527f546865206f726967696e616c206f776e65722063616e6e6f742062652072657660408201527f6f6b656400000000000000000000000000000000000000000000000000000000606082015260800190565b60008219821115612569576125696125ea565b500190565b600082821015612580576125806125ea565b500390565b60005b838110156125a0578181015183820152602001612588565b83811115611d525750506000910152565b60007fffffffffffffffffffffffffffffffffffffffffffffffffffffffffffffffff8214156125e3576125e36125ea565b5060010190565b634e487b7160e01b600052601160045260246000fd5b634e487b7160e01b600052604160045260246000fd5b6001600160a01b038116811461262b57600080fd5b5056fea2646970667358221220677de2c65f84c7109aa97bb1a6549c1786ea6f03c1743c68b42a2d3e8df432ef64736f6c63430008010033737761704578616374546f6b656e73466f72546f6b656e732875696e743235362c75696e743235362c616464726573735b5d2c616464726573732c75696e743235362972656d6f76654c697175696469747928616464726573732c616464726573732c75696e743235362c75696e743235362c75696e743235362c616464726573732c75696e74323536296164644c697175696469747928616464726573732c616464726573732c75696e743235362c75696e743235362c75696e743235362c75696e743235362c616464726573732c75696e7432353629a2646970667358221220dc0624e4f0821f50cce13b2bca9c4b6254b354ebb178635b3da0b3426866179164736f6c63430008010033",
  "linkReferences": {},
  "deployedLinkReferences": {}
}