{
  "_format": "hh-sol-artifact-1",
  "contractName": "Storage",
  "sourceName": "contracts/Storage.sol",
  "abi": [
    {
      "inputs": [],
      "stateMutability": "nonpayable",
      "type": "constructor"
    },
    {
      "inputs": [
        {
          "internalType": "address",
          "name": "_address",
          "type": "address"
        }
      ],
      "name": "addAdmin",
      "outputs": [],
      "stateMutability": "nonpayable",
      "type": "function"
    },
    {
      "inputs": [
        {
          "internalType": "address",
          "name": "_contract",
          "type": "address"
        }
      ],
      "name": "canEmitEvents",
      "outputs": [
        {
          "internalType": "bool",
          "name": "",
          "type": "bool"
        }
      ],
      "stateMutability": "nonpayable",
      "type": "function"
    },
    {
      "inputs": [
        {
          "internalType": "string",
          "name": "_name",
          "type": "string"
        }
      ],
      "name": "getAddress",
      "outputs": [
        {
          "internalType": "address",
          "name": "",
          "type": "address"
        }
      ],
      "stateMutability": "view",
      "type": "function"
    },
    {
      "inputs": [
        {
          "internalType": "address",
          "name": "_user",
          "type": "address"
        }
      ],
      "name": "getAdminStatus",
      "outputs": [
        {
          "internalType": "bool",
          "name": "",
          "type": "bool"
        }
      ],
      "stateMutability": "view",
      "type": "function"
    },
    {
      "inputs": [],
      "name": "getCentro",
      "outputs": [
        {
          "internalType": "address",
          "name": "",
          "type": "address"
        }
      ],
      "stateMutability": "view",
      "type": "function"
    },
    {
      "inputs": [],
      "name": "getEthAddress",
      "outputs": [
        {
          "internalType": "address",
          "name": "",
          "type": "address"
        }
      ],
      "stateMutability": "pure",
      "type": "function"
    },
    {
      "inputs": [],
      "name": "getEventEmitter",
      "outputs": [
        {
          "internalType": "address",
          "name": "",
          "type": "address"
        }
      ],
      "stateMutability": "view",
      "type": "function"
    },
    {
      "inputs": [
        {
          "internalType": "address[]",
          "name": "_addresses",
          "type": "address[]"
        }
      ],
      "name": "init",
      "outputs": [],
      "stateMutability": "nonpayable",
      "type": "function"
    },
    {
      "inputs": [
        {
          "internalType": "string",
          "name": "_name",
          "type": "string"
        },
        {
          "internalType": "address payable",
          "name": "_contract",
          "type": "address"
        }
      ],
      "name": "newAddress",
      "outputs": [],
      "stateMutability": "nonpayable",
      "type": "function"
    },
    {
      "inputs": [
        {
          "internalType": "address",
          "name": "_address",
          "type": "address"
        }
      ],
      "name": "setCentroContractAddress",
      "outputs": [],
      "stateMutability": "nonpayable",
      "type": "function"
    },
    {
      "inputs": [
        {
          "internalType": "address",
          "name": "_address",
          "type": "address"
        }
      ],
      "name": "setEventEmitterAddress",
      "outputs": [],
      "stateMutability": "nonpayable",
      "type": "function"
    }
  ],
  "bytecode": "0x608060405234801561001057600080fd5b506003805460ff60a01b19169055610a9e8061002d6000396000f3fe608060405234801561001057600080fd5b50600436106100c95760003560e01c8063bf40fac111610081578063eafde0641161005b578063eafde0641461010c578063ee26c57614610134578063f46a5c9e14610175576100c9565b8063bf40fac11461013c578063c5efea681461014f578063c6044c4614610162576100c9565b80635b765b64116100b25780635b765b641461010c57806370480275146101215780637dba887b14610134576100c9565b8063150bfe05146100ce57806324785172146100f7575b600080fd5b6100e16100dc36600461064e565b610188565b6040516100ee91906108b7565b60405180910390f35b6100ff61018e565b6040516100ee9190610896565b61011f61011a36600461064e565b6101a6565b005b61011f61012f36600461064e565b610261565b6100ff61031b565b6100ff61014a3660046107a2565b610337565b6100e161015d36600461064e565b6103fb565b61011f610170366004610671565b610426565b61011f610183366004610724565b610577565b50600190565b73eeeeeeeeeeeeeeeeeeeeeeeeeeeeeeeeeeeeeeee90565b3360009081526020819052604090205460ff16806101db575060025473ffffffffffffffffffffffffffffffffffffffff1633145b61021a576040517f08c379a000000000000000000000000000000000000000000000000000000000815260040161021190610930565b60405180910390fd5b600280547fffffffffffffffffffffffff00000000000000000000000000000000000000001673ffffffffffffffffffffffffffffffffffffffff92909216919091179055565b3360009081526020819052604090205460ff1680610296575060025473ffffffffffffffffffffffffffffffffffffffff1633145b6102cc576040517f08c379a000000000000000000000000000000000000000000000000000000000815260040161021190610930565b73ffffffffffffffffffffffffffffffffffffffff16600090815260208190526040902080547fffffffffffffffffffffffffffffffffffffffffffffffffffffffffffffff00166001179055565b60025473ffffffffffffffffffffffffffffffffffffffff1690565b60008073ffffffffffffffffffffffffffffffffffffffff16600183604051610360919061085d565b9081526040519081900360200190205473ffffffffffffffffffffffffffffffffffffffff1614156103be576040517f08c379a0000000000000000000000000000000000000000000000000000000008152600401610211906108f9565b6001826040516103ce919061085d565b9081526040519081900360200190205473ffffffffffffffffffffffffffffffffffffffff169050919050565b73ffffffffffffffffffffffffffffffffffffffff1660009081526020819052604090205460ff1690565b60035474010000000000000000000000000000000000000000900460ff161561047b576040517f08c379a0000000000000000000000000000000000000000000000000000000008152600401610211906108c2565b60005b81518110156105345760016000808484815181106104c5577f4e487b7100000000000000000000000000000000000000000000000000000000600052603260045260246000fd5b60209081029190910181015173ffffffffffffffffffffffffffffffffffffffff16825281019190915260400160002080547fffffffffffffffffffffffffffffffffffffffffffffffffffffffffffffff00169115159190911790558061052c816109b6565b91505061047e565b5050600380547fffffffffffffffffffffff00ffffffffffffffffffffffffffffffffffffffff1674010000000000000000000000000000000000000000179055565b3360009081526020819052604090205460ff16806105ac575060025473ffffffffffffffffffffffffffffffffffffffff1633145b6105e2576040517f08c379a000000000000000000000000000000000000000000000000000000000815260040161021190610930565b80600184846040516105f592919061084d565b908152604051908190036020019020805473ffffffffffffffffffffffffffffffffffffffff929092167fffffffffffffffffffffffff0000000000000000000000000000000000000000909216919091179055505050565b60006020828403121561065f578081fd5b813561066a81610a43565b9392505050565b60006020808385031215610683578182fd5b823567ffffffffffffffff8082111561069a578384fd5b818501915085601f8301126106ad578384fd5b8135818111156106bf576106bf610a14565b83810291506106cf848301610967565b8181528481019084860184860187018a10156106e9578788fd5b8795505b83861015610717578035945061070285610a43565b848352600195909501949186019186016106ed565b5098975050505050505050565b600080600060408486031215610738578182fd5b833567ffffffffffffffff8082111561074f578384fd5b818601915086601f830112610762578384fd5b813581811115610770578485fd5b876020828501011115610781578485fd5b6020928301955093505084013561079781610a43565b809150509250925092565b600060208083850312156107b4578182fd5b823567ffffffffffffffff808211156107cb578384fd5b818501915085601f8301126107de578384fd5b8135818111156107f0576107f0610a14565b610820847fffffffffffffffffffffffffffffffffffffffffffffffffffffffffffffffe0601f84011601610967565b91508082528684828501011115610835578485fd5b80848401858401378101909201929092529392505050565b6000828483379101908152919050565b60008251815b8181101561087d5760208186018101518583015201610863565b8181111561088b5782828501525b509190910192915050565b73ffffffffffffffffffffffffffffffffffffffff91909116815260200190565b901515815260200190565b6020808252601a908201527f696e69742068617320616c7265616479206265656e2072616e21000000000000604082015260600190565b60208082526017908201527f50726f766964657220646f6573206e6f74206578697374000000000000000000604082015260600190565b6020808252600c908201527f4e6f7420616e2061646d696e0000000000000000000000000000000000000000604082015260600190565b604051601f82017fffffffffffffffffffffffffffffffffffffffffffffffffffffffffffffffe016810167ffffffffffffffff811182821017156109ae576109ae610a14565b604052919050565b60007fffffffffffffffffffffffffffffffffffffffffffffffffffffffffffffffff821415610a0d577f4e487b710000000000000000000000000000000000000000000000000000000081526011600452602481fd5b5060010190565b7f4e487b7100000000000000000000000000000000000000000000000000000000600052604160045260246000fd5b73ffffffffffffffffffffffffffffffffffffffff81168114610a6557600080fd5b5056fea2646970667358221220c11ef36119c2b644bb6f2f8b6c34285cca14587cb7910e2ac1f0e68594d5b1c264736f6c63430008010033",
  "linkReferences": {},
  "deployedLinkReferences": {}
}